{
  "transactions": [
    {
      "hash": "0xeae0e4c73b1abe73fb41f442d6645c052c0ecf8d447a86e0865f319732c42221",
      "transactionType": "CREATE",
      "contractName": "RoleManager",
      "contractAddress": "0xe401df98ca0e73371111a76aabc067a84eda1f7d",
      "function": null,
      "arguments": null,
      "transaction": {
        "from": "0x6182051f545e673b54119800126d8802e3da034b",
        "gas": "0xec565",
        "value": "0x0",
        "input": "0x608060405234801561000f575f80fd5b5061001933610089565b600e61002533826100c4565b6040515f90829033907fceb2e82f29007ac1a785e815278d60a8bb40775a5cac744d2bb86e7af15d3c5b908490a461005f601060046100d4565b61006b602060086100d4565b610077600460026100d4565b610083600860026100d4565b5061016a565b6001600160a01b0316638b78c6d819819055805f7f8be0079c531659141344cd1fd0a4f28419497f9722a3daafe3b4186f6b6457e08180a350565b6100d082826001610113565b5050565b5f82815260208190526040808220839055513091839185917f62592d2036e9337543196df7feb7663b56d5f05c0b346f57720dbc5d137ece2f91a45050565b638b78c6d8600c52825f526020600c20805483811783610134575080841681185b80835580600c5160601c7f715ad5ce61fc9595c7b415289d59cf203f23a94fa06f04af7e489a0a76e1fe265f80a3505050505050565b6109c1806101775f395ff3fe608060405260043610610147575f3560e01c806354d1f13d116100b357806394658d7e1161006d57806394658d7e14610364578063a087ff4214610378578063e0776a8d1461038c578063f04e283e146103a0578063f2fde38b146103b3578063fee81cf4146103c6575f80fd5b806354d1f13d146102d2578063715018a6146102da57806379f16599146102e25780637b103999146103015780638992929c146103385780638da5cb5b1461034c575f80fd5b8063256929621161010457806325692962146102135780632de948071461021b5780632f1957db1461024c5780633c09e2fd1461026b5780634a4ee7b11461028a578063514e62fc1461029d575f80fd5b80630912ed771461014b5780630c3f822e1461016c578063183a4f6e1461019357806319b94dc6146101a65780631c10893f146101d15780631cd64df4146101e4575b5f80fd5b348015610156575f80fd5b5061016a61016536600461090c565b6103f7565b005b348015610177575f80fd5b50610180601081565b6040519081526020015b60405180910390f35b61016a6101a1366004610934565b610482565b3480156101b1575f80fd5b506101806101c0366004610934565b5f6020819052908152604090205481565b61016a6101df36600461090c565b61048f565b3480156101ef575f80fd5b506102036101fe36600461090c565b6104a5565b604051901515815260200161018a565b61016a6104c3565b348015610226575f80fd5b5061018061023536600461094b565b638b78c6d8600c9081525f91909152602090205490565b348015610257575f80fd5b5061016a61026636600461096b565b610510565b348015610276575f80fd5b5061016a61028536600461090c565b6105c7565b61016a61029836600461090c565b610652565b3480156102a8575f80fd5b506102036102b736600461090c565b638b78c6d8600c9081525f9290925260209091205416151590565b61016a610664565b61016a61069d565b3480156102ed575f80fd5b5061016a6102fc36600461094b565b6106b0565b34801561030c575f80fd5b50600154610320906001600160a01b031681565b6040516001600160a01b03909116815260200161018a565b348015610343575f80fd5b50610180600481565b348015610357575f80fd5b50638b78c6d81954610320565b34801561036f575f80fd5b50610180600281565b348015610383575f80fd5b50610180602081565b348015610397575f80fd5b50610180600881565b61016a6103ae36600461094b565b610759565b61016a6103c136600461094b565b610793565b3480156103d1575f80fd5b506101806103e036600461094b565b63389a75e1600c9081525f91909152602090205490565b61040133826107b9565b61041d576040516282b42960e81b815260040160405180910390fd5b805f0361043d57604051636caa20b560e11b815260040160405180910390fd5b610447828261082c565b604051339082906001600160a01b038516907f3dbd5b23a5af68680f6fc3194057f98cbbac14a4bd38303218cbb8901d2b982f905f90a45050565b61048c338261082c565b50565b610497610837565b6104a18282610851565b5050565b638b78c6d8600c9081525f8390526020902054811681145b92915050565b5f6202a30067ffffffffffffffff164201905063389a75e1600c52335f52806020600c2055337fdbf36a107da19e49527a7176a1babf963b4b0ff8cde35ee35d6cd8f1f9ac7e1d5f80a250565b638b78c6d819546001600160a01b0316336001600160a01b031614158015610540575061053e3360026104a5565b155b1561055d576040516282b42960e81b815260040160405180910390fd5b81158061056a5750600282145b1561058857604051636caa20b560e11b815260040160405180910390fd5b5f82815260208190526040808220839055513391839185917f62592d2036e9337543196df7feb7663b56d5f05c0b346f57720dbc5d137ece2f91a45050565b6105d133826107b9565b6105ed576040516282b42960e81b815260040160405180910390fd5b805f0361060d57604051636caa20b560e11b815260040160405180910390fd5b6106178282610851565b604051339082906001600160a01b038516907fceb2e82f29007ac1a785e815278d60a8bb40775a5cac744d2bb86e7af15d3c5b905f90a45050565b61065a610837565b6104a1828261082c565b63389a75e1600c52335f525f6020600c2055337ffa7b8eab7da67f412cc9575ed43464468f9bfbae89d1675917346ca6d8fe3c925f80a2565b6106a5610837565b6106ae5f61085d565b565b638b78c6d819546001600160a01b0316336001600160a01b0316146106e7576040516282b42960e81b815260040160405180910390fd5b6001546001600160a01b0316156107105760405162dc149f60e41b815260040160405180910390fd5b6001600160a01b0381166107375760405163d92e233d60e01b815260040160405180910390fd5b600180546001600160a01b0319166001600160a01b0392909216919091179055565b610761610837565b63389a75e1600c52805f526020600c20805442111561078757636f5e88185f526004601cfd5b5f905561048c8161085d565b61079b610837565b8060601b6107b057637448fbae5f526004601cfd5b61048c8161085d565b5f6107c7638b78c6d8195490565b6001600160a01b0316836001600160a01b0316036107e7575060016104bd565b6107f28360026104a5565b15610802575060028114156104bd565b5f828152602081905260409020548015801590610824575061082484826104a5565b949350505050565b6104a182825f61089a565b638b78c6d8195433146106ae576382b429005f526004601cfd5b6104a18282600161089a565b638b78c6d81980546001600160a01b039092169182907f8be0079c531659141344cd1fd0a4f28419497f9722a3daafe3b4186f6b6457e05f80a355565b638b78c6d8600c52825f526020600c208054838117836108bb575080841681185b80835580600c5160601c7f715ad5ce61fc9595c7b415289d59cf203f23a94fa06f04af7e489a0a76e1fe265f80a3505050505050565b80356001600160a01b0381168114610907575f80fd5b919050565b5f806040838503121561091d575f80fd5b610926836108f1565b946020939093013593505050565b5f60208284031215610944575f80fd5b5035919050565b5f6020828403121561095b575f80fd5b610964826108f1565b9392505050565b5f806040838503121561097c575f80fd5b5050803592602090910135915056fea264697066735822122082b8012887e3122db958e1eb9f4ca426aa64bd9c6458f94ec7c4bb029046558164736f6c63430008190033",
        "nonce": "0x54",
        "chainId": "0xaa37dc"
      },
      "additionalContracts": [],
      "isFixedGasLimit": false
    },
    {
      "hash": "0x9ddc0384ba3b78f3545be95403f52dbfb3aa5f1e9b6d8c6836f6a504371056e8",
      "transactionType": "CALL",
      "contractName": "RoleManager",
      "contractAddress": "0xe401df98ca0e73371111a76aabc067a84eda1f7d",
      "function": "grantRole(address,uint256)",
      "arguments": [
        "0x0670faf0016E1bf591fEd8e0322689E894104F81",
        "2"
      ],
      "transaction": {
        "from": "0x6182051f545e673b54119800126d8802e3da034b",
        "to": "0xe401df98ca0e73371111a76aabc067a84eda1f7d",
        "gas": "0x11d85",
        "value": "0x0",
        "input": "0x3c09e2fd0000000000000000000000000670faf0016e1bf591fed8e0322689e894104f810000000000000000000000000000000000000000000000000000000000000002",
        "nonce": "0x55",
        "chainId": "0xaa37dc"
      },
      "additionalContracts": [],
      "isFixedGasLimit": false
    },
    {
      "hash": "0x28090273388dd703934d7d32b38489d22568033a0e458a3ff8a2e277d1e8ab77",
      "transactionType": "CALL",
      "contractName": "RoleManager",
      "contractAddress": "0xe401df98ca0e73371111a76aabc067a84eda1f7d",
      "function": "grantRole(address,uint256)",
      "arguments": [
        "0xc67DD6f32147285A9e4D92774055cE3Dba5Ae8b6",
        "2"
      ],
      "transaction": {
        "from": "0x6182051f545e673b54119800126d8802e3da034b",
        "to": "0xe401df98ca0e73371111a76aabc067a84eda1f7d",
        "gas": "0x11d85",
        "value": "0x0",
        "input": "0x3c09e2fd000000000000000000000000c67dd6f32147285a9e4d92774055ce3dba5ae8b60000000000000000000000000000000000000000000000000000000000000002",
        "nonce": "0x56",
        "chainId": "0xaa37dc"
      },
      "additionalContracts": [],
      "isFixedGasLimit": false
    },
    {
      "hash": "0x01d4f40c4eff4deaae05722048a38691c2acea5f6dabaa12d375b7ce2dfbe751",
      "transactionType": "CALL",
      "contractName": "RoleManager",
      "contractAddress": "0xe401df98ca0e73371111a76aabc067a84eda1f7d",
      "function": "grantRole(address,uint256)",
      "arguments": [
        "0x0670faf0016E1bf591fEd8e0322689E894104F81",
        "4"
      ],
      "transaction": {
        "from": "0x6182051f545e673b54119800126d8802e3da034b",
        "to": "0xe401df98ca0e73371111a76aabc067a84eda1f7d",
        "gas": "0xb164",
        "value": "0x0",
        "input": "0x3c09e2fd0000000000000000000000000670faf0016e1bf591fed8e0322689e894104f810000000000000000000000000000000000000000000000000000000000000004",
        "nonce": "0x57",
        "chainId": "0xaa37dc"
      },
      "additionalContracts": [],
      "isFixedGasLimit": false
    },
    {
      "hash": "0xafedcf0793d0f84945696a4cfed30f29e426e3b55227a65b5da86a1baf2c373e",
      "transactionType": "CALL",
      "contractName": "RoleManager",
      "contractAddress": "0xe401df98ca0e73371111a76aabc067a84eda1f7d",
      "function": "grantRole(address,uint256)",
      "arguments": [
        "0xc67DD6f32147285A9e4D92774055cE3Dba5Ae8b6",
        "4"
      ],
      "transaction": {
        "from": "0x6182051f545e673b54119800126d8802e3da034b",
        "to": "0xe401df98ca0e73371111a76aabc067a84eda1f7d",
        "gas": "0xb164",
        "value": "0x0",
        "input": "0x3c09e2fd000000000000000000000000c67dd6f32147285a9e4d92774055ce3dba5ae8b60000000000000000000000000000000000000000000000000000000000000004",
        "nonce": "0x58",
        "chainId": "0xaa37dc"
      },
      "additionalContracts": [],
      "isFixedGasLimit": false
    },
    {
      "hash": "0xd8c05156d4eb26d28dab220f70f07fc3a79ee2189fb0b3304f4c9d940d32ac40",
      "transactionType": "CREATE",
      "contractName": "Registry",
      "contractAddress": "0xcbbf02d619f4c53b1826b64cc07ea39fb8442f13",
      "function": null,
      "arguments": [
        "0xE401DF98cA0e73371111A76AAbC067a84Eda1f7D"
      ],
      "transaction": {
        "from": "0x6182051f545e673b54119800126d8802e3da034b",
        "gas": "0x1c299e",
        "value": "0x0",
        "input": "0x60a060405234801561000f575f80fd5b506040516118eb3803806118eb83398101604081905261002e916100cc565b806001600160a01b038116610056576040516309a53a6560e31b815260040160405180910390fd5b5f80546001600160a01b0319166001600160a01b03929092169190911790556040518190610083906100bf565b6001600160a01b039091168152602001604051809103905ff0801580156100ac573d5f803e3d5ffd5b506001600160a01b0316608052506100f9565b6106cd8061121e83390190565b5f602082840312156100dc575f80fd5b81516001600160a01b03811681146100f2575f80fd5b9392505050565b60805161110d6101115f395f61011c015261110d5ff3fe608060405234801561000f575f80fd5b50600436106100e4575f3560e01c80637b10399911610088578063b41b5a0c11610063578063b41b5a0c14610222578063baa82a3414610235578063cd1436d414610248578063f50e850e1461027b575f80fd5b80637b103999146101d1578063833e8db1146101d9578063a4c1cccb146101ee575f80fd5b80631e3bf975116100c35780631e3bf975146101705780632e8ebaae146101855780635d7e641e146101a75780637ae6c8d4146101af575f80fd5b8062435da5146100e8578063050c67d9146101175780631557c2371461013e575b5f80fd5b5f546100fa906001600160a01b031681565b6040516001600160a01b0390911681526020015b60405180910390f35b6100fa7f000000000000000000000000000000000000000000000000000000000000000081565b61016061014c366004610d9e565b60026020525f908152604090205460ff1681565b604051901515815260200161010e565b61017861028e565b60405161010e9190610dc0565b610160610193366004610d9e565b60056020525f908152604090205460ff1681565b61017861039c565b6101606101bd366004610d9e565b60016020525f908152604090205460ff1681565b6100fa6103fc565b6101ec6101e7366004610e19565b610475565b005b6102106101fc366004610d9e565b60036020525f908152604090205460ff1681565b60405160ff909116815260200161010e565b6101ec610230366004610e50565b610609565b6101ec610243366004610e19565b610790565b61025b610256366004610f1e565b610916565b604080516001600160a01b0393841681529290911660208301520161010e565b610160610289366004610d9e565b610c1e565b60045460609067ffffffffffffffff8111156102ac576102ac610e81565b6040519080825280602002602001820160405280156102d5578160200160208202803683370190505b5090505f5b60045481101561039857600481815481106102f7576102f7610fda565b5f9182526020918290200154604080516327af7c4b60e21b815290516001600160a01b0390921692639ebdf12c926004808401938290030181865afa158015610342573d5f803e3d5ffd5b505050506040513d601f19601f820116820180604052508101906103669190610fee565b82828151811061037857610378610fda565b6001600160a01b03909216602092830291909101909101526001016102da565b5090565b606060048054806020026020016040519081016040528092919081815260200182805480156103f257602002820191905f5260205f20905b81546001600160a01b031681526001909101906020018083116103d4575b5050505050905090565b5f805f9054906101000a90046001600160a01b03166001600160a01b0316637b1039996040518163ffffffff1660e01b8152600401602060405180830381865afa15801561044c573d5f803e3d5ffd5b505050506040513d601f19601f820116820180604052508101906104709190610fee565b905090565b5f8054906101000a90046001600160a01b03166001600160a01b031663e0776a8d6040518163ffffffff1660e01b8152600401602060405180830381865afa1580156104c3573d5f803e3d5ffd5b505050506040513d601f19601f820116820180604052508101906104e79190611009565b5f5460405163145398bf60e21b8152336004820152602481018390526001600160a01b039091169063514e62fc90604401602060405180830381865afa158015610533573d5f803e3d5ffd5b505050506040513d601f19601f820116820180604052508101906105579190611020565b6105825760405163418b5b9d60e11b8152336004820152602481018290526044015b60405180910390fd5b6001600160a01b0383166105a95760405163d92e233d60e01b815260040160405180910390fd5b6001600160a01b0383165f81815260026020908152604091829020805460ff191686151590811790915591519182527f3e7510e93c4fe81ab57ed70b4eaa9a407eeced9cdb0954a360b36947f38ccda091015b60405180910390a2505050565b5f8054906101000a90046001600160a01b03166001600160a01b03166394658d7e6040518163ffffffff1660e01b8152600401602060405180830381865afa158015610657573d5f803e3d5ffd5b505050506040513d601f19601f8201168201806040525081019061067b9190611009565b5f5460405163145398bf60e21b8152336004820152602481018390526001600160a01b039091169063514e62fc90604401602060405180830381865afa1580156106c7573d5f803e3d5ffd5b505050506040513d601f19601f820116820180604052508101906106eb9190611020565b6107115760405163418b5b9d60e11b815233600482015260248101829052604401610579565b6001600160a01b0383166107385760405163d92e233d60e01b815260040160405180910390fd5b6001600160a01b0383165f81815260036020908152604091829020805460ff191660ff871690811790915591519182527f3bf830d3cb3debaca210c6cdf06de57a34dab5b83dd1fcdaa56ef386e3aa55d191016105fc565b5f8054906101000a90046001600160a01b03166001600160a01b0316638992929c6040518163ffffffff1660e01b8152600401602060405180830381865afa1580156107de573d5f803e3d5ffd5b505050506040513d601f19601f820116820180604052508101906108029190611009565b5f5460405163145398bf60e21b8152336004820152602481018390526001600160a01b039091169063514e62fc90604401602060405180830381865afa15801561084e573d5f803e3d5ffd5b505050506040513d601f19601f820116820180604052508101906108729190611020565b6108985760405163418b5b9d60e11b815233600482015260248101829052604401610579565b6001600160a01b0383166108bf5760405163d92e233d60e01b815260040160405180910390fd5b6001600160a01b0383165f81815260016020908152604091829020805460ff191686151590811790915591519182527f1c5097abff001fd9ac08c5adf6ec12b074fafdc4762c4351041fa0bdcef47d5a91016105fc565b5f80546040805163061fc11760e11b8152905183926001600160a01b031691630c3f822e9160048083019260209291908290030181865afa15801561095d573d5f803e3d5ffd5b505050506040513d601f19601f820116820180604052508101906109819190611009565b5f5460405163145398bf60e21b8152336004820152602481018390526001600160a01b039091169063514e62fc90604401602060405180830381865afa1580156109cd573d5f803e3d5ffd5b505050506040513d601f19601f820116820180604052508101906109f19190611020565b610a175760405163418b5b9d60e11b815233600482015260248101829052604401610579565b6001600160a01b0386165f9081526003602052604081205460ff169003610a515760405163ede905a560e01b815260040160405180910390fd5b6001600160a01b0389165f9081526001602052604090205460ff16610a895760405163a8c14c8f60e01b815260040160405180910390fd5b610a9b896001600160a01b0316610d25565b5f80546001600160a01b0389811683526003602052604092839020549251632bf71fe960e01b815293965080871693632bf71fe993610aed938e938e939116918c918e9160ff16908d90600401611069565b5f604051808303815f87803b158015610b04575f80fd5b505af1158015610b16573d5f803e3d5ffd5b50505050826001600160a01b0316639ebdf12c6040518163ffffffff1660e01b8152600401602060405180830381865afa158015610b56573d5f803e3d5ffd5b505050506040513d601f19601f82011682018060405250810190610b7a9190610fee565b6004805460018082019092557f8a35acfbc15ff81a39ae7d344fd709f28e8600b4aa8c65c6b64bfe7fe36bd19b0180546001600160a01b0319166001600160a01b038781169182179092555f81815260056020526040808220805460ff19169095179094559251939550898216939186169290917fd891579382335a4561d7e90956afe163514f6a8057aeb64393b910c17abb33879190a450965096945050505050565b5f80826001600160a01b031663a8c62e766040518163ffffffff1660e01b8152600401602060405180830381865afa158015610c5c573d5f803e3d5ffd5b505050506040513d601f19601f82011682018060405250810190610c809190610fee565b6001600160a01b0381165f9081526005602052604090205490915060ff16610caa57505f92915050565b826001600160a01b0316816001600160a01b0316639ebdf12c6040518163ffffffff1660e01b8152600401602060405180830381865afa158015610cf0573d5f803e3d5ffd5b505050506040513d601f19601f82011682018060405250810190610d149190610fee565b6001600160a01b0316149392505050565b5f610d305f83610d36565b92915050565b5f6c5af43d3d93803e602a57fd5bf36021528160145273602c3d8160093d39f33d3d3d3d363d3d37363d735f526035600c84f0905080610d7d5763301164255f526004601cfd5b5f60215292915050565b6001600160a01b0381168114610d9b575f80fd5b50565b5f60208284031215610dae575f80fd5b8135610db981610d87565b9392505050565b602080825282518282018190525f9190848201906040850190845b81811015610e005783516001600160a01b031683529284019291840191600101610ddb565b50909695505050505050565b8015158114610d9b575f80fd5b5f8060408385031215610e2a575f80fd5b8235610e3581610d87565b91506020830135610e4581610e0c565b809150509250929050565b5f8060408385031215610e61575f80fd5b8235610e6c81610d87565b9150602083013560ff81168114610e45575f80fd5b634e487b7160e01b5f52604160045260245ffd5b5f82601f830112610ea4575f80fd5b813567ffffffffffffffff80821115610ebf57610ebf610e81565b604051601f8301601f19908116603f01168101908282118183101715610ee757610ee7610e81565b81604052838152866020858801011115610eff575f80fd5b836020870160208301375f602085830101528094505050505092915050565b5f805f805f8060c08789031215610f33575f80fd5b8635610f3e81610d87565b9550602087013567ffffffffffffffff80821115610f5a575f80fd5b610f668a838b01610e95565b96506040890135915080821115610f7b575f80fd5b610f878a838b01610e95565b955060608901359150610f9982610d87565b909350608088013590610fab82610d87565b90925060a08801359080821115610fc0575f80fd5b50610fcd89828a01610e95565b9150509295509295509295565b634e487b7160e01b5f52603260045260245ffd5b5f60208284031215610ffe575f80fd5b8151610db981610d87565b5f60208284031215611019575f80fd5b5051919050565b5f60208284031215611030575f80fd5b8151610db981610e0c565b5f81518084528060208401602086015e5f602082860101526020601f19601f83011685010191505092915050565b60e081525f61107b60e083018a61103b565b828103602084015261108d818a61103b565b6001600160a01b03898116604086015288811660608601528716608085015260ff861660a085015283810360c085015290506110c9818561103b565b9a995050505050505050505056fea26469706673582212200ad05baa150562908c550b0846b572812b412b61a7906e297688164fbfa29d7d64736f6c634300081900336080604052348015600e575f80fd5b506040516106cd3803806106cd833981016040819052602b916076565b806001600160a01b0381166052576040516309a53a6560e31b815260040160405180910390fd5b5f80546001600160a01b0319166001600160a01b03929092169190911790555060a1565b5f602082840312156085575f80fd5b81516001600160a01b0381168114609a575f80fd5b9392505050565b61061f806100ae5f395ff3fe608060405234801561000f575f80fd5b5060043610610049575f3560e01c8062435da51461004d5780637b1039991461007c578063b2118a8d14610084578063cbd8aaa114610099575b5f80fd5b5f5461005f906001600160a01b031681565b6040516001600160a01b0390911681526020015b60405180910390f35b61005f6100bc565b610097610092366004610505565b610135565b005b6100ac6100a7366004610543565b61025b565b6040519015158152602001610073565b5f805f9054906101000a90046001600160a01b03166001600160a01b0316637b1039996040518163ffffffff1660e01b8152600401602060405180830381865afa15801561010c573d5f803e3d5ffd5b505050506040513d601f19601f820116820180604052508101906101309190610591565b905090565b5f8054906101000a90046001600160a01b03166001600160a01b03166394658d7e6040518163ffffffff1660e01b8152600401602060405180830381865afa158015610183573d5f803e3d5ffd5b505050506040513d601f19601f820116820180604052508101906101a791906105b3565b5f5460405163145398bf60e21b8152336004820152602481018390526001600160a01b039091169063514e62fc90604401602060405180830381865afa1580156101f3573d5f803e3d5ffd5b505050506040513d601f19601f8201168201806040525081019061021791906105ca565b6102415760405163418b5b9d60e11b81523360048201526024810182905260440160405180910390fd5b6102556001600160a01b038516848461044b565b50505050565b5f815f0361027c5760405163162908e360e11b815260040160405180910390fd5b6102846100bc565b604051637a87428760e11b81523360048201526001600160a01b03919091169063f50e850e90602401602060405180830381865afa1580156102c8573d5f803e3d5ffd5b505050506040513d601f19601f820116820180604052508101906102ec91906105ca565b6103095760405163ac6b05f560e01b815260040160405180910390fd5b846001600160a01b0316336001600160a01b03166338d52e0f6040518163ffffffff1660e01b8152600401602060405180830381865afa15801561034f573d5f803e3d5ffd5b505050506040513d601f19601f820116820180604052508101906103739190610591565b6001600160a01b03161461039a5760405163c1ab6dc160e01b815260040160405180910390fd5b826001600160a01b0316336001600160a01b031663a8c62e766040518163ffffffff1660e01b8152600401602060405180830381865afa1580156103e0573d5f803e3d5ffd5b505050506040513d601f19601f820116820180604052508101906104049190610591565b6001600160a01b03161461042b5760405163ac6b05f560e01b815260040160405180910390fd5b6104406001600160a01b038616858585610495565b506001949350505050565b816014528060345263a9059cbb60601b5f5260205f604460105f875af18060015f51141661048b57803d853b15171061048b576390b8ec185f526004601cfd5b505f603452505050565b60405181606052826040528360601b602c526323b872dd60601b600c5260205f6064601c5f895af18060015f5114166104e057803d873b1517106104e057637939f4245f526004601cfd5b505f60605260405250505050565b6001600160a01b0381168114610502575f80fd5b50565b5f805f60608486031215610517575f80fd5b8335610522816104ee565b92506020840135610532816104ee565b929592945050506040919091013590565b5f805f8060808587031215610556575f80fd5b8435610561816104ee565b93506020850135610571816104ee565b92506040850135610581816104ee565b9396929550929360600135925050565b5f602082840312156105a1575f80fd5b81516105ac816104ee565b9392505050565b5f602082840312156105c3575f80fd5b5051919050565b5f602082840312156105da575f80fd5b815180151581146105ac575f80fdfea264697066735822122075b76afa228ebe01adc55f309d876d1e0951c2c3443dd3ee0c2028208823e10164736f6c63430008190033000000000000000000000000e401df98ca0e73371111a76aabc067a84eda1f7d",
        "nonce": "0x59",
        "chainId": "0xaa37dc"
      },
      "additionalContracts": [
        {
          "transactionType": "CREATE",
          "address": "0x2be0922fc3732b840d42a8912f0296321d9c4a2e",
          "initCode": "0x6080604052348015600e575f80fd5b506040516106cd3803806106cd833981016040819052602b916076565b806001600160a01b0381166052576040516309a53a6560e31b815260040160405180910390fd5b5f80546001600160a01b0319166001600160a01b03929092169190911790555060a1565b5f602082840312156085575f80fd5b81516001600160a01b0381168114609a575f80fd5b9392505050565b61061f806100ae5f395ff3fe608060405234801561000f575f80fd5b5060043610610049575f3560e01c8062435da51461004d5780637b1039991461007c578063b2118a8d14610084578063cbd8aaa114610099575b5f80fd5b5f5461005f906001600160a01b031681565b6040516001600160a01b0390911681526020015b60405180910390f35b61005f6100bc565b610097610092366004610505565b610135565b005b6100ac6100a7366004610543565b61025b565b6040519015158152602001610073565b5f805f9054906101000a90046001600160a01b03166001600160a01b0316637b1039996040518163ffffffff1660e01b8152600401602060405180830381865afa15801561010c573d5f803e3d5ffd5b505050506040513d601f19601f820116820180604052508101906101309190610591565b905090565b5f8054906101000a90046001600160a01b03166001600160a01b03166394658d7e6040518163ffffffff1660e01b8152600401602060405180830381865afa158015610183573d5f803e3d5ffd5b505050506040513d601f19601f820116820180604052508101906101a791906105b3565b5f5460405163145398bf60e21b8152336004820152602481018390526001600160a01b039091169063514e62fc90604401602060405180830381865afa1580156101f3573d5f803e3d5ffd5b505050506040513d601f19601f8201168201806040525081019061021791906105ca565b6102415760405163418b5b9d60e11b81523360048201526024810182905260440160405180910390fd5b6102556001600160a01b038516848461044b565b50505050565b5f815f0361027c5760405163162908e360e11b815260040160405180910390fd5b6102846100bc565b604051637a87428760e11b81523360048201526001600160a01b03919091169063f50e850e90602401602060405180830381865afa1580156102c8573d5f803e3d5ffd5b505050506040513d601f19601f820116820180604052508101906102ec91906105ca565b6103095760405163ac6b05f560e01b815260040160405180910390fd5b846001600160a01b0316336001600160a01b03166338d52e0f6040518163ffffffff1660e01b8152600401602060405180830381865afa15801561034f573d5f803e3d5ffd5b505050506040513d601f19601f820116820180604052508101906103739190610591565b6001600160a01b03161461039a5760405163c1ab6dc160e01b815260040160405180910390fd5b826001600160a01b0316336001600160a01b031663a8c62e766040518163ffffffff1660e01b8152600401602060405180830381865afa1580156103e0573d5f803e3d5ffd5b505050506040513d601f19601f820116820180604052508101906104049190610591565b6001600160a01b03161461042b5760405163ac6b05f560e01b815260040160405180910390fd5b6104406001600160a01b038616858585610495565b506001949350505050565b816014528060345263a9059cbb60601b5f5260205f604460105f875af18060015f51141661048b57803d853b15171061048b576390b8ec185f526004601cfd5b505f603452505050565b60405181606052826040528360601b602c526323b872dd60601b600c5260205f6064601c5f895af18060015f5114166104e057803d873b1517106104e057637939f4245f526004601cfd5b505f60605260405250505050565b6001600160a01b0381168114610502575f80fd5b50565b5f805f60608486031215610517575f80fd5b8335610522816104ee565b92506020840135610532816104ee565b929592945050506040919091013590565b5f805f8060808587031215610556575f80fd5b8435610561816104ee565b93506020850135610571816104ee565b92506040850135610581816104ee565b9396929550929360600135925050565b5f602082840312156105a1575f80fd5b81516105ac816104ee565b9392505050565b5f602082840312156105c3575f80fd5b5051919050565b5f602082840312156105da575f80fd5b815180151581146105ac575f80fdfea264697066735822122075b76afa228ebe01adc55f309d876d1e0951c2c3443dd3ee0c2028208823e10164736f6c63430008190033000000000000000000000000e401df98ca0e73371111a76aabc067a84eda1f7d"
        }
      ],
      "isFixedGasLimit": false
    },
    {
      "hash": "0xddede8ffae1999cc8cbe3d77271acb88d68802e330e65feed89302375cf03cd5",
      "transactionType": "CALL",
      "contractName": "RoleManager",
      "contractAddress": "0xe401df98ca0e73371111a76aabc067a84eda1f7d",
      "function": "initializeRegistry(address)",
      "arguments": [
        "0xcBBf02D619F4C53B1826B64Cc07Ea39Fb8442f13"
      ],
      "transaction": {
        "from": "0x6182051f545e673b54119800126d8802e3da034b",
        "to": "0xe401df98ca0e73371111a76aabc067a84eda1f7d",
        "gas": "0xf9d1",
        "value": "0x0",
        "input": "0x79f16599000000000000000000000000cbbf02d619f4c53b1826b64cc07ea39fb8442f13",
        "nonce": "0x5a",
        "chainId": "0xaa37dc"
      },
      "additionalContracts": [],
      "isFixedGasLimit": false
    },
    {
      "hash": "0x8d3892446949b5985752b81421a644914a10b5406a727bf9c48709f70aab12ba",
      "transactionType": "CREATE",
      "contractName": "MockERC20",
      "contractAddress": "0x7caac5eb64e3721a82121f3b9b247cb6ffca7203",
      "function": null,
      "arguments": [
        "SovaBTC",
        "SBTC",
        "8"
      ],
      "transaction": {
        "from": "0x6182051f545e673b54119800126d8802e3da034b",
        "gas": "0x10ebff",
        "value": "0x0",
        "input": "0x608060405234801561000f575f80fd5b50604051610f93380380610f9383398101604081905261002e9161013e565b5f6100398482610239565b5060016100468382610239565b506002805460ff191660ff831617905561005f33610067565b5050506102f8565b6001600160a01b0316638b78c6d819819055805f7f8be0079c531659141344cd1fd0a4f28419497f9722a3daafe3b4186f6b6457e08180a350565b634e487b7160e01b5f52604160045260245ffd5b5f82601f8301126100c5575f80fd5b81516001600160401b03808211156100df576100df6100a2565b604051601f8301601f19908116603f01168101908282118183101715610107576101076100a2565b8160405283815286602085880101111561011f575f80fd5b8360208701602083015e5f602085830101528094505050505092915050565b5f805f60608486031215610150575f80fd5b83516001600160401b0380821115610166575f80fd5b610172878388016100b6565b94506020860151915080821115610187575f80fd5b50610194868287016100b6565b925050604084015160ff811681146101aa575f80fd5b809150509250925092565b600181811c908216806101c957607f821691505b6020821081036101e757634e487b7160e01b5f52602260045260245ffd5b50919050565b601f82111561023457805f5260205f20601f840160051c810160208510156102125750805b601f840160051c820191505b81811015610231575f815560010161021e565b50505b505050565b81516001600160401b03811115610252576102526100a2565b6102668161026084546101b5565b846101ed565b602080601f831160018114610299575f84156102825750858301515b5f19600386901b1c1916600185901b1785556102f0565b5f85815260208120601f198616915b828110156102c7578886015182559484019460019091019084016102a8565b50858210156102e457878501515f19600388901b60f8161c191681555b505060018460011b0185555b505050505050565b610c8e806103055f395ff3fe608060405260043610610126575f3560e01c8063715018a6116100a8578063a9059cbb1161006d578063a9059cbb146102f6578063d505accf14610315578063dd62ed3e14610334578063f04e283e14610353578063f2fde38b14610366578063fee81cf414610379575f80fd5b8063715018a61461025f5780637ecebe00146102675780638da5cb5b1461029857806395d89b41146102c35780639dc29fac146102d7575f80fd5b8063313ce567116100ee578063313ce567146101d25780633644e515146101f357806340c10f191461020757806354d1f13d1461022657806370a082311461022e575f80fd5b806306fdde031461012a578063095ea7b31461015457806318160ddd1461018357806323b872dd146101a957806325692962146101c8575b5f80fd5b348015610135575f80fd5b5061013e6103aa565b60405161014b9190610a91565b60405180910390f35b34801561015f575f80fd5b5061017361016e366004610ae1565b610439565b604051901515815260200161014b565b34801561018e575f80fd5b506805345cdf77eb68f44c545b60405190815260200161014b565b3480156101b4575f80fd5b506101736101c3366004610b09565b6104b9565b6101d0610575565b005b3480156101dd575f80fd5b5060025460405160ff909116815260200161014b565b3480156101fe575f80fd5b5061019b6105c2565b348015610212575f80fd5b506101d0610221366004610ae1565b61063e565b6101d061064c565b348015610239575f80fd5b5061019b610248366004610b42565b6387a211a2600c9081525f91909152602090205490565b6101d0610685565b348015610272575f80fd5b5061019b610281366004610b42565b6338377508600c9081525f91909152602090205490565b3480156102a3575f80fd5b50638b78c6d819546040516001600160a01b03909116815260200161014b565b3480156102ce575f80fd5b5061013e610698565b3480156102e2575f80fd5b506101d06102f1366004610ae1565b6106a7565b348015610301575f80fd5b50610173610310366004610ae1565b6106b1565b348015610320575f80fd5b506101d061032f366004610b62565b610715565b34801561033f575f80fd5b5061019b61034e366004610bcf565b6108c9565b6101d0610361366004610b42565b61090d565b6101d0610374366004610b42565b61094a565b348015610384575f80fd5b5061019b610393366004610b42565b63389a75e1600c9081525f91909152602090205490565b60605f80546103b890610c00565b80601f01602080910402602001604051908101604052809291908181526020018280546103e490610c00565b801561042f5780601f106104065761010080835404028352916020019161042f565b820191905f5260205f20905b81548152906001019060200180831161041257829003601f168201915b5050505050905090565b5f6001600160a01b0383166e22d473030f116ddee9f6b43ac78ba3188219151761046a57633f68539a5f526004601cfd5b82602052637f5e9f20600c52335f52816034600c2055815f52602c5160601c337f8c5be1e5ebec7d5bd14f71427d1e84f3dd0314c0f7b2291e5b200ac8c7c3b92560205fa35060015b92915050565b5f8360601b6e22d473030f116ddee9f6b43ac78ba3331461050e5733602052637f5e9f208117600c526034600c20805480191561050b5780851115610505576313be252b5f526004601cfd5b84810382555b50505b6387a211a28117600c526020600c208054808511156105345763f4d678b85f526004601cfd5b84810382555050835f526020600c208381540181555082602052600c5160601c8160601c5f80516020610c39833981519152602080a3505060019392505050565b5f6202a30067ffffffffffffffff164201905063389a75e1600c52335f52806020600c2055337fdbf36a107da19e49527a7176a1babf963b4b0ff8cde35ee35d6cd8f1f9ac7e1d5f80a250565b5f806105cc6103aa565b805190602001209050604080517f8b73c3c69bb8fe3d512ecc4cf759cc79239f7b179b0ffacaa9a75d522b39400f815260208101929092527fc89efdaa54c0f20c7adf612882df0950f5a951637e0307cdcb4c672f298b8bc69082015246606082015230608082015260a09020919050565b6106488282610970565b5050565b63389a75e1600c52335f525f6020600c2055337ffa7b8eab7da67f412cc9575ed43464468f9bfbae89d1675917346ca6d8fe3c925f80a2565b61068d6109d9565b6106965f6109f3565b565b6060600180546103b890610c00565b6106488282610a30565b5f6387a211a2600c52335f526020600c208054808411156106d95763f4d678b85f526004601cfd5b83810382555050825f526020600c208281540181555081602052600c5160601c335f80516020610c39833981519152602080a350600192915050565b6001600160a01b0386166e22d473030f116ddee9f6b43ac78ba3188519151761074557633f68539a5f526004601cfd5b5f61074e6103aa565b8051906020012090507fc89efdaa54c0f20c7adf612882df0950f5a951637e0307cdcb4c672f298b8bc64286101561078d57631a15a3cc5f526004601cfd5b6040518960601b60601c99508860601b60601c985065383775081901600e52895f526020600c2080547f8b73c3c69bb8fe3d512ecc4cf759cc79239f7b179b0ffacaa9a75d522b39400f835284602084015283604084015246606084015230608084015260a08320602e527f6e71edae12b1b97f4d1f60370fef10105fa2faae0126114a169c64845d6126c983528b60208401528a60408401528960608401528060808401528860a084015260c08320604e526042602c205f528760ff16602052866040528560605260208060805f60015afa8c3d51146108755763ddafbaef5f526004601cfd5b0190556303faf4f960a51b89176040526034602c20889055888a7f8c5be1e5ebec7d5bd14f71427d1e84f3dd0314c0f7b2291e5b200ac8c7c3b925602060608501a360405250505f60605250505050505050565b5f6e22d473030f116ddee9f6b43ac78ba2196001600160a01b038316016108f257505f196104b3565b50602052637f5e9f20600c9081525f91909152603490205490565b6109156109d9565b63389a75e1600c52805f526020600c20805442111561093b57636f5e88185f526004601cfd5b5f9055610947816109f3565b50565b6109526109d9565b8060601b61096757637448fbae5f526004601cfd5b610947816109f3565b6805345cdf77eb68f44c54818101818110156109935763e5cfe9575f526004601cfd5b806805345cdf77eb68f44c5550506387a211a2600c52815f526020600c208181540181555080602052600c5160601c5f5f80516020610c39833981519152602080a35050565b638b78c6d819543314610696576382b429005f526004601cfd5b638b78c6d81980546001600160a01b039092169182907f8be0079c531659141344cd1fd0a4f28419497f9722a3daafe3b4186f6b6457e05f80a355565b6387a211a2600c52815f526020600c20805480831115610a575763f4d678b85f526004601cfd5b82900390556805345cdf77eb68f44c805482900390555f8181526001600160a01b0383165f80516020610c39833981519152602083a35050565b602081525f82518060208401528060208501604085015e5f604082850101526040601f19601f83011684010191505092915050565b80356001600160a01b0381168114610adc575f80fd5b919050565b5f8060408385031215610af2575f80fd5b610afb83610ac6565b946020939093013593505050565b5f805f60608486031215610b1b575f80fd5b610b2484610ac6565b9250610b3260208501610ac6565b9150604084013590509250925092565b5f60208284031215610b52575f80fd5b610b5b82610ac6565b9392505050565b5f805f805f805f60e0888a031215610b78575f80fd5b610b8188610ac6565b9650610b8f60208901610ac6565b95506040880135945060608801359350608088013560ff81168114610bb2575f80fd5b9699959850939692959460a0840135945060c09093013592915050565b5f8060408385031215610be0575f80fd5b610be983610ac6565b9150610bf760208401610ac6565b90509250929050565b600181811c90821680610c1457607f821691505b602082108103610c3257634e487b7160e01b5f52602260045260245ffd5b5091905056feddf252ad1be2c89b69c2b068fc378daa952ba7f163c4a11628f55a4df523b3efa264697066735822122053f1c994ee70cc4b882ad3b728d53aa50f4cbbf69b2798eab8f59919e7d06e0364736f6c63430008190033000000000000000000000000000000000000000000000000000000000000006000000000000000000000000000000000000000000000000000000000000000a000000000000000000000000000000000000000000000000000000000000000080000000000000000000000000000000000000000000000000000000000000007536f76614254430000000000000000000000000000000000000000000000000000000000000000000000000000000000000000000000000000000000000000045342544300000000000000000000000000000000000000000000000000000000",
        "nonce": "0x5b",
        "chainId": "0xaa37dc"
      },
      "additionalContracts": [],
      "isFixedGasLimit": false
    },
    {
      "hash": "0x787ecd42f31ebc89ecf8ab4e986fe5e085c32f62930db734f8e079a8057034e9",
      "transactionType": "CREATE",
      "contractName": "MockERC20",
      "contractAddress": "0xc9fe3e6ff20fe4eb4f48b3993c947be51007d2c1",
      "function": null,
      "arguments": [
        "Wrapped Bitcoin",
        "WBTC",
        "8"
      ],
      "transaction": {
        "from": "0x6182051f545e673b54119800126d8802e3da034b",
        "gas": "0x10ec7b",
        "value": "0x0",
        "input": "0x608060405234801561000f575f80fd5b50604051610f93380380610f9383398101604081905261002e9161013e565b5f6100398482610239565b5060016100468382610239565b506002805460ff191660ff831617905561005f33610067565b5050506102f8565b6001600160a01b0316638b78c6d819819055805f7f8be0079c531659141344cd1fd0a4f28419497f9722a3daafe3b4186f6b6457e08180a350565b634e487b7160e01b5f52604160045260245ffd5b5f82601f8301126100c5575f80fd5b81516001600160401b03808211156100df576100df6100a2565b604051601f8301601f19908116603f01168101908282118183101715610107576101076100a2565b8160405283815286602085880101111561011f575f80fd5b8360208701602083015e5f602085830101528094505050505092915050565b5f805f60608486031215610150575f80fd5b83516001600160401b0380821115610166575f80fd5b610172878388016100b6565b94506020860151915080821115610187575f80fd5b50610194868287016100b6565b925050604084015160ff811681146101aa575f80fd5b809150509250925092565b600181811c908216806101c957607f821691505b6020821081036101e757634e487b7160e01b5f52602260045260245ffd5b50919050565b601f82111561023457805f5260205f20601f840160051c810160208510156102125750805b601f840160051c820191505b81811015610231575f815560010161021e565b50505b505050565b81516001600160401b03811115610252576102526100a2565b6102668161026084546101b5565b846101ed565b602080601f831160018114610299575f84156102825750858301515b5f19600386901b1c1916600185901b1785556102f0565b5f85815260208120601f198616915b828110156102c7578886015182559484019460019091019084016102a8565b50858210156102e457878501515f19600388901b60f8161c191681555b505060018460011b0185555b505050505050565b610c8e806103055f395ff3fe608060405260043610610126575f3560e01c8063715018a6116100a8578063a9059cbb1161006d578063a9059cbb146102f6578063d505accf14610315578063dd62ed3e14610334578063f04e283e14610353578063f2fde38b14610366578063fee81cf414610379575f80fd5b8063715018a61461025f5780637ecebe00146102675780638da5cb5b1461029857806395d89b41146102c35780639dc29fac146102d7575f80fd5b8063313ce567116100ee578063313ce567146101d25780633644e515146101f357806340c10f191461020757806354d1f13d1461022657806370a082311461022e575f80fd5b806306fdde031461012a578063095ea7b31461015457806318160ddd1461018357806323b872dd146101a957806325692962146101c8575b5f80fd5b348015610135575f80fd5b5061013e6103aa565b60405161014b9190610a91565b60405180910390f35b34801561015f575f80fd5b5061017361016e366004610ae1565b610439565b604051901515815260200161014b565b34801561018e575f80fd5b506805345cdf77eb68f44c545b60405190815260200161014b565b3480156101b4575f80fd5b506101736101c3366004610b09565b6104b9565b6101d0610575565b005b3480156101dd575f80fd5b5060025460405160ff909116815260200161014b565b3480156101fe575f80fd5b5061019b6105c2565b348015610212575f80fd5b506101d0610221366004610ae1565b61063e565b6101d061064c565b348015610239575f80fd5b5061019b610248366004610b42565b6387a211a2600c9081525f91909152602090205490565b6101d0610685565b348015610272575f80fd5b5061019b610281366004610b42565b6338377508600c9081525f91909152602090205490565b3480156102a3575f80fd5b50638b78c6d819546040516001600160a01b03909116815260200161014b565b3480156102ce575f80fd5b5061013e610698565b3480156102e2575f80fd5b506101d06102f1366004610ae1565b6106a7565b348015610301575f80fd5b50610173610310366004610ae1565b6106b1565b348015610320575f80fd5b506101d061032f366004610b62565b610715565b34801561033f575f80fd5b5061019b61034e366004610bcf565b6108c9565b6101d0610361366004610b42565b61090d565b6101d0610374366004610b42565b61094a565b348015610384575f80fd5b5061019b610393366004610b42565b63389a75e1600c9081525f91909152602090205490565b60605f80546103b890610c00565b80601f01602080910402602001604051908101604052809291908181526020018280546103e490610c00565b801561042f5780601f106104065761010080835404028352916020019161042f565b820191905f5260205f20905b81548152906001019060200180831161041257829003601f168201915b5050505050905090565b5f6001600160a01b0383166e22d473030f116ddee9f6b43ac78ba3188219151761046a57633f68539a5f526004601cfd5b82602052637f5e9f20600c52335f52816034600c2055815f52602c5160601c337f8c5be1e5ebec7d5bd14f71427d1e84f3dd0314c0f7b2291e5b200ac8c7c3b92560205fa35060015b92915050565b5f8360601b6e22d473030f116ddee9f6b43ac78ba3331461050e5733602052637f5e9f208117600c526034600c20805480191561050b5780851115610505576313be252b5f526004601cfd5b84810382555b50505b6387a211a28117600c526020600c208054808511156105345763f4d678b85f526004601cfd5b84810382555050835f526020600c208381540181555082602052600c5160601c8160601c5f80516020610c39833981519152602080a3505060019392505050565b5f6202a30067ffffffffffffffff164201905063389a75e1600c52335f52806020600c2055337fdbf36a107da19e49527a7176a1babf963b4b0ff8cde35ee35d6cd8f1f9ac7e1d5f80a250565b5f806105cc6103aa565b805190602001209050604080517f8b73c3c69bb8fe3d512ecc4cf759cc79239f7b179b0ffacaa9a75d522b39400f815260208101929092527fc89efdaa54c0f20c7adf612882df0950f5a951637e0307cdcb4c672f298b8bc69082015246606082015230608082015260a09020919050565b6106488282610970565b5050565b63389a75e1600c52335f525f6020600c2055337ffa7b8eab7da67f412cc9575ed43464468f9bfbae89d1675917346ca6d8fe3c925f80a2565b61068d6109d9565b6106965f6109f3565b565b6060600180546103b890610c00565b6106488282610a30565b5f6387a211a2600c52335f526020600c208054808411156106d95763f4d678b85f526004601cfd5b83810382555050825f526020600c208281540181555081602052600c5160601c335f80516020610c39833981519152602080a350600192915050565b6001600160a01b0386166e22d473030f116ddee9f6b43ac78ba3188519151761074557633f68539a5f526004601cfd5b5f61074e6103aa565b8051906020012090507fc89efdaa54c0f20c7adf612882df0950f5a951637e0307cdcb4c672f298b8bc64286101561078d57631a15a3cc5f526004601cfd5b6040518960601b60601c99508860601b60601c985065383775081901600e52895f526020600c2080547f8b73c3c69bb8fe3d512ecc4cf759cc79239f7b179b0ffacaa9a75d522b39400f835284602084015283604084015246606084015230608084015260a08320602e527f6e71edae12b1b97f4d1f60370fef10105fa2faae0126114a169c64845d6126c983528b60208401528a60408401528960608401528060808401528860a084015260c08320604e526042602c205f528760ff16602052866040528560605260208060805f60015afa8c3d51146108755763ddafbaef5f526004601cfd5b0190556303faf4f960a51b89176040526034602c20889055888a7f8c5be1e5ebec7d5bd14f71427d1e84f3dd0314c0f7b2291e5b200ac8c7c3b925602060608501a360405250505f60605250505050505050565b5f6e22d473030f116ddee9f6b43ac78ba2196001600160a01b038316016108f257505f196104b3565b50602052637f5e9f20600c9081525f91909152603490205490565b6109156109d9565b63389a75e1600c52805f526020600c20805442111561093b57636f5e88185f526004601cfd5b5f9055610947816109f3565b50565b6109526109d9565b8060601b61096757637448fbae5f526004601cfd5b610947816109f3565b6805345cdf77eb68f44c54818101818110156109935763e5cfe9575f526004601cfd5b806805345cdf77eb68f44c5550506387a211a2600c52815f526020600c208181540181555080602052600c5160601c5f5f80516020610c39833981519152602080a35050565b638b78c6d819543314610696576382b429005f526004601cfd5b638b78c6d81980546001600160a01b039092169182907f8be0079c531659141344cd1fd0a4f28419497f9722a3daafe3b4186f6b6457e05f80a355565b6387a211a2600c52815f526020600c20805480831115610a575763f4d678b85f526004601cfd5b82900390556805345cdf77eb68f44c805482900390555f8181526001600160a01b0383165f80516020610c39833981519152602083a35050565b602081525f82518060208401528060208501604085015e5f604082850101526040601f19601f83011684010191505092915050565b80356001600160a01b0381168114610adc575f80fd5b919050565b5f8060408385031215610af2575f80fd5b610afb83610ac6565b946020939093013593505050565b5f805f60608486031215610b1b575f80fd5b610b2484610ac6565b9250610b3260208501610ac6565b9150604084013590509250925092565b5f60208284031215610b52575f80fd5b610b5b82610ac6565b9392505050565b5f805f805f805f60e0888a031215610b78575f80fd5b610b8188610ac6565b9650610b8f60208901610ac6565b95506040880135945060608801359350608088013560ff81168114610bb2575f80fd5b9699959850939692959460a0840135945060c09093013592915050565b5f8060408385031215610be0575f80fd5b610be983610ac6565b9150610bf760208401610ac6565b90509250929050565b600181811c90821680610c1457607f821691505b602082108103610c3257634e487b7160e01b5f52602260045260245ffd5b5091905056feddf252ad1be2c89b69c2b068fc378daa952ba7f163c4a11628f55a4df523b3efa264697066735822122053f1c994ee70cc4b882ad3b728d53aa50f4cbbf69b2798eab8f59919e7d06e0364736f6c63430008190033000000000000000000000000000000000000000000000000000000000000006000000000000000000000000000000000000000000000000000000000000000a00000000000000000000000000000000000000000000000000000000000000008000000000000000000000000000000000000000000000000000000000000000f5772617070656420426974636f696e000000000000000000000000000000000000000000000000000000000000000000000000000000000000000000000000045742544300000000000000000000000000000000000000000000000000000000",
        "nonce": "0x5c",
        "chainId": "0xaa37dc"
      },
      "additionalContracts": [],
      "isFixedGasLimit": false
    },
    {
      "hash": "0xbe5b2c5e348aac15ab62656ff0d619e2ef348de90a8922445d3a9273a14c36d8",
      "transactionType": "CREATE",
      "contractName": "MockERC20",
      "contractAddress": "0x0b00093dcc35c1a887789e079453c64b641872b6",
      "function": null,
      "arguments": [
        "tBTC",
        "TBTC",
        "18"
      ],
      "transaction": {
        "from": "0x6182051f545e673b54119800126d8802e3da034b",
        "gas": "0x10ebd0",
        "value": "0x0",
        "input": "0x608060405234801561000f575f80fd5b50604051610f93380380610f9383398101604081905261002e9161013e565b5f6100398482610239565b5060016100468382610239565b506002805460ff191660ff831617905561005f33610067565b5050506102f8565b6001600160a01b0316638b78c6d819819055805f7f8be0079c531659141344cd1fd0a4f28419497f9722a3daafe3b4186f6b6457e08180a350565b634e487b7160e01b5f52604160045260245ffd5b5f82601f8301126100c5575f80fd5b81516001600160401b03808211156100df576100df6100a2565b604051601f8301601f19908116603f01168101908282118183101715610107576101076100a2565b8160405283815286602085880101111561011f575f80fd5b8360208701602083015e5f602085830101528094505050505092915050565b5f805f60608486031215610150575f80fd5b83516001600160401b0380821115610166575f80fd5b610172878388016100b6565b94506020860151915080821115610187575f80fd5b50610194868287016100b6565b925050604084015160ff811681146101aa575f80fd5b809150509250925092565b600181811c908216806101c957607f821691505b6020821081036101e757634e487b7160e01b5f52602260045260245ffd5b50919050565b601f82111561023457805f5260205f20601f840160051c810160208510156102125750805b601f840160051c820191505b81811015610231575f815560010161021e565b50505b505050565b81516001600160401b03811115610252576102526100a2565b6102668161026084546101b5565b846101ed565b602080601f831160018114610299575f84156102825750858301515b5f19600386901b1c1916600185901b1785556102f0565b5f85815260208120601f198616915b828110156102c7578886015182559484019460019091019084016102a8565b50858210156102e457878501515f19600388901b60f8161c191681555b505060018460011b0185555b505050505050565b610c8e806103055f395ff3fe608060405260043610610126575f3560e01c8063715018a6116100a8578063a9059cbb1161006d578063a9059cbb146102f6578063d505accf14610315578063dd62ed3e14610334578063f04e283e14610353578063f2fde38b14610366578063fee81cf414610379575f80fd5b8063715018a61461025f5780637ecebe00146102675780638da5cb5b1461029857806395d89b41146102c35780639dc29fac146102d7575f80fd5b8063313ce567116100ee578063313ce567146101d25780633644e515146101f357806340c10f191461020757806354d1f13d1461022657806370a082311461022e575f80fd5b806306fdde031461012a578063095ea7b31461015457806318160ddd1461018357806323b872dd146101a957806325692962146101c8575b5f80fd5b348015610135575f80fd5b5061013e6103aa565b60405161014b9190610a91565b60405180910390f35b34801561015f575f80fd5b5061017361016e366004610ae1565b610439565b604051901515815260200161014b565b34801561018e575f80fd5b506805345cdf77eb68f44c545b60405190815260200161014b565b3480156101b4575f80fd5b506101736101c3366004610b09565b6104b9565b6101d0610575565b005b3480156101dd575f80fd5b5060025460405160ff909116815260200161014b565b3480156101fe575f80fd5b5061019b6105c2565b348015610212575f80fd5b506101d0610221366004610ae1565b61063e565b6101d061064c565b348015610239575f80fd5b5061019b610248366004610b42565b6387a211a2600c9081525f91909152602090205490565b6101d0610685565b348015610272575f80fd5b5061019b610281366004610b42565b6338377508600c9081525f91909152602090205490565b3480156102a3575f80fd5b50638b78c6d819546040516001600160a01b03909116815260200161014b565b3480156102ce575f80fd5b5061013e610698565b3480156102e2575f80fd5b506101d06102f1366004610ae1565b6106a7565b348015610301575f80fd5b50610173610310366004610ae1565b6106b1565b348015610320575f80fd5b506101d061032f366004610b62565b610715565b34801561033f575f80fd5b5061019b61034e366004610bcf565b6108c9565b6101d0610361366004610b42565b61090d565b6101d0610374366004610b42565b61094a565b348015610384575f80fd5b5061019b610393366004610b42565b63389a75e1600c9081525f91909152602090205490565b60605f80546103b890610c00565b80601f01602080910402602001604051908101604052809291908181526020018280546103e490610c00565b801561042f5780601f106104065761010080835404028352916020019161042f565b820191905f5260205f20905b81548152906001019060200180831161041257829003601f168201915b5050505050905090565b5f6001600160a01b0383166e22d473030f116ddee9f6b43ac78ba3188219151761046a57633f68539a5f526004601cfd5b82602052637f5e9f20600c52335f52816034600c2055815f52602c5160601c337f8c5be1e5ebec7d5bd14f71427d1e84f3dd0314c0f7b2291e5b200ac8c7c3b92560205fa35060015b92915050565b5f8360601b6e22d473030f116ddee9f6b43ac78ba3331461050e5733602052637f5e9f208117600c526034600c20805480191561050b5780851115610505576313be252b5f526004601cfd5b84810382555b50505b6387a211a28117600c526020600c208054808511156105345763f4d678b85f526004601cfd5b84810382555050835f526020600c208381540181555082602052600c5160601c8160601c5f80516020610c39833981519152602080a3505060019392505050565b5f6202a30067ffffffffffffffff164201905063389a75e1600c52335f52806020600c2055337fdbf36a107da19e49527a7176a1babf963b4b0ff8cde35ee35d6cd8f1f9ac7e1d5f80a250565b5f806105cc6103aa565b805190602001209050604080517f8b73c3c69bb8fe3d512ecc4cf759cc79239f7b179b0ffacaa9a75d522b39400f815260208101929092527fc89efdaa54c0f20c7adf612882df0950f5a951637e0307cdcb4c672f298b8bc69082015246606082015230608082015260a09020919050565b6106488282610970565b5050565b63389a75e1600c52335f525f6020600c2055337ffa7b8eab7da67f412cc9575ed43464468f9bfbae89d1675917346ca6d8fe3c925f80a2565b61068d6109d9565b6106965f6109f3565b565b6060600180546103b890610c00565b6106488282610a30565b5f6387a211a2600c52335f526020600c208054808411156106d95763f4d678b85f526004601cfd5b83810382555050825f526020600c208281540181555081602052600c5160601c335f80516020610c39833981519152602080a350600192915050565b6001600160a01b0386166e22d473030f116ddee9f6b43ac78ba3188519151761074557633f68539a5f526004601cfd5b5f61074e6103aa565b8051906020012090507fc89efdaa54c0f20c7adf612882df0950f5a951637e0307cdcb4c672f298b8bc64286101561078d57631a15a3cc5f526004601cfd5b6040518960601b60601c99508860601b60601c985065383775081901600e52895f526020600c2080547f8b73c3c69bb8fe3d512ecc4cf759cc79239f7b179b0ffacaa9a75d522b39400f835284602084015283604084015246606084015230608084015260a08320602e527f6e71edae12b1b97f4d1f60370fef10105fa2faae0126114a169c64845d6126c983528b60208401528a60408401528960608401528060808401528860a084015260c08320604e526042602c205f528760ff16602052866040528560605260208060805f60015afa8c3d51146108755763ddafbaef5f526004601cfd5b0190556303faf4f960a51b89176040526034602c20889055888a7f8c5be1e5ebec7d5bd14f71427d1e84f3dd0314c0f7b2291e5b200ac8c7c3b925602060608501a360405250505f60605250505050505050565b5f6e22d473030f116ddee9f6b43ac78ba2196001600160a01b038316016108f257505f196104b3565b50602052637f5e9f20600c9081525f91909152603490205490565b6109156109d9565b63389a75e1600c52805f526020600c20805442111561093b57636f5e88185f526004601cfd5b5f9055610947816109f3565b50565b6109526109d9565b8060601b61096757637448fbae5f526004601cfd5b610947816109f3565b6805345cdf77eb68f44c54818101818110156109935763e5cfe9575f526004601cfd5b806805345cdf77eb68f44c5550506387a211a2600c52815f526020600c208181540181555080602052600c5160601c5f5f80516020610c39833981519152602080a35050565b638b78c6d819543314610696576382b429005f526004601cfd5b638b78c6d81980546001600160a01b039092169182907f8be0079c531659141344cd1fd0a4f28419497f9722a3daafe3b4186f6b6457e05f80a355565b6387a211a2600c52815f526020600c20805480831115610a575763f4d678b85f526004601cfd5b82900390556805345cdf77eb68f44c805482900390555f8181526001600160a01b0383165f80516020610c39833981519152602083a35050565b602081525f82518060208401528060208501604085015e5f604082850101526040601f19601f83011684010191505092915050565b80356001600160a01b0381168114610adc575f80fd5b919050565b5f8060408385031215610af2575f80fd5b610afb83610ac6565b946020939093013593505050565b5f805f60608486031215610b1b575f80fd5b610b2484610ac6565b9250610b3260208501610ac6565b9150604084013590509250925092565b5f60208284031215610b52575f80fd5b610b5b82610ac6565b9392505050565b5f805f805f805f60e0888a031215610b78575f80fd5b610b8188610ac6565b9650610b8f60208901610ac6565b95506040880135945060608801359350608088013560ff81168114610bb2575f80fd5b9699959850939692959460a0840135945060c09093013592915050565b5f8060408385031215610be0575f80fd5b610be983610ac6565b9150610bf760208401610ac6565b90509250929050565b600181811c90821680610c1457607f821691505b602082108103610c3257634e487b7160e01b5f52602260045260245ffd5b5091905056feddf252ad1be2c89b69c2b068fc378daa952ba7f163c4a11628f55a4df523b3efa264697066735822122053f1c994ee70cc4b882ad3b728d53aa50f4cbbf69b2798eab8f59919e7d06e0364736f6c63430008190033000000000000000000000000000000000000000000000000000000000000006000000000000000000000000000000000000000000000000000000000000000a000000000000000000000000000000000000000000000000000000000000000120000000000000000000000000000000000000000000000000000000000000004744254430000000000000000000000000000000000000000000000000000000000000000000000000000000000000000000000000000000000000000000000045442544300000000000000000000000000000000000000000000000000000000",
        "nonce": "0x5d",
        "chainId": "0xaa37dc"
      },
      "additionalContracts": [],
      "isFixedGasLimit": false
    },
    {
      "hash": "0x5a4323941bfed62d4f1edbe832e030b3b0b10276c61a1500d0306333f9ae6b0a",
      "transactionType": "CREATE",
      "contractName": "MockERC20",
      "contractAddress": "0xfa4f9504b0f922221c209b8ac56294a31bc22618",
      "function": null,
      "arguments": [
        "Coinbase Bitcoin",
        "cbBTC",
        "8"
      ],
      "transaction": {
        "from": "0x6182051f545e673b54119800126d8802e3da034b",
        "gas": "0x10ec9b",
        "value": "0x0",
        "input": "0x608060405234801561000f575f80fd5b50604051610f93380380610f9383398101604081905261002e9161013e565b5f6100398482610239565b5060016100468382610239565b506002805460ff191660ff831617905561005f33610067565b5050506102f8565b6001600160a01b0316638b78c6d819819055805f7f8be0079c531659141344cd1fd0a4f28419497f9722a3daafe3b4186f6b6457e08180a350565b634e487b7160e01b5f52604160045260245ffd5b5f82601f8301126100c5575f80fd5b81516001600160401b03808211156100df576100df6100a2565b604051601f8301601f19908116603f01168101908282118183101715610107576101076100a2565b8160405283815286602085880101111561011f575f80fd5b8360208701602083015e5f602085830101528094505050505092915050565b5f805f60608486031215610150575f80fd5b83516001600160401b0380821115610166575f80fd5b610172878388016100b6565b94506020860151915080821115610187575f80fd5b50610194868287016100b6565b925050604084015160ff811681146101aa575f80fd5b809150509250925092565b600181811c908216806101c957607f821691505b6020821081036101e757634e487b7160e01b5f52602260045260245ffd5b50919050565b601f82111561023457805f5260205f20601f840160051c810160208510156102125750805b601f840160051c820191505b81811015610231575f815560010161021e565b50505b505050565b81516001600160401b03811115610252576102526100a2565b6102668161026084546101b5565b846101ed565b602080601f831160018114610299575f84156102825750858301515b5f19600386901b1c1916600185901b1785556102f0565b5f85815260208120601f198616915b828110156102c7578886015182559484019460019091019084016102a8565b50858210156102e457878501515f19600388901b60f8161c191681555b505060018460011b0185555b505050505050565b610c8e806103055f395ff3fe608060405260043610610126575f3560e01c8063715018a6116100a8578063a9059cbb1161006d578063a9059cbb146102f6578063d505accf14610315578063dd62ed3e14610334578063f04e283e14610353578063f2fde38b14610366578063fee81cf414610379575f80fd5b8063715018a61461025f5780637ecebe00146102675780638da5cb5b1461029857806395d89b41146102c35780639dc29fac146102d7575f80fd5b8063313ce567116100ee578063313ce567146101d25780633644e515146101f357806340c10f191461020757806354d1f13d1461022657806370a082311461022e575f80fd5b806306fdde031461012a578063095ea7b31461015457806318160ddd1461018357806323b872dd146101a957806325692962146101c8575b5f80fd5b348015610135575f80fd5b5061013e6103aa565b60405161014b9190610a91565b60405180910390f35b34801561015f575f80fd5b5061017361016e366004610ae1565b610439565b604051901515815260200161014b565b34801561018e575f80fd5b506805345cdf77eb68f44c545b60405190815260200161014b565b3480156101b4575f80fd5b506101736101c3366004610b09565b6104b9565b6101d0610575565b005b3480156101dd575f80fd5b5060025460405160ff909116815260200161014b565b3480156101fe575f80fd5b5061019b6105c2565b348015610212575f80fd5b506101d0610221366004610ae1565b61063e565b6101d061064c565b348015610239575f80fd5b5061019b610248366004610b42565b6387a211a2600c9081525f91909152602090205490565b6101d0610685565b348015610272575f80fd5b5061019b610281366004610b42565b6338377508600c9081525f91909152602090205490565b3480156102a3575f80fd5b50638b78c6d819546040516001600160a01b03909116815260200161014b565b3480156102ce575f80fd5b5061013e610698565b3480156102e2575f80fd5b506101d06102f1366004610ae1565b6106a7565b348015610301575f80fd5b50610173610310366004610ae1565b6106b1565b348015610320575f80fd5b506101d061032f366004610b62565b610715565b34801561033f575f80fd5b5061019b61034e366004610bcf565b6108c9565b6101d0610361366004610b42565b61090d565b6101d0610374366004610b42565b61094a565b348015610384575f80fd5b5061019b610393366004610b42565b63389a75e1600c9081525f91909152602090205490565b60605f80546103b890610c00565b80601f01602080910402602001604051908101604052809291908181526020018280546103e490610c00565b801561042f5780601f106104065761010080835404028352916020019161042f565b820191905f5260205f20905b81548152906001019060200180831161041257829003601f168201915b5050505050905090565b5f6001600160a01b0383166e22d473030f116ddee9f6b43ac78ba3188219151761046a57633f68539a5f526004601cfd5b82602052637f5e9f20600c52335f52816034600c2055815f52602c5160601c337f8c5be1e5ebec7d5bd14f71427d1e84f3dd0314c0f7b2291e5b200ac8c7c3b92560205fa35060015b92915050565b5f8360601b6e22d473030f116ddee9f6b43ac78ba3331461050e5733602052637f5e9f208117600c526034600c20805480191561050b5780851115610505576313be252b5f526004601cfd5b84810382555b50505b6387a211a28117600c526020600c208054808511156105345763f4d678b85f526004601cfd5b84810382555050835f526020600c208381540181555082602052600c5160601c8160601c5f80516020610c39833981519152602080a3505060019392505050565b5f6202a30067ffffffffffffffff164201905063389a75e1600c52335f52806020600c2055337fdbf36a107da19e49527a7176a1babf963b4b0ff8cde35ee35d6cd8f1f9ac7e1d5f80a250565b5f806105cc6103aa565b805190602001209050604080517f8b73c3c69bb8fe3d512ecc4cf759cc79239f7b179b0ffacaa9a75d522b39400f815260208101929092527fc89efdaa54c0f20c7adf612882df0950f5a951637e0307cdcb4c672f298b8bc69082015246606082015230608082015260a09020919050565b6106488282610970565b5050565b63389a75e1600c52335f525f6020600c2055337ffa7b8eab7da67f412cc9575ed43464468f9bfbae89d1675917346ca6d8fe3c925f80a2565b61068d6109d9565b6106965f6109f3565b565b6060600180546103b890610c00565b6106488282610a30565b5f6387a211a2600c52335f526020600c208054808411156106d95763f4d678b85f526004601cfd5b83810382555050825f526020600c208281540181555081602052600c5160601c335f80516020610c39833981519152602080a350600192915050565b6001600160a01b0386166e22d473030f116ddee9f6b43ac78ba3188519151761074557633f68539a5f526004601cfd5b5f61074e6103aa565b8051906020012090507fc89efdaa54c0f20c7adf612882df0950f5a951637e0307cdcb4c672f298b8bc64286101561078d57631a15a3cc5f526004601cfd5b6040518960601b60601c99508860601b60601c985065383775081901600e52895f526020600c2080547f8b73c3c69bb8fe3d512ecc4cf759cc79239f7b179b0ffacaa9a75d522b39400f835284602084015283604084015246606084015230608084015260a08320602e527f6e71edae12b1b97f4d1f60370fef10105fa2faae0126114a169c64845d6126c983528b60208401528a60408401528960608401528060808401528860a084015260c08320604e526042602c205f528760ff16602052866040528560605260208060805f60015afa8c3d51146108755763ddafbaef5f526004601cfd5b0190556303faf4f960a51b89176040526034602c20889055888a7f8c5be1e5ebec7d5bd14f71427d1e84f3dd0314c0f7b2291e5b200ac8c7c3b925602060608501a360405250505f60605250505050505050565b5f6e22d473030f116ddee9f6b43ac78ba2196001600160a01b038316016108f257505f196104b3565b50602052637f5e9f20600c9081525f91909152603490205490565b6109156109d9565b63389a75e1600c52805f526020600c20805442111561093b57636f5e88185f526004601cfd5b5f9055610947816109f3565b50565b6109526109d9565b8060601b61096757637448fbae5f526004601cfd5b610947816109f3565b6805345cdf77eb68f44c54818101818110156109935763e5cfe9575f526004601cfd5b806805345cdf77eb68f44c5550506387a211a2600c52815f526020600c208181540181555080602052600c5160601c5f5f80516020610c39833981519152602080a35050565b638b78c6d819543314610696576382b429005f526004601cfd5b638b78c6d81980546001600160a01b039092169182907f8be0079c531659141344cd1fd0a4f28419497f9722a3daafe3b4186f6b6457e05f80a355565b6387a211a2600c52815f526020600c20805480831115610a575763f4d678b85f526004601cfd5b82900390556805345cdf77eb68f44c805482900390555f8181526001600160a01b0383165f80516020610c39833981519152602083a35050565b602081525f82518060208401528060208501604085015e5f604082850101526040601f19601f83011684010191505092915050565b80356001600160a01b0381168114610adc575f80fd5b919050565b5f8060408385031215610af2575f80fd5b610afb83610ac6565b946020939093013593505050565b5f805f60608486031215610b1b575f80fd5b610b2484610ac6565b9250610b3260208501610ac6565b9150604084013590509250925092565b5f60208284031215610b52575f80fd5b610b5b82610ac6565b9392505050565b5f805f805f805f60e0888a031215610b78575f80fd5b610b8188610ac6565b9650610b8f60208901610ac6565b95506040880135945060608801359350608088013560ff81168114610bb2575f80fd5b9699959850939692959460a0840135945060c09093013592915050565b5f8060408385031215610be0575f80fd5b610be983610ac6565b9150610bf760208401610ac6565b90509250929050565b600181811c90821680610c1457607f821691505b602082108103610c3257634e487b7160e01b5f52602260045260245ffd5b5091905056feddf252ad1be2c89b69c2b068fc378daa952ba7f163c4a11628f55a4df523b3efa264697066735822122053f1c994ee70cc4b882ad3b728d53aa50f4cbbf69b2798eab8f59919e7d06e0364736f6c63430008190033000000000000000000000000000000000000000000000000000000000000006000000000000000000000000000000000000000000000000000000000000000a000000000000000000000000000000000000000000000000000000000000000080000000000000000000000000000000000000000000000000000000000000010436f696e6261736520426974636f696e0000000000000000000000000000000000000000000000000000000000000000000000000000000000000000000000056362425443000000000000000000000000000000000000000000000000000000",
        "nonce": "0x5e",
        "chainId": "0xaa37dc"
      },
      "additionalContracts": [],
      "isFixedGasLimit": false
    },
    {
      "hash": "0x0d0d5a1cba419a8086e70ba385b478c1282166185dac3d3441e80bada05c4f52",
      "transactionType": "CALL",
      "contractName": "MockERC20",
      "contractAddress": "0x7caac5eb64e3721a82121f3b9b247cb6ffca7203",
      "function": "mint(address,uint256)",
      "arguments": [
        "0x6182051f545E673b54119800126d8802E3Da034b",
        "10000000000"
      ],
      "transaction": {
        "from": "0x6182051f545e673b54119800126d8802e3da034b",
        "to": "0x7caac5eb64e3721a82121f3b9b247cb6ffca7203",
        "gas": "0x18567",
        "value": "0x0",
        "input": "0x40c10f190000000000000000000000006182051f545e673b54119800126d8802e3da034b00000000000000000000000000000000000000000000000000000002540be400",
        "nonce": "0x5f",
        "chainId": "0xaa37dc"
      },
      "additionalContracts": [],
      "isFixedGasLimit": false
    },
    {
      "hash": "0xfb2982ec0abc91e9b5ef2b04d30949608496cdb357adf851d905d5663f5cb0e0",
      "transactionType": "CALL",
      "contractName": "MockERC20",
      "contractAddress": "0xc9fe3e6ff20fe4eb4f48b3993c947be51007d2c1",
      "function": "mint(address,uint256)",
      "arguments": [
        "0x6182051f545E673b54119800126d8802E3Da034b",
        "10000000000"
      ],
      "transaction": {
        "from": "0x6182051f545e673b54119800126d8802e3da034b",
        "to": "0xc9fe3e6ff20fe4eb4f48b3993c947be51007d2c1",
        "gas": "0x18567",
        "value": "0x0",
        "input": "0x40c10f190000000000000000000000006182051f545e673b54119800126d8802e3da034b00000000000000000000000000000000000000000000000000000002540be400",
        "nonce": "0x60",
        "chainId": "0xaa37dc"
      },
      "additionalContracts": [],
      "isFixedGasLimit": false
    },
    {
      "hash": "0x06fb49ffb378ee2b080d9c2ed0550b8afefeebacb2e5b8291bae5a43baf11daa",
      "transactionType": "CALL",
      "contractName": "MockERC20",
      "contractAddress": "0x0b00093dcc35c1a887789e079453c64b641872b6",
      "function": "mint(address,uint256)",
      "arguments": [
        "0x6182051f545E673b54119800126d8802E3Da034b",
        "100000000000000000000"
      ],
      "transaction": {
        "from": "0x6182051f545e673b54119800126d8802e3da034b",
        "to": "0x0b00093dcc35c1a887789e079453c64b641872b6",
        "gas": "0x16ff7",
        "value": "0x0",
        "input": "0x40c10f190000000000000000000000006182051f545e673b54119800126d8802e3da034b0000000000000000000000000000000000000000000000056bc75e2d63100000",
        "nonce": "0x61",
        "chainId": "0xaa37dc"
      },
      "additionalContracts": [],
      "isFixedGasLimit": false
    },
    {
      "hash": "0x7d6ca4de366e77161c29050cfca454a5bf9796b796b49db5cae1a23dac097c39",
      "transactionType": "CALL",
      "contractName": "MockERC20",
      "contractAddress": "0xfa4f9504b0f922221c209b8ac56294a31bc22618",
      "function": "mint(address,uint256)",
      "arguments": [
        "0x6182051f545E673b54119800126d8802E3Da034b",
        "10000000000"
      ],
      "transaction": {
        "from": "0x6182051f545e673b54119800126d8802e3da034b",
        "to": "0xfa4f9504b0f922221c209b8ac56294a31bc22618",
        "gas": "0x18567",
        "value": "0x0",
        "input": "0x40c10f190000000000000000000000006182051f545e673b54119800126d8802e3da034b00000000000000000000000000000000000000000000000000000002540be400",
        "nonce": "0x62",
        "chainId": "0xaa37dc"
      },
      "additionalContracts": [],
      "isFixedGasLimit": false
    },
    {
      "hash": "0xae374052d1bec3e6bef7675868ca2f8610956f7571340b4b68876761d0298f0b",
      "transactionType": "CALL",
      "contractName": "MockERC20",
      "contractAddress": "0x7caac5eb64e3721a82121f3b9b247cb6ffca7203",
      "function": "mint(address,uint256)",
      "arguments": [
        "0x0670faf0016E1bf591fEd8e0322689E894104F81",
        "10000000000"
      ],
      "transaction": {
        "from": "0x6182051f545e673b54119800126d8802e3da034b",
        "to": "0x7caac5eb64e3721a82121f3b9b247cb6ffca7203",
        "gas": "0x123c8",
        "value": "0x0",
        "input": "0x40c10f190000000000000000000000000670faf0016e1bf591fed8e0322689e894104f8100000000000000000000000000000000000000000000000000000002540be400",
        "nonce": "0x63",
        "chainId": "0xaa37dc"
      },
      "additionalContracts": [],
      "isFixedGasLimit": false
    },
    {
      "hash": "0xddecfe009acd1f2e1d1ccbb489b8a11b745f1d9b9dab22bf6f7f11d8f54739f9",
      "transactionType": "CALL",
      "contractName": "MockERC20",
      "contractAddress": "0xc9fe3e6ff20fe4eb4f48b3993c947be51007d2c1",
      "function": "mint(address,uint256)",
      "arguments": [
        "0x0670faf0016E1bf591fEd8e0322689E894104F81",
        "10000000000"
      ],
      "transaction": {
        "from": "0x6182051f545e673b54119800126d8802e3da034b",
        "to": "0xc9fe3e6ff20fe4eb4f48b3993c947be51007d2c1",
        "gas": "0x123c8",
        "value": "0x0",
        "input": "0x40c10f190000000000000000000000000670faf0016e1bf591fed8e0322689e894104f8100000000000000000000000000000000000000000000000000000002540be400",
        "nonce": "0x64",
        "chainId": "0xaa37dc"
      },
      "additionalContracts": [],
      "isFixedGasLimit": false
    },
    {
      "hash": "0x823e9e36b6d1b3dda917e5a53f0d8c9ea09c9b8caf4b327db74187dcdad33541",
      "transactionType": "CALL",
      "contractName": "MockERC20",
      "contractAddress": "0x7caac5eb64e3721a82121f3b9b247cb6ffca7203",
      "function": "mint(address,uint256)",
      "arguments": [
        "0xc67DD6f32147285A9e4D92774055cE3Dba5Ae8b6",
        "10000000000"
      ],
      "transaction": {
        "from": "0x6182051f545e673b54119800126d8802e3da034b",
        "to": "0x7caac5eb64e3721a82121f3b9b247cb6ffca7203",
        "gas": "0x123c8",
        "value": "0x0",
        "input": "0x40c10f19000000000000000000000000c67dd6f32147285a9e4d92774055ce3dba5ae8b600000000000000000000000000000000000000000000000000000002540be400",
        "nonce": "0x65",
        "chainId": "0xaa37dc"
      },
      "additionalContracts": [],
      "isFixedGasLimit": false
    },
    {
      "hash": "0xa5c6b7abcce29b068522401e6fa48176b46d332df5f347857145c918220324f2",
      "transactionType": "CALL",
      "contractName": "Registry",
      "contractAddress": "0xcbbf02d619f4c53b1826b64cc07ea39fb8442f13",
      "function": "setAsset(address,uint8)",
      "arguments": [
        "0x7CAAC5eB64E3721a82121f3b9b247Cb6fFca7203",
        "8"
      ],
      "transaction": {
        "from": "0x6182051f545e673b54119800126d8802e3da034b",
        "to": "0xcbbf02d619f4c53b1826b64cc07ea39fb8442f13",
        "gas": "0x123fb",
        "value": "0x0",
        "input": "0xb41b5a0c0000000000000000000000007caac5eb64e3721a82121f3b9b247cb6ffca72030000000000000000000000000000000000000000000000000000000000000008",
        "nonce": "0x66",
        "chainId": "0xaa37dc"
      },
      "additionalContracts": [],
      "isFixedGasLimit": false
    },
    {
      "hash": "0x42007cdea60ff3c0ea577cdabff5ede04f575dafc5c80f75d33694a2cc346f03",
      "transactionType": "CALL",
      "contractName": "Registry",
      "contractAddress": "0xcbbf02d619f4c53b1826b64cc07ea39fb8442f13",
      "function": "setAsset(address,uint8)",
      "arguments": [
        "0xc9FE3e6fF20fE4EB4F48B3993C947be51007D2C1",
        "8"
      ],
      "transaction": {
        "from": "0x6182051f545e673b54119800126d8802e3da034b",
        "to": "0xcbbf02d619f4c53b1826b64cc07ea39fb8442f13",
        "gas": "0x123fb",
        "value": "0x0",
        "input": "0xb41b5a0c000000000000000000000000c9fe3e6ff20fe4eb4f48b3993c947be51007d2c10000000000000000000000000000000000000000000000000000000000000008",
        "nonce": "0x67",
        "chainId": "0xaa37dc"
      },
      "additionalContracts": [],
      "isFixedGasLimit": false
    },
    {
      "hash": "0x39e3baa70be71d1e3ae6d03f0aad87144cd0c0e8e2c5cacef6d1832f664d3d07",
      "transactionType": "CALL",
      "contractName": "Registry",
      "contractAddress": "0xcbbf02d619f4c53b1826b64cc07ea39fb8442f13",
      "function": "setAsset(address,uint8)",
      "arguments": [
        "0x0b00093Dcc35c1a887789e079453c64b641872b6",
        "18"
      ],
      "transaction": {
        "from": "0x6182051f545e673b54119800126d8802e3da034b",
        "to": "0xcbbf02d619f4c53b1826b64cc07ea39fb8442f13",
        "gas": "0x123ea",
        "value": "0x0",
        "input": "0xb41b5a0c0000000000000000000000000b00093dcc35c1a887789e079453c64b641872b60000000000000000000000000000000000000000000000000000000000000012",
        "nonce": "0x68",
        "chainId": "0xaa37dc"
      },
      "additionalContracts": [],
      "isFixedGasLimit": false
    },
    {
      "hash": "0x4cbc816666d2b110142a26c1b0c027b6b57577ba010b8a314ee3391dabbc0486",
      "transactionType": "CALL",
      "contractName": "Registry",
      "contractAddress": "0xcbbf02d619f4c53b1826b64cc07ea39fb8442f13",
      "function": "setAsset(address,uint8)",
      "arguments": [
        "0xfa4f9504B0f922221c209B8aC56294A31bC22618",
        "8"
      ],
      "transaction": {
        "from": "0x6182051f545e673b54119800126d8802e3da034b",
        "to": "0xcbbf02d619f4c53b1826b64cc07ea39fb8442f13",
        "gas": "0x123fb",
        "value": "0x0",
        "input": "0xb41b5a0c000000000000000000000000fa4f9504b0f922221c209b8ac56294a31bc226180000000000000000000000000000000000000000000000000000000000000008",
        "nonce": "0x69",
        "chainId": "0xaa37dc"
      },
      "additionalContracts": [],
      "isFixedGasLimit": false
    },
    {
      "hash": "0xd96758198f295ce9fc6e01a50a80201156ad04576a94ecd041979fc349d8873e",
      "transactionType": "CREATE",
      "contractName": "MultiCollateralRegistry",
      "contractAddress": "0x63c8215a478f8f57c548a8700420ac5bd8dc3749",
      "function": null,
      "arguments": [
        "0xE401DF98cA0e73371111A76AAbC067a84Eda1f7D",
        "0x7CAAC5eB64E3721a82121f3b9b247Cb6fFca7203"
      ],
      "transaction": {
        "from": "0x6182051f545e673b54119800126d8802e3da034b",
        "gas": "0x11e266",
        "value": "0x0",
        "input": "0x60a060405234801561000f575f80fd5b50604051610fe6380380610fe683398101604081905261002e916100bd565b816001600160a01b038116610056576040516309a53a6560e31b815260040160405180910390fd5b5f80546001600160a01b0319166001600160a01b039283161790558116610090576040516368f7a67560e11b815260040160405180910390fd5b6001600160a01b0316608052506100ee565b80516001600160a01b03811681146100b8575f80fd5b919050565b5f80604083850312156100ce575f80fd5b6100d7836100a2565b91506100e5602084016100a2565b90509250929050565b608051610ed961010d5f395f81816101740152610b200152610ed95ff3fe608060405234801561000f575f80fd5b50600436106100ef575f3560e01c806375f9050d11610093578063c99d3a0611610063578063c99d3a0614610220578063f1ae3c7f14610233578063f68151b014610267578063fdc4fd6d14610289575f80fd5b806375f9050d146101d15780637903f3f8146101f05780637b10399914610205578063b558d1ea1461020d575f80fd5b80632a28ec44116100ce5780632a28ec441461014757806340e5b39c1461015c578063561f3f231461016f5780637346f48614610196575f80fd5b8062435da5146100f3578063172c48c71461012257806319e40b8614610135575b5f80fd5b5f54610105906001600160a01b031681565b6040516001600160a01b0390911681526020015b60405180910390f35b610105610130366004610bd9565b61029c565b6004545b604051908152602001610119565b61014f6102c4565b6040516101199190610bf0565b61013961016a366004610c53565b610324565b6101057f000000000000000000000000000000000000000000000000000000000000000081565b6101c16101a4366004610c7d565b6001600160a01b03165f9081526001602052604090205460ff1690565b6040519015158152602001610119565b6101396101df366004610c7d565b60026020525f908152604090205481565b6102036101fe366004610c9f565b6103c1565b005b610105610610565b61020361021b366004610c53565b610689565b61020361022e366004610c7d565b61083e565b610255610241366004610c7d565b60036020525f908152604090205460ff1681565b60405160ff9091168152602001610119565b6101c1610275366004610c7d565b60016020525f908152604090205460ff1681565b610139610297366004610c53565b610ae7565b600481815481106102ab575f80fd5b5f918252602090912001546001600160a01b0316905081565b6060600480548060200260200160405190810160405280929190818152602001828054801561031a57602002820191905f5260205f20905b81546001600160a01b031681526001909101906020018083116102fc575b5050505050905090565b6001600160a01b0382165f9081526001602052604081205460ff1661035b576040516241338960e01b815260040160405180910390fd5b6001600160a01b0383165f908152600260209081526040808320546003909252822054909160ff909116906008610393836012610cf7565b61039d9190610d10565b6103a890600a610e09565b90506103b5858285610bb4565b93505050505b92915050565b5f8054906101000a90046001600160a01b03166001600160a01b03166394658d7e6040518163ffffffff1660e01b8152600401602060405180830381865afa15801561040f573d5f803e3d5ffd5b505050506040513d601f19601f820116820180604052508101906104339190610e17565b5f5460405163145398bf60e21b8152336004820152602481018390526001600160a01b039091169063514e62fc90604401602060405180830381865afa15801561047f573d5f803e3d5ffd5b505050506040513d601f19601f820116820180604052508101906104a39190610e2e565b6104ce5760405163418b5b9d60e11b8152336004820152602481018290526044015b60405180910390fd5b6001600160a01b0384166104f5576040516368f7a67560e11b815260040160405180910390fd5b825f0361051557604051636a43f8d160e01b815260040160405180910390fd5b6001600160a01b0384165f9081526001602052604090205460ff161561054e576040516368f7a67560e11b815260040160405180910390fd5b6001600160a01b0384165f818152600160208181526040808420805460ff1990811685179091556002835281852089905560038352818520805460ff8a169216821790556004805494850181559094527f8a35acfbc15ff81a39ae7d344fd709f28e8600b4aa8c65c6b64bfe7fe36bd19b90920180546001600160a01b031916851790558151878152908101929092527f3fcefb9b19b48d6ec98e880e4f00ea1f85e110afa16ad4d3b533cd22475dd1ac91015b60405180910390a250505050565b5f805f9054906101000a90046001600160a01b03166001600160a01b0316637b1039996040518163ffffffff1660e01b8152600401602060405180830381865afa158015610660573d5f803e3d5ffd5b505050506040513d601f19601f820116820180604052508101906106849190610e4d565b905090565b5f8054906101000a90046001600160a01b03166001600160a01b03166394658d7e6040518163ffffffff1660e01b8152600401602060405180830381865afa1580156106d7573d5f803e3d5ffd5b505050506040513d601f19601f820116820180604052508101906106fb9190610e17565b5f5460405163145398bf60e21b8152336004820152602481018390526001600160a01b039091169063514e62fc90604401602060405180830381865afa158015610747573d5f803e3d5ffd5b505050506040513d601f19601f8201168201806040525081019061076b9190610e2e565b6107915760405163418b5b9d60e11b8152336004820152602481018290526044016104c5565b6001600160a01b0383165f9081526001602052604090205460ff166107c8576040516241338960e01b815260040160405180910390fd5b815f036107e857604051636a43f8d160e01b815260040160405180910390fd5b6001600160a01b0383165f81815260026020908152604091829020805490869055825181815291820186905292917f6778305c6589874c7b48651fd6414793c4ac2fdf49403e5270649e087046a83b9101610602565b5f8054906101000a90046001600160a01b03166001600160a01b03166394658d7e6040518163ffffffff1660e01b8152600401602060405180830381865afa15801561088c573d5f803e3d5ffd5b505050506040513d601f19601f820116820180604052508101906108b09190610e17565b5f5460405163145398bf60e21b8152336004820152602481018390526001600160a01b039091169063514e62fc90604401602060405180830381865afa1580156108fc573d5f803e3d5ffd5b505050506040513d601f19601f820116820180604052508101906109209190610e2e565b6109465760405163418b5b9d60e11b8152336004820152602481018290526044016104c5565b6001600160a01b0382165f9081526001602052604090205460ff1661097d576040516241338960e01b815260040160405180910390fd5b6001600160a01b0382165f908152600160209081526040808320805460ff19908116909155600283528184208490556003909252822080549091169055600454905b81811015610aae57836001600160a01b0316600482815481106109e4576109e4610e68565b5f918252602090912001546001600160a01b031603610aa6576004610a0a600184610e7c565b81548110610a1a57610a1a610e68565b5f91825260209091200154600480546001600160a01b039092169183908110610a4557610a45610e68565b905f5260205f20015f6101000a8154816001600160a01b0302191690836001600160a01b031602179055506004805480610a8157610a81610e8f565b5f8281526020902081015f1990810180546001600160a01b0319169055019055610aae565b6001016109bf565b506040516001600160a01b038416907fd89d2ee68ab04dca0193f48a4aff55e20fa5ec0429a8a8c1c51b8dad6178a593905f90a2505050565b6001600160a01b0382165f9081526001602052604081205460ff16610b1e576040516241338960e01b815260040160405180910390fd5b7f00000000000000000000000000000000000000000000000000000000000000006001600160a01b0316836001600160a01b031603610b5e5750806103bb565b6001600160a01b0383165f908152600260209081526040808320546003909252822054909160ff909116906008610b96836012610cf7565b610ba09190610d10565b610bab90600a610e09565b90506103b58584835b82820283158482048414178202610bd25763ad251c275f526004601cfd5b0492915050565b5f60208284031215610be9575f80fd5b5035919050565b602080825282518282018190525f9190848201906040850190845b81811015610c305783516001600160a01b031683529284019291840191600101610c0b565b50909695505050505050565b6001600160a01b0381168114610c50575f80fd5b50565b5f8060408385031215610c64575f80fd5b8235610c6f81610c3c565b946020939093013593505050565b5f60208284031215610c8d575f80fd5b8135610c9881610c3c565b9392505050565b5f805f60608486031215610cb1575f80fd5b8335610cbc81610c3c565b925060208401359150604084013560ff81168114610cd8575f80fd5b809150509250925092565b634e487b7160e01b5f52601160045260245ffd5b60ff81811683821601908111156103bb576103bb610ce3565b60ff82811682821603908111156103bb576103bb610ce3565b600181815b80851115610d6357815f1904821115610d4957610d49610ce3565b80851615610d5657918102915b93841c9390800290610d2e565b509250929050565b5f82610d79575060016103bb565b81610d8557505f6103bb565b8160018114610d9b5760028114610da557610dc1565b60019150506103bb565b60ff841115610db657610db6610ce3565b50506001821b6103bb565b5060208310610133831016604e8410600b8410161715610de4575081810a6103bb565b610dee8383610d29565b805f1904821115610e0157610e01610ce3565b029392505050565b5f610c9860ff841683610d6b565b5f60208284031215610e27575f80fd5b5051919050565b5f60208284031215610e3e575f80fd5b81518015158114610c98575f80fd5b5f60208284031215610e5d575f80fd5b8151610c9881610c3c565b634e487b7160e01b5f52603260045260245ffd5b818103818111156103bb576103bb610ce3565b634e487b7160e01b5f52603160045260245ffdfea264697066735822122072717dc7536db1e56975a305ef60184478c589a4a2326037397721ccc87b18c164736f6c63430008190033000000000000000000000000e401df98ca0e73371111a76aabc067a84eda1f7d0000000000000000000000007caac5eb64e3721a82121f3b9b247cb6ffca7203",
        "nonce": "0x6a",
        "chainId": "0xaa37dc"
      },
      "additionalContracts": [],
      "isFixedGasLimit": false
    },
    {
      "hash": "0x69f381e0c3797fda61404469b36a758078c2307eb5754047edf34ea34ddfa051",
      "transactionType": "CALL",
      "contractName": "MultiCollateralRegistry",
      "contractAddress": "0x63c8215a478f8f57c548a8700420ac5bd8dc3749",
      "function": "addCollateral(address,uint256,uint8)",
      "arguments": [
        "0xc9FE3e6fF20fE4EB4F48B3993C947be51007D2C1",
        "1000000000000000000",
        "8"
      ],
      "transaction": {
        "from": "0x6182051f545e673b54119800126d8802e3da034b",
        "to": "0x63c8215a478f8f57c548a8700420ac5bd8dc3749",
        "gas": "0x33376",
        "value": "0x0",
        "input": "0x7903f3f8000000000000000000000000c9fe3e6ff20fe4eb4f48b3993c947be51007d2c10000000000000000000000000000000000000000000000000de0b6b3a76400000000000000000000000000000000000000000000000000000000000000000008",
        "nonce": "0x6b",
        "chainId": "0xaa37dc"
      },
      "additionalContracts": [],
      "isFixedGasLimit": false
    },
    {
      "hash": "0x264d0b9bd73a61ff235b338e6b58fd1ce5853bbe85257cd730dcfd04f53fa515",
      "transactionType": "CALL",
      "contractName": "MultiCollateralRegistry",
      "contractAddress": "0x63c8215a478f8f57c548a8700420ac5bd8dc3749",
      "function": "addCollateral(address,uint256,uint8)",
      "arguments": [
        "0x0b00093Dcc35c1a887789e079453c64b641872b6",
        "1000000000000000000",
        "18"
      ],
      "transaction": {
        "from": "0x6182051f545e673b54119800126d8802e3da034b",
        "to": "0x63c8215a478f8f57c548a8700420ac5bd8dc3749",
        "gas": "0x2d1b4",
        "value": "0x0",
        "input": "0x7903f3f80000000000000000000000000b00093dcc35c1a887789e079453c64b641872b60000000000000000000000000000000000000000000000000de0b6b3a76400000000000000000000000000000000000000000000000000000000000000000012",
        "nonce": "0x6c",
        "chainId": "0xaa37dc"
      },
      "additionalContracts": [],
      "isFixedGasLimit": false
    },
    {
      "hash": "0x8959b6753a9583944fa187766f79dc98aa69ca13dcecfc4bedf69d682378e348",
      "transactionType": "CALL",
      "contractName": "MultiCollateralRegistry",
      "contractAddress": "0x63c8215a478f8f57c548a8700420ac5bd8dc3749",
      "function": "addCollateral(address,uint256,uint8)",
      "arguments": [
        "0xfa4f9504B0f922221c209B8aC56294A31bC22618",
        "1000000000000000000",
        "8"
      ],
      "transaction": {
        "from": "0x6182051f545e673b54119800126d8802e3da034b",
        "to": "0x63c8215a478f8f57c548a8700420ac5bd8dc3749",
        "gas": "0x2a9ac",
        "value": "0x0",
        "input": "0x7903f3f8000000000000000000000000fa4f9504b0f922221c209b8ac56294a31bc226180000000000000000000000000000000000000000000000000de0b6b3a76400000000000000000000000000000000000000000000000000000000000000000008",
        "nonce": "0x6d",
        "chainId": "0xaa37dc"
      },
      "additionalContracts": [],
      "isFixedGasLimit": false
    },
    {
      "hash": "0xb220dbbda559ff58047ac3087dc39f37fe04841195eef320d598ed46daf957ea",
      "transactionType": "CALL",
      "contractName": "MultiCollateralRegistry",
      "contractAddress": "0x63c8215a478f8f57c548a8700420ac5bd8dc3749",
      "function": "addCollateral(address,uint256,uint8)",
      "arguments": [
        "0x7CAAC5eB64E3721a82121f3b9b247Cb6fFca7203",
        "1000000000000000000",
        "8"
      ],
      "transaction": {
        "from": "0x6182051f545e673b54119800126d8802e3da034b",
        "to": "0x63c8215a478f8f57c548a8700420ac5bd8dc3749",
        "gas": "0x2a9ac",
        "value": "0x0",
        "input": "0x7903f3f80000000000000000000000007caac5eb64e3721a82121f3b9b247cb6ffca72030000000000000000000000000000000000000000000000000de0b6b3a76400000000000000000000000000000000000000000000000000000000000000000008",
        "nonce": "0x6e",
        "chainId": "0xaa37dc"
      },
      "additionalContracts": [],
      "isFixedGasLimit": false
    },
    {
      "hash": "0x20c4b7290e247f1c714f607de49c3924709c1def41a7a563109a945cbbe4801d",
      "transactionType": "CREATE",
      "contractName": "SimpleMultiCollateralStrategy",
      "contractAddress": "0xe7ced7592f323a798a3af6cb3e041a9a7179f9a4",
      "function": null,
      "arguments": [
        "0x7CAAC5eB64E3721a82121f3b9b247Cb6fFca7203",
        "8",
        "0x63c8215a478f8F57C548a8700420Ac5Bd8Dc3749",
        "0x0670faf0016E1bf591fEd8e0322689E894104F81"
      ],
      "transaction": {
        "from": "0x6182051f545e673b54119800126d8802e3da034b",
        "gas": "0x10675b",
        "value": "0x0",
        "input": "0x608060405234801561000f575f80fd5b50604051610db1380380610db183398101604081905261002e9161009f565b6003805460ff909416600160a01b026001600160a81b03199094166001600160a01b039586161793909317909255600180549184166001600160a01b0319928316179055600280549290931691161790556100f7565b80516001600160a01b038116811461009a575f80fd5b919050565b5f805f80608085870312156100b2575f80fd5b6100bb85610084565b9350602085015160ff811681146100d0575f80fd5b92506100de60408601610084565b91506100ec60608601610084565b905092959194509250565b610cad806101045f395ff3fe608060405234801561000f575f80fd5b5060043610610111575f3560e01c80639ebdf12c1161009e578063d0ebdbe71161006e578063d0ebdbe714610281578063d330fadd14610294578063e5da497b146102a7578063ecc86abc146102ba578063f3fef3a3146102ec575f80fd5b80639ebdf12c1461022e578063a5d5db0c14610240578063b69ef8a814610253578063c2d416011461025b575f80fd5b80632bf71fe9116100e45780632bf71fe9146101aa57806338d52e0f146101bd578063481c6a75146101e85780636f483fa4146101fb57806395d89b411461020e575f80fd5b806306fdde031461011557806309745c6c1461016057806329bc969d146101755780632a6739a2146101a2575b5f80fd5b6040805180820190915260208082527f53696d706c65204d756c74692d436f6c6c61746572616c205374726174656779908201525b6040516101579190610984565b60405180910390f35b61017361016e3660046109d4565b6102ff565b005b6101946101833660046109d4565b60046020525f908152604090205481565b604051908152602001610157565b61019461037c565b6101736101b8366004610ad6565b6104b8565b6003546101d0906001600160a01b031681565b6040516001600160a01b039091168152602001610157565b6002546101d0906001600160a01b031681565b610173610209366004610bae565b6104f2565b604080518082019091526004815263534d435360e01b602082015261014a565b5f546101d0906001600160a01b031681565b61017361024e366004610bc5565b610553565b610194610774565b60035461026f90600160a01b900460ff1681565b60405160ff9091168152602001610157565b61017361028f3660046109d4565b6107da565b6001546101d0906001600160a01b031681565b6101d06102b5366004610bae565b610845565b6102dc6102c83660046109d4565b60066020525f908152604090205460ff1681565b6040519015158152602001610157565b6101736102fa366004610bc5565b61086d565b5f546001600160a01b03161561034a5760405162461bcd60e51b815260206004820152600b60248201526a105b1c9958591e481cd95d60aa1b60448201526064015b60405180910390fd5b5f80546001600160a01b0319166001600160a01b03838116919091179091556003546103799116825f196108b7565b50565b6001545f906001600160a01b0316815b60055481101561045d575f600582815481106103aa576103aa610bed565b5f9182526020808320909101546001600160a01b0316808352600490915260409091205490915080156104535760405163fdc4fd6d60e01b81526001600160a01b0383811660048301526024820183905285169063fdc4fd6d90604401602060405180830381865afa158015610422573d5f803e3d5ffd5b505050506040513d601f19601f820116820180604052508101906104469190610c01565b6104509086610c2c565b94505b505060010161038c565b506003545f90610476906001600160a01b031630610901565b6003546001600160a01b03165f90815260046020526040902054909150808211156104b2576104a58183610c45565b6104af9085610c2c565b93505b50505090565b60405162461bcd60e51b815260206004820152600f60248201526e2ab9b29031b7b739ba393ab1ba37b960891b6044820152606401610341565b6002546001600160a01b0316331461053b5760405162461bcd60e51b815260206004820152600c60248201526b27b7363c9036b0b730b3b2b960a11b6044820152606401610341565b600354610379906001600160a01b031633308461092b565b5f546001600160a01b031633146105995760405162461bcd60e51b815260206004820152600a60248201526913db9b1e481d985d5b1d60b21b6044820152606401610341565b5f81116105d65760405162461bcd60e51b815260206004820152600b60248201526a16995c9bc8185b5bdd5b9d60aa1b6044820152606401610341565b6001546040516339a37a4360e11b81526001600160a01b038481166004830152909116908190637346f48690602401602060405180830381865afa158015610620573d5f803e3d5ffd5b505050506040513d601f19601f820116820180604052508101906106449190610c58565b61067e5760405162461bcd60e51b815260206004820152600b60248201526a139bdd08185b1b1bddd95960aa1b6044820152606401610341565b6001600160a01b0383165f90815260046020526040812080548492906106a5908490610c2c565b90915550506001600160a01b0383165f9081526006602052604090205460ff1661072c576005805460018082019092557f036b6384b5eca791c62761152d0c79bb0604c104a5fb6f4eb0703f3154bb3db00180546001600160a01b0319166001600160a01b0386169081179091555f908152600660205260409020805460ff191690911790555b826001600160a01b03167fd7243f6f8212d5188fd054141cf6ea89cfc0d91facb8c3afe2f88a13584801428360405161076791815260200190565b60405180910390a2505050565b5f306001600160a01b0316632a6739a26040518163ffffffff1660e01b8152600401602060405180830381865afa1580156107b1573d5f803e3d5ffd5b505050506040513d601f19601f820116820180604052508101906107d59190610c01565b905090565b6002546001600160a01b031633146108235760405162461bcd60e51b815260206004820152600c60248201526b27b7363c9036b0b730b3b2b960a11b6044820152606401610341565b600280546001600160a01b0319166001600160a01b0392909216919091179055565b60058181548110610854575f80fd5b5f918252602090912001546001600160a01b0316905081565b5f546001600160a01b031633146108b35760405162461bcd60e51b815260206004820152600a60248201526913db9b1e481d985d5b1d60b21b6044820152606401610341565b5050565b816014528060345263095ea7b360601b5f5260205f604460105f875af18060015f5114166108f757803d853b1517106108f757633e3f8f735f526004601cfd5b505f603452505050565b5f816014526370a0823160601b5f5260208060246010865afa601f3d111660205102905092915050565b60405181606052826040528360601b602c526323b872dd60601b600c5260205f6064601c5f895af18060015f51141661097657803d873b15171061097657637939f4245f526004601cfd5b505f60605260405250505050565b602081525f82518060208401528060208501604085015e5f604082850101526040601f19601f83011684010191505092915050565b80356001600160a01b03811681146109cf575f80fd5b919050565b5f602082840312156109e4575f80fd5b6109ed826109b9565b9392505050565b5f8083601f840112610a04575f80fd5b50813567ffffffffffffffff811115610a1b575f80fd5b602083019150836020828501011115610a32575f80fd5b9250929050565b634e487b7160e01b5f52604160045260245ffd5b5f82601f830112610a5c575f80fd5b813567ffffffffffffffff80821115610a7757610a77610a39565b604051601f8301601f19908116603f01168101908282118183101715610a9f57610a9f610a39565b81604052838152866020858801011115610ab7575f80fd5b836020870160208301375f602085830101528094505050505092915050565b5f805f805f805f805f60e08a8c031215610aee575f80fd5b893567ffffffffffffffff80821115610b05575f80fd5b610b118d838e016109f4565b909b50995060208c0135915080821115610b29575f80fd5b610b358d838e016109f4565b9099509750879150610b4960408d016109b9565b9650610b5760608d016109b9565b9550610b6560808d016109b9565b945060a08c0135915060ff82168214610b7c575f80fd5b90925060c08b01359080821115610b91575f80fd5b50610b9e8c828d01610a4d565b9150509295985092959850929598565b5f60208284031215610bbe575f80fd5b5035919050565b5f8060408385031215610bd6575f80fd5b610bdf836109b9565b946020939093013593505050565b634e487b7160e01b5f52603260045260245ffd5b5f60208284031215610c11575f80fd5b5051919050565b634e487b7160e01b5f52601160045260245ffd5b80820180821115610c3f57610c3f610c18565b92915050565b81810381811115610c3f57610c3f610c18565b5f60208284031215610c68575f80fd5b815180151581146109ed575f80fdfea264697066735822122074642c71a3f46bdb03afa511966aa6b6719b83252dafc56beedf4c5cadcb9aad64736f6c634300081900330000000000000000000000007caac5eb64e3721a82121f3b9b247cb6ffca7203000000000000000000000000000000000000000000000000000000000000000800000000000000000000000063c8215a478f8f57c548a8700420ac5bd8dc37490000000000000000000000000670faf0016e1bf591fed8e0322689e894104f81",
        "nonce": "0x6f",
        "chainId": "0xaa37dc"
      },
      "additionalContracts": [],
      "isFixedGasLimit": false
    },
    {
      "hash": "0xb0c9a84e1741d1bc6cb5d9da56c272fe13df63af02c65e7beb33cef79113e71d",
      "transactionType": "CALL",
      "contractName": "Registry",
      "contractAddress": "0xcbbf02d619f4c53b1826b64cc07ea39fb8442f13",
      "function": "setStrategy(address,bool)",
      "arguments": [
        "0xe7Ced7592F323a798A3aF6Cb3E041A9a7179F9A4",
        "true"
      ],
      "transaction": {
        "from": "0x6182051f545e673b54119800126d8802e3da034b",
        "to": "0xcbbf02d619f4c53b1826b64cc07ea39fb8442f13",
        "gas": "0x124bd",
        "value": "0x0",
        "input": "0xbaa82a34000000000000000000000000e7ced7592f323a798a3af6cb3e041a9a7179f9a40000000000000000000000000000000000000000000000000000000000000001",
        "nonce": "0x70",
        "chainId": "0xaa37dc"
      },
      "additionalContracts": [],
      "isFixedGasLimit": false
    },
    {
      "hash": "0x80b92f204f13d052c03041ee1daccf94bc9a30f8a0fafc7dc6287252eb0891c9",
      "transactionType": "CREATE",
      "contractName": "tRWA",
      "contractAddress": "0x2b82b75a0bf1aa01c9474546904bb446fd4e75c7",
      "function": null,
      "arguments": [
        "Multi-Collateral Bitcoin Vault",
        "mcBTC",
        "0x7CAAC5eB64E3721a82121f3b9b247Cb6fFca7203",
        "8",
        "0xe7Ced7592F323a798A3aF6Cb3E041A9a7179F9A4",
        "0x7CAAC5eB64E3721a82121f3b9b247Cb6fFca7203"
      ],
      "transaction": {
        "from": "0x6182051f545e673b54119800126d8802e3da034b",
        "gas": "0x32c561",
        "value": "0x0",
        "input": "0x610100604052348015610010575f80fd5b5060405161306f38038061306f83398101604081905261002f916101c0565b6001600160a01b0384166100565760405163e6c4247b60e01b815260040160405180910390fd5b6001600160a01b03821661007d5760405163e6c4247b60e01b815260040160405180910390fd5b6001600160a01b0381166100a45760405163e6c4247b60e01b815260040160405180910390fd5b601260ff841611156100c957604051630692acc560e51b815260040160405180910390fd5b60016100d587826102e9565b505f6100e186826102e9565b506001600160a01b0393841660805260ff90921660a052821660c0521660e052506103a89050565b634e487b7160e01b5f52604160045260245ffd5b5f82601f83011261012c575f80fd5b81516001600160401b038082111561014657610146610109565b604051601f8301601f19908116603f0116810190828211818310171561016e5761016e610109565b81604052838152866020858801011115610186575f80fd5b8360208701602083015e5f602085830101528094505050505092915050565b80516001600160a01b03811681146101bb575f80fd5b919050565b5f805f805f8060c087890312156101d5575f80fd5b86516001600160401b03808211156101eb575f80fd5b6101f78a838b0161011d565b9750602089015191508082111561020c575f80fd5b5061021989828a0161011d565b955050610228604088016101a5565b9350606087015160ff8116811461023d575f80fd5b925061024b608088016101a5565b915061025960a088016101a5565b90509295509295509295565b600181811c9082168061027957607f821691505b60208210810361029757634e487b7160e01b5f52602260045260245ffd5b50919050565b601f8211156102e457805f5260205f20601f840160051c810160208510156102c25750805b601f840160051c820191505b818110156102e1575f81556001016102ce565b50505b505050565b81516001600160401b0381111561030257610302610109565b610316816103108454610265565b8461029d565b602080601f831160018114610349575f84156103325750858301515b5f19600386901b1c1916600185901b1785556103a0565b5f85815260208120601f198616915b8281101561037757888601518255948401946001909101908401610358565b508582101561039457878501515f19600388901b60f8161c191681555b505060018460011b0185555b505050505050565b60805160a05160c05160e051612c3261043d5f395f81816103750152818161040b0152611fab01525f818161052a01528181610666015281816109ed01528181610c6001528181610e1b015281816111e9015281816113ab01528181611ebe01528181611ff8015261246c01525f818161113e0152611a8f01525f818161048e015281816122d2015261244a0152612c325ff3fe608060405234801561000f575f80fd5b5060043610610255575f3560e01c806370a0823111610140578063b3d7f6b9116100bf578063ce96cb7711610084578063ce96cb77146105d2578063d505accf146105e5578063d905777e146105f8578063dc4991091461060b578063dd62ed3e1461063d578063ef8b30f714610650575f80fd5b8063b3d7f6b914610586578063b460af9414610599578063ba087652146105ac578063c63d75b6146103ad578063c6e6f592146105bf575f80fd5b806394bf804d1161010557806394bf804d1461050a57806395d89b411461051d578063a8c62e7614610525578063a9059cbb1461054c578063a9adfc2a1461055f575f80fd5b806370a08231146104675780637158da7c1461048c5780637ecebe00146104b257806384e21249146104d75780638f46049c146104f7575f80fd5b8063313ce567116101d7578063409547da1161019c578063409547da146103c1578063472c2bd3146103e05780634cdad506146103f3578063561f3f23146104065780635f250f691461042d5780636e553f6514610454575f80fd5b8063313ce5671461033d578063316fe8c1146103575780633644e5151461036b57806338d52e0f14610373578063402d267d146103ad575f80fd5b806318160ddd1161021d57806318160ddd146102d25780631af05d10146102e2578063224254801461030257806323b872dd146103155780632bb7757114610328575f80fd5b806301e1d1141461025957806306fdde031461027457806307a2d13a14610289578063095ea7b31461029c5780630a28a477146102bf575b5f80fd5b610261610663565b6040519081526020015b60405180910390f35b61027c6106e9565b60405161026b91906124df565b610261610297366004612514565b610779565b6102af6102aa36600461253f565b610806565b604051901515815260200161026b565b6102616102cd366004612514565b610886565b6805345cdf77eb68f44c54610261565b6102f56102f0366004612514565b6108f3565b60405161026b9190612569565b6102616103103660046125b5565b6109bf565b6102af6103233660046125f4565b610d49565b61033b610336366004612632565b610e10565b005b61034561112f565b60405160ff909116815260200161026b565b6102615f80516020612bdd83398151915281565b610261611162565b7f00000000000000000000000000000000000000000000000000000000000000005b6040516001600160a01b03909116815260200161026b565b6102616103bb3660046126aa565b505f1990565b6102616103cf366004612514565b60036020525f908152604090205481565b61033b6103ee3660046126c5565b6111de565b610261610401366004612514565b6112fa565b6103957f000000000000000000000000000000000000000000000000000000000000000081565b6102617f5b2b3dbc0425e650141ab8840d86d0c9f083f7ddc44122d0056e9fb6b979722281565b6102616104623660046126c5565b611304565b6102616104753660046126aa565b6387a211a2600c9081525f91909152602090205490565b7f0000000000000000000000000000000000000000000000000000000000000000610395565b6102616104c03660046126aa565b6338377508600c9081525f91909152602090205490565b6104ea6104e5366004612514565b61131c565b60405161026b91906126f3565b61033b61050536600461274a565b6113a0565b6102616105183660046126c5565b6115a7565b61027c6115bf565b6103957f000000000000000000000000000000000000000000000000000000000000000081565b6102af61055a36600461253f565b6115cd565b6102617f22e88b5eba316b174ad850666cd779e6e8ea04ebe64bb30f03875fc21841c4f081565b610261610594366004612514565b61163c565b6102616105a736600461276a565b6116b2565b6102616105ba36600461276a565b6116e8565b6102616105cd366004612514565b61171e565b6102616105e03660046126aa565b611781565b61033b6105f336600461279e565b61179e565b6102616106063660046126aa565b611952565b61061e61061936600461274a565b61196b565b604080516001600160a01b03909316835260208301919091520161026b565b61026161064b36600461280f565b6119ad565b61026161065e366004612514565b6119f1565b5f7f00000000000000000000000000000000000000000000000000000000000000006001600160a01b031663b69ef8a86040518163ffffffff1660e01b8152600401602060405180830381865afa1580156106c0573d5f803e3d5ffd5b505050506040513d601f19601f820116820180604052508101906106e4919061283b565b905090565b6060600180546106f890612852565b80601f016020809104026020016040519081016040528092919081815260200182805461072490612852565b801561076f5780601f106107465761010080835404028352916020019161076f565b820191905f5260205f20905b81548152906001019060200180831161075257829003601f168201915b5050505050905090565b5f610786565b9392505050565b5f61078f611a89565b60ff169050806107cf5761077f836107a5610663565b6107b090600161289e565b6107ca6107c46805345cdf77eb68f44c5490565b60010190565b6119fb565b61077f836107db610663565b6107e690600161289e565b6107f184600a612991565b6805345cdf77eb68f44c546107ca919061289e565b5f6001600160a01b0383166e22d473030f116ddee9f6b43ac78ba3188219151761083757633f68539a5f526004601cfd5b82602052637f5e9f20600c52335f52816034600c2055815f52602c5160601c337f8c5be1e5ebec7d5bd14f71427d1e84f3dd0314c0f7b2291e5b200ac8c7c3b92560205fa35060015b92915050565b5f610891565b611ab5565b5f61089a611a89565b60ff169050806108cf5761077f836108b96805345cdf77eb68f44c5490565b6108c490600161289e565b61088c6107c4610663565b61077f836108de83600a612991565b6805345cdf77eb68f44c546108c4919061289e565b5f81815260026020526040812080546060929067ffffffffffffffff81111561091e5761091e61299c565b604051908082528060200260200182016040528015610947578160200160208202803683370190505b5090505f5b82548110156109b757828181548110610967576109676129b0565b5f91825260209091206002909102015482516001600160a01b0390911690839083908110610997576109976129b0565b6001600160a01b039092166020928302919091019091015260010161094c565b509392505050565b5f3068929eee149b4bd2126854036109de5763ab143c065f526004601cfd5b3068929eee149b4bd21268555f7f000000000000000000000000000000000000000000000000000000000000000090505f816001600160a01b031663d330fadd6040518163ffffffff1660e01b8152600401602060405180830381865afa158015610a4b573d5f803e3d5ffd5b505050506040513d601f19601f82011682018060405250810190610a6f91906129c4565b60405163fdc4fd6d60e01b81526001600160a01b038881166004830152602482018890529192505f9183169063fdc4fd6d90604401602060405180830381865afa158015610abf573d5f803e3d5ffd5b505050506040513d601f19601f82011682018060405250810190610ae3919061283b565b9050610aee816119f1565b5f80516020612bdd8339815191525f90815260026020529094507f43f4e014b0d6887e738578ff59b11e8a04a487226cbde2816428eb10261f20c1905b8154811015610c0f575f828281548110610b4757610b476129b0565b5f91825260209091206002909102015460405162e4fa1560e21b8152306004820152336024820152604481018690526001600160a01b038a8116606483015290911690630393e854906084015f604051808303815f875af1158015610bae573d5f803e3d5ffd5b505050506040513d5f823e601f3d908101601f19168201604052610bd59190810190612a4d565b8051909150610c06578060200151604051634a84814360e11b8152600401610bfd91906124df565b60405180910390fd5b50600101610b2b565b50805415610c50575f80516020612bdd8339815191525f526003602052437f7828a7672c38c1a07efa61a6dcf12e2c5328decaa451e84b4d122911db23d9bc555b610c856001600160a01b038916337f00000000000000000000000000000000000000000000000000000000000000008a611ae1565b60405163297576c360e21b81526001600160a01b0389811660048301526024820189905285169063a5d5db0c906044015f604051808303815f87803b158015610ccc575f80fd5b505af1158015610cde573d5f803e3d5ffd5b50505050610cec8686611b3a565b60408051838152602081018790526001600160a01b0388169133917fdcbc1c05240f31ff3ad067ef1ee35ce4997762752e3a095284754544f4c709d7910160405180910390a3505050503868929eee149b4bd21268559392505050565b5f610d55848484611bae565b8360601b6e22d473030f116ddee9f6b43ac78ba33314610da95733602052637f5e9f208117600c526034600c208054801915610da65780851115610da0576313be252b5f526004601cfd5b84810382555b50505b6387a211a28117600c526020600c20805480851115610dcf5763f4d678b85f526004601cfd5b84810382555050835f526020600c208381540181555082602052600c5160601c8160601c5f80516020612bbd833981519152602080a3505060019392505050565b336001600160a01b037f00000000000000000000000000000000000000000000000000000000000000001614610e5957604051630b96ee6960e11b815260040160405180910390fd5b3068929eee149b4bd212685403610e775763ab143c065f526004601cfd5b3068929eee149b4bd21268555f8381526002602052604090208054828114610eb25760405163b7cb4a0760e01b815260040160405180910390fd5b5f8167ffffffffffffffff811115610ecc57610ecc61299c565b604051908082528060200260200182016040528015610f1057816020015b604080518082019091525f8082526020820152815260200190600190039081610eea5790505b5090505f5b82811015610f8857838181548110610f2f57610f2f6129b0565b5f9182526020918290206040805180820190915260029092020180546001600160a01b0316825260010154918101919091528251839083908110610f7557610f756129b0565b6020908102919091010152600101610f15565b505f8267ffffffffffffffff811115610fa357610fa361299c565b604051908082528060200260200182016040528015610fcc578160200160208202803683370190505b5090505f5b838110156110df575f878783818110610fec57610fec6129b0565b905060200201359050848110611015576040516358d019df60e01b815260040160405180910390fd5b828181518110611027576110276129b0565b60200260200101511561104d57604051630286b34560e61b815260040160405180910390fd5b83818151811061105f5761105f6129b0565b6020026020010151868381548110611079576110796129b0565b5f91825260209182902083516002929092020180546001600160a01b0319166001600160a01b0390921691909117815591015160019182015583518490839081106110c6576110c66129b0565b9115156020928302919091019091015250600101610fd1565b50867f48aa282ab1222aa00ca8e316801496ebfa102c8347d71be019280b12351b1ea58787604051611112929190612b13565b60405180910390a2505050503868929eee149b4bd2126855505050565b5f611138611a89565b6106e4907f0000000000000000000000000000000000000000000000000000000000000000612b4a565b5f8061116c6106e9565b805190602001209050604080517f8b73c3c69bb8fe3d512ecc4cf759cc79239f7b179b0ffacaa9a75d522b39400f815260208101929092527fc89efdaa54c0f20c7adf612882df0950f5a951637e0307cdcb4c672f298b8bc69082015246606082015230608082015260a09020919050565b336001600160a01b037f0000000000000000000000000000000000000000000000000000000000000000161461122757604051630b96ee6960e11b815260040160405180910390fd5b6001600160a01b03811661124e57604051637d9e044960e11b815260040160405180910390fd5b6040805180820182526001600160a01b038381168083524360208085019182525f88815260028083529681208054600180820183558284529390922087519290980290970180546001600160a01b031916919095161784559051928101929092558354929392909186917fb7913938389428c36fa6e3a9ee44f7fdf7e638f3df36e807872f51aa89d516a4916112e391612b63565b60405190815260200160405180910390a350505050565b5f61088082610779565b5f61130e836119f1565b905061088033838584611d3a565b606060025f8381526020019081526020015f20805480602002602001604051908101604052809291908181526020015f905b82821015611395575f848152602090819020604080518082019091526002850290910180546001600160a01b0316825260019081015482840152908352909201910161134e565b505050509050919050565b336001600160a01b037f000000000000000000000000000000000000000000000000000000000000000016146113e957604051630b96ee6960e11b815260040160405180910390fd5b3068929eee149b4bd2126854036114075763ab143c065f526004601cfd5b3068929eee149b4bd21268555f8281526002602052604090208054808310611442576040516374e428b760e01b815260040160405180910390fd5b5f828481548110611455576114556129b0565b905f5260205f209060020201905060035f8681526020019081526020015f20548160010154116114985760405163d9e9fe7f60e01b815260040160405180910390fd5b80546001600160a01b03166114ae600184612b63565b851461152657836114c0600185612b63565b815481106114d0576114d06129b0565b905f5260205f2090600202018486815481106114ee576114ee6129b0565b5f9182526020909120825460029092020180546001600160a01b0319166001600160a01b039092169190911781556001918201549101555b8380548061153657611536612b76565b5f8281526020812060025f199093019283020180546001600160a01b031916815560010181905591556040516001600160a01b0383169188917feda906f5392545379935f1070f3c72b72072d8b54440d8d900db211dfcc9c6059190a3505050503868929eee149b4bd21268555050565b5f6115b18361163c565b905061088033838386611d3a565b60605f80546106f890612852565b5f6115d9338484611bae565b6387a211a2600c52335f526020600c208054808411156116005763f4d678b85f526004601cfd5b83810382555050825f526020600c208281540181555081602052600c5160601c335f80516020612bbd833981519152602080a350600192915050565b5f80611646611a89565b60ff1690508061167b5761077f8361165c610663565b61166790600161289e565b61088c6107c46805345cdf77eb68f44c5490565b61077f83611687610663565b61169290600161289e565b61169d84600a612991565b6805345cdf77eb68f44c5461088c919061289e565b5f6116bc82611781565b8411156116d0576116d063936941fc611d31565b6116d984610886565b905061077f33848487856120dd565b5f6116f282611952565b84111561170657611706634656425a611d31565b61170f846112fa565b905061077f33848484886120dd565b5f80611728611a89565b60ff1690508061175d5761077f836117476805345cdf77eb68f44c5490565b61175290600161289e565b6107ca6107c4610663565b61077f8361176c83600a612991565b6805345cdf77eb68f44c54611752919061289e565b6387a211a2600c9081525f82815260209091205461088090610779565b6001600160a01b0386166e22d473030f116ddee9f6b43ac78ba318851915176117ce57633f68539a5f526004601cfd5b5f6117d76106e9565b8051906020012090507fc89efdaa54c0f20c7adf612882df0950f5a951637e0307cdcb4c672f298b8bc64286101561181657631a15a3cc5f526004601cfd5b6040518960601b60601c99508860601b60601c985065383775081901600e52895f526020600c2080547f8b73c3c69bb8fe3d512ecc4cf759cc79239f7b179b0ffacaa9a75d522b39400f835284602084015283604084015246606084015230608084015260a08320602e527f6e71edae12b1b97f4d1f60370fef10105fa2faae0126114a169c64845d6126c983528b60208401528a60408401528960608401528060808401528860a084015260c08320604e526042602c205f528760ff16602052866040528560605260208060805f60015afa8c3d51146118fe5763ddafbaef5f526004601cfd5b0190556303faf4f960a51b89176040526034602c20889055888a7f8c5be1e5ebec7d5bd14f71427d1e84f3dd0314c0f7b2291e5b200ac8c7c3b925602060608501a360405250505f60605250505050505050565b6387a211a2600c9081525f828152602090912054610880565b6002602052815f5260405f208181548110611984575f80fd5b5f918252602090912060029091020180546001909101546001600160a01b039091169250905082565b5f6e22d473030f116ddee9f6b43ac78ba2196001600160a01b038316016119d657505f19610880565b50602052637f5e9f20600c9081525f91909152603490205490565b5f6108808261171e565b82820281838583041485151702611a82575f198385098181108201900382848609835f038416828511611a355763ae47f7025f526004601cfd5b93849004938382119092035f83900383900460010102920304176002600383028118808402820302808402820302808402820302808402820302808402820302808402909103020261077f565b0492915050565b5f6106e47f00000000000000000000000000000000000000000000000000000000000000006012612b8a565b5f611ac18484846119fb565b9050818385091561077f576001018061077f5763ae47f7025f526004601cfd5b60405181606052826040528360601b602c526323b872dd60601b600c5260205f6064601c5f895af18060015f511416611b2c57803d873b151710611b2c57637939f4245f526004601cfd5b505f60605260405250505050565b611b455f8383611bae565b6805345cdf77eb68f44c5481810181811015611b685763e5cfe9575f526004601cfd5b806805345cdf77eb68f44c5550506387a211a2600c52815f526020600c208181540181555080602052600c5160601c5f5f80516020612bbd833981519152602080a35050565b7f22e88b5eba316b174ad850666cd779e6e8ea04ebe64bb30f03875fc21841c4f05f5260026020527f149af30f8bd23f55accab099aedc99217d01dad258047cc9ac481074befba49d805415611d2b575f5b8154811015611cde575f828281548110611c1c57611c1c6129b0565b5f91825260209091206002909102015460405163aa709eb960e01b81523060048201526001600160a01b0388811660248301528781166044830152606482018790529091169063aa709eb9906084015f604051808303815f875af1158015611c86573d5f803e3d5ffd5b505050506040513d5f823e601f3d908101601f19168201604052611cad9190810190612a4d565b8051909150611cd5578060200151604051634a84814360e11b8152600401610bfd91906124df565b50600101611c00565b507f22e88b5eba316b174ad850666cd779e6e8ea04ebe64bb30f03875fc21841c4f05f526003602052437f97f17d930b298cc87b2ef7c286ab7c3efb365da5252701e362385d89271fcc3d555b50505050565b805f526004601cfd5b3068929eee149b4bd212685403611d585763ab143c065f526004601cfd5b3068929eee149b4bd21268555f80516020612bdd8339815191525f90815260026020527f43f4e014b0d6887e738578ff59b11e8a04a487226cbde2816428eb10261f20c1905b8154811015611e7b575f828281548110611dba57611dba6129b0565b5f91825260209091206002909102015460405162e4fa1560e21b81523060048201526001600160a01b03898116602483015260448201889052888116606483015290911690630393e854906084015f604051808303815f875af1158015611e23573d5f803e3d5ffd5b505050506040513d5f823e601f3d908101601f19168201604052611e4a9190810190612a4d565b8051909150611e72578060200151604051634a84814360e11b8152600401610bfd91906124df565b50600101611d9e565b50805415611ebc575f80516020612bdd8339815191525f526003602052437f7828a7672c38c1a07efa61a6dcf12e2c5328decaa451e84b4d122911db23d9bc555b7f00000000000000000000000000000000000000000000000000000000000000006001600160a01b0316637b1039996040518163ffffffff1660e01b8152600401602060405180830381865afa158015611f18573d5f803e3d5ffd5b505050506040513d601f19601f82011682018060405250810190611f3c91906129c4565b6001600160a01b031663050c67d96040518163ffffffff1660e01b8152600401602060405180830381865afa158015611f77573d5f803e3d5ffd5b505050506040513d601f19601f82011682018060405250810190611f9b91906129c4565b6001600160a01b031663cbd8aaa17f000000000000000000000000000000000000000000000000000000000000000060405160e083901b6001600160e01b03191681526001600160a01b03918216600482015288821660248201527f00000000000000000000000000000000000000000000000000000000000000009091166044820152606481018690526084016020604051808303815f875af1158015612045573d5f803e3d5ffd5b505050506040513d601f19601f820116820180604052508101906120699190612ba3565b506120748483611b3a565b836001600160a01b0316856001600160a01b03167fdcbc1c05240f31ff3ad067ef1ee35ce4997762752e3a095284754544f4c709d785856040516120c2929190918252602082015260400190565b60405180910390a3503868929eee149b4bd212685550505050565b3068929eee149b4bd2126854036120fb5763ab143c065f526004601cfd5b3068929eee149b4bd2126855826001600160a01b0316856001600160a01b03161461212b5761212b83868361236d565b61213583826123d1565b61213e8261243d565b7f5b2b3dbc0425e650141ab8840d86d0c9f083f7ddc44122d0056e9fb6b97972225f90815260026020527ffa24723fc895b271989df6e47f150e13fcd8fe50dd4e77c49d1f311030683c63905b8154811015612271575f8282815481106121a7576121a76129b0565b5f918252602090912060029091020154604051630c70241360e31b81523060048201526001600160a01b038a8116602483015260448201889052898116606483015288811660848301529091169063638120989060a4015f604051808303815f875af1158015612219573d5f803e3d5ffd5b505050506040513d5f823e601f3d908101601f191682016040526122409190810190612a4d565b8051909150612268578060200151604051634a84814360e11b8152600401610bfd91906124df565b5060010161218b565b508054156122c5577f5b2b3dbc0425e650141ab8840d86d0c9f083f7ddc44122d0056e9fb6b97972225f526003602052437f9f0385b1ed938db9d43de8083df6144b17af73c79967d96ab37bc282abcfb5c3555b6122f96001600160a01b037f0000000000000000000000000000000000000000000000000000000000000000168685612495565b836001600160a01b0316856001600160a01b0316876001600160a01b03167ffbde797d201c681b91056529119e0b02407c7bb96a4a2c75c01fc9667232c8db8686604051612351929190918252602082015260400190565b60405180910390a4503868929eee149b4bd21268555050505050565b6e22d473030f116ddee9f6b43ac78ba2196001600160a01b0383160161239257505050565b81602052637f5e9f20600c52825f526034600c2080548019156123ca57808311156123c4576313be252b5f526004601cfd5b82810382555b5050505050565b6123dc825f83611bae565b6387a211a2600c52815f526020600c208054808311156124035763f4d678b85f526004601cfd5b82900390556805345cdf77eb68f44c805482900390555f8181526001600160a01b0383165f80516020612bbd833981519152602083a35050565b6124926001600160a01b037f0000000000000000000000000000000000000000000000000000000000000000167f00000000000000000000000000000000000000000000000000000000000000003084611ae1565b50565b816014528060345263a9059cbb60601b5f5260205f604460105f875af18060015f5114166124d557803d853b1517106124d5576390b8ec185f526004601cfd5b505f603452505050565b602081525f82518060208401528060208501604085015e5f604082850101526040601f19601f83011684010191505092915050565b5f60208284031215612524575f80fd5b5035919050565b6001600160a01b0381168114612492575f80fd5b5f8060408385031215612550575f80fd5b823561255b8161252b565b946020939093013593505050565b602080825282518282018190525f9190848201906040850190845b818110156125a95783516001600160a01b031683529284019291840191600101612584565b50909695505050505050565b5f805f606084860312156125c7575f80fd5b83356125d28161252b565b92506020840135915060408401356125e98161252b565b809150509250925092565b5f805f60608486031215612606575f80fd5b83356126118161252b565b925060208401356126218161252b565b929592945050506040919091013590565b5f805f60408486031215612644575f80fd5b83359250602084013567ffffffffffffffff80821115612662575f80fd5b818601915086601f830112612675575f80fd5b813581811115612683575f80fd5b8760208260051b8501011115612697575f80fd5b6020830194508093505050509250925092565b5f602082840312156126ba575f80fd5b813561077f8161252b565b5f80604083850312156126d6575f80fd5b8235915060208301356126e88161252b565b809150509250929050565b602080825282518282018190525f919060409081850190868401855b8281101561273d57815180516001600160a01b0316855286015186850152928401929085019060010161270f565b5091979650505050505050565b5f806040838503121561275b575f80fd5b50508035926020909101359150565b5f805f6060848603121561277c575f80fd5b83359250602084013561278e8161252b565b915060408401356125e98161252b565b5f805f805f805f60e0888a0312156127b4575f80fd5b87356127bf8161252b565b965060208801356127cf8161252b565b95506040880135945060608801359350608088013560ff811681146127f2575f80fd5b9699959850939692959460a0840135945060c09093013592915050565b5f8060408385031215612820575f80fd5b823561282b8161252b565b915060208301356126e88161252b565b5f6020828403121561284b575f80fd5b5051919050565b600181811c9082168061286657607f821691505b60208210810361288457634e487b7160e01b5f52602260045260245ffd5b50919050565b634e487b7160e01b5f52601160045260245ffd5b808201808211156108805761088061288a565b600181815b808511156128eb57815f19048211156128d1576128d161288a565b808516156128de57918102915b93841c93908002906128b6565b509250929050565b5f8261290157506001610880565b8161290d57505f610880565b8160018114612923576002811461292d57612949565b6001915050610880565b60ff84111561293e5761293e61288a565b50506001821b610880565b5060208310610133831016604e8410600b841016171561296c575081810a610880565b61297683836128b1565b805f19048211156129895761298961288a565b029392505050565b5f61077f83836128f3565b634e487b7160e01b5f52604160045260245ffd5b634e487b7160e01b5f52603260045260245ffd5b5f602082840312156129d4575f80fd5b815161077f8161252b565b6040805190810167ffffffffffffffff81118282101715612a0257612a0261299c565b60405290565b604051601f8201601f1916810167ffffffffffffffff81118282101715612a3157612a3161299c565b604052919050565b80518015158114612a48575f80fd5b919050565b5f6020808385031215612a5e575f80fd5b825167ffffffffffffffff80821115612a75575f80fd5b9084019060408287031215612a88575f80fd5b612a906129df565b612a9983612a39565b81528383015182811115612aab575f80fd5b80840193505086601f840112612abf575f80fd5b825182811115612ad157612ad161299c565b612ae3601f8201601f19168601612a08565b92508083528785828601011115612af8575f80fd5b808585018685015e5f90830185015292830152509392505050565b602080825281018290525f6001600160fb1b03831115612b31575f80fd5b8260051b80856040850137919091016040019392505050565b60ff81811683821601908111156108805761088061288a565b818103818111156108805761088061288a565b634e487b7160e01b5f52603160045260245ffd5b60ff82811682821603908111156108805761088061288a565b5f60208284031215612bb3575f80fd5b61077f82612a3956feddf252ad1be2c89b69c2b068fc378daa952ba7f163c4a11628f55a4df523b3efa8518d2c1c36f837b794f71c4989af91cfa8e2f691ec44d51a2faeb243677cd1a2646970667358221220b429cfb840e92b5f69468a4ddad3c1ae1721343d0a1a439e7ee7631a88d9d26d64736f6c6343000819003300000000000000000000000000000000000000000000000000000000000000c000000000000000000000000000000000000000000000000000000000000001000000000000000000000000007caac5eb64e3721a82121f3b9b247cb6ffca72030000000000000000000000000000000000000000000000000000000000000008000000000000000000000000e7ced7592f323a798a3af6cb3e041a9a7179f9a40000000000000000000000007caac5eb64e3721a82121f3b9b247cb6ffca7203000000000000000000000000000000000000000000000000000000000000001e4d756c74692d436f6c6c61746572616c20426974636f696e205661756c74000000000000000000000000000000000000000000000000000000000000000000056d63425443000000000000000000000000000000000000000000000000000000",
        "nonce": "0x71",
        "chainId": "0xaa37dc"
      },
      "additionalContracts": [],
      "isFixedGasLimit": false
    },
    {
      "hash": "0xec57a6dbc0f9aebbef644983bc1dc944e071a6bb5d41e0cad719b3b33209a889",
      "transactionType": "CALL",
      "contractName": "SimpleMultiCollateralStrategy",
      "contractAddress": "0xe7ced7592f323a798a3af6cb3e041a9a7179f9a4",
      "function": "setSToken(address)",
      "arguments": [
        "0x2b82b75A0bF1AA01C9474546904bb446FD4E75C7"
      ],
      "transaction": {
        "from": "0x6182051f545e673b54119800126d8802e3da034b",
        "to": "0xe7ced7592f323a798a3af6cb3e041a9a7179f9a4",
        "gas": "0x1a33e",
        "value": "0x0",
        "input": "0x09745c6c0000000000000000000000002b82b75a0bf1aa01c9474546904bb446fd4e75c7",
        "nonce": "0x72",
        "chainId": "0xaa37dc"
      },
      "additionalContracts": [],
      "isFixedGasLimit": false
    }
  ],
  "receipts": [
    {
      "status": "0x1",
      "cumulativeGasUsed": "0x13df87",
      "logs": [
        {
          "address": "0xe401df98ca0e73371111a76aabc067a84eda1f7d",
          "topics": [
            "0x8be0079c531659141344cd1fd0a4f28419497f9722a3daafe3b4186f6b6457e0",
            "0x0000000000000000000000000000000000000000000000000000000000000000",
            "0x0000000000000000000000006182051f545e673b54119800126d8802e3da034b"
          ],
          "data": "0x",
          "blockHash": "0x31f438faef3624ae76636cc9e22830aeddf8db6989606ffbf39f397e4e41d315",
          "blockNumber": "0x1db4821",
          "transactionHash": "0xeae0e4c73b1abe73fb41f442d6645c052c0ecf8d447a86e0865f319732c42221",
          "transactionIndex": "0x6",
          "logIndex": "0x6",
          "removed": false
        },
        {
          "address": "0xe401df98ca0e73371111a76aabc067a84eda1f7d",
          "topics": [
            "0x715ad5ce61fc9595c7b415289d59cf203f23a94fa06f04af7e489a0a76e1fe26",
            "0x0000000000000000000000006182051f545e673b54119800126d8802e3da034b",
            "0x000000000000000000000000000000000000000000000000000000000000000e"
          ],
          "data": "0x",
          "blockHash": "0x31f438faef3624ae76636cc9e22830aeddf8db6989606ffbf39f397e4e41d315",
          "blockNumber": "0x1db4821",
          "transactionHash": "0xeae0e4c73b1abe73fb41f442d6645c052c0ecf8d447a86e0865f319732c42221",
          "transactionIndex": "0x6",
          "logIndex": "0x7",
          "removed": false
        },
        {
          "address": "0xe401df98ca0e73371111a76aabc067a84eda1f7d",
          "topics": [
            "0xceb2e82f29007ac1a785e815278d60a8bb40775a5cac744d2bb86e7af15d3c5b",
            "0x0000000000000000000000006182051f545e673b54119800126d8802e3da034b",
            "0x000000000000000000000000000000000000000000000000000000000000000e",
            "0x0000000000000000000000000000000000000000000000000000000000000000"
          ],
          "data": "0x",
          "blockHash": "0x31f438faef3624ae76636cc9e22830aeddf8db6989606ffbf39f397e4e41d315",
          "blockNumber": "0x1db4821",
          "transactionHash": "0xeae0e4c73b1abe73fb41f442d6645c052c0ecf8d447a86e0865f319732c42221",
          "transactionIndex": "0x6",
          "logIndex": "0x8",
          "removed": false
        },
        {
          "address": "0xe401df98ca0e73371111a76aabc067a84eda1f7d",
          "topics": [
            "0x62592d2036e9337543196df7feb7663b56d5f05c0b346f57720dbc5d137ece2f",
            "0x0000000000000000000000000000000000000000000000000000000000000010",
            "0x0000000000000000000000000000000000000000000000000000000000000004",
            "0x000000000000000000000000e401df98ca0e73371111a76aabc067a84eda1f7d"
          ],
          "data": "0x",
          "blockHash": "0x31f438faef3624ae76636cc9e22830aeddf8db6989606ffbf39f397e4e41d315",
          "blockNumber": "0x1db4821",
          "transactionHash": "0xeae0e4c73b1abe73fb41f442d6645c052c0ecf8d447a86e0865f319732c42221",
          "transactionIndex": "0x6",
          "logIndex": "0x9",
          "removed": false
        },
        {
          "address": "0xe401df98ca0e73371111a76aabc067a84eda1f7d",
          "topics": [
            "0x62592d2036e9337543196df7feb7663b56d5f05c0b346f57720dbc5d137ece2f",
            "0x0000000000000000000000000000000000000000000000000000000000000020",
            "0x0000000000000000000000000000000000000000000000000000000000000008",
            "0x000000000000000000000000e401df98ca0e73371111a76aabc067a84eda1f7d"
          ],
          "data": "0x",
          "blockHash": "0x31f438faef3624ae76636cc9e22830aeddf8db6989606ffbf39f397e4e41d315",
          "blockNumber": "0x1db4821",
          "transactionHash": "0xeae0e4c73b1abe73fb41f442d6645c052c0ecf8d447a86e0865f319732c42221",
          "transactionIndex": "0x6",
          "logIndex": "0xa",
          "removed": false
        },
        {
          "address": "0xe401df98ca0e73371111a76aabc067a84eda1f7d",
          "topics": [
            "0x62592d2036e9337543196df7feb7663b56d5f05c0b346f57720dbc5d137ece2f",
            "0x0000000000000000000000000000000000000000000000000000000000000004",
            "0x0000000000000000000000000000000000000000000000000000000000000002",
            "0x000000000000000000000000e401df98ca0e73371111a76aabc067a84eda1f7d"
          ],
          "data": "0x",
          "blockHash": "0x31f438faef3624ae76636cc9e22830aeddf8db6989606ffbf39f397e4e41d315",
          "blockNumber": "0x1db4821",
          "transactionHash": "0xeae0e4c73b1abe73fb41f442d6645c052c0ecf8d447a86e0865f319732c42221",
          "transactionIndex": "0x6",
          "logIndex": "0xb",
          "removed": false
        },
        {
          "address": "0xe401df98ca0e73371111a76aabc067a84eda1f7d",
          "topics": [
            "0x62592d2036e9337543196df7feb7663b56d5f05c0b346f57720dbc5d137ece2f",
            "0x0000000000000000000000000000000000000000000000000000000000000008",
            "0x0000000000000000000000000000000000000000000000000000000000000002",
            "0x000000000000000000000000e401df98ca0e73371111a76aabc067a84eda1f7d"
          ],
          "data": "0x",
          "blockHash": "0x31f438faef3624ae76636cc9e22830aeddf8db6989606ffbf39f397e4e41d315",
          "blockNumber": "0x1db4821",
          "transactionHash": "0xeae0e4c73b1abe73fb41f442d6645c052c0ecf8d447a86e0865f319732c42221",
          "transactionIndex": "0x6",
          "logIndex": "0xc",
          "removed": false
        }
      ],
      "logsBloom": "0x040000001000000000000000020000000000020000000000008000000000000000000000000000000000000000000000400000000000800000000000000000000000000000000028000000000000000000010000008004000000800000000000080000100200000000000000000008000000000000400000000000000400004000800000000000000000000000000000080001000000000000000000000000000004000000000000000001000000100000000000000120200020000080000000400020004000000000040000000000000a0000008000000000000000000020000000400000000000000000000010000000000000008000000000000000000000",
      "type": "0x2",
      "transactionHash": "0xeae0e4c73b1abe73fb41f442d6645c052c0ecf8d447a86e0865f319732c42221",
      "transactionIndex": "0x6",
      "blockHash": "0x31f438faef3624ae76636cc9e22830aeddf8db6989606ffbf39f397e4e41d315",
      "blockNumber": "0x1db4821",
      "gasUsed": "0xb5cc4",
      "effectiveGasPrice": "0xf433a",
      "from": "0x6182051f545e673b54119800126d8802e3da034b",
      "to": null,
      "contractAddress": "0xe401df98ca0e73371111a76aabc067a84eda1f7d",
      "l1BaseFeeScalar": "0x1db0",
      "l1BlobBaseFee": "0x1",
      "l1BlobBaseFeeScalar": "0xd2730",
      "l1Fee": "0x1aa61d7",
      "l1GasPrice": "0x21590",
      "l1GasUsed": "0x6924"
    },
    {
      "status": "0x1",
      "cumulativeGasUsed": "0x14a2c2",
      "logs": [
        {
          "address": "0xe401df98ca0e73371111a76aabc067a84eda1f7d",
          "topics": [
            "0x715ad5ce61fc9595c7b415289d59cf203f23a94fa06f04af7e489a0a76e1fe26",
            "0x0000000000000000000000000670faf0016e1bf591fed8e0322689e894104f81",
            "0x0000000000000000000000000000000000000000000000000000000000000002"
          ],
          "data": "0x",
          "blockHash": "0x31f438faef3624ae76636cc9e22830aeddf8db6989606ffbf39f397e4e41d315",
          "blockNumber": "0x1db4821",
          "transactionHash": "0x9ddc0384ba3b78f3545be95403f52dbfb3aa5f1e9b6d8c6836f6a504371056e8",
          "transactionIndex": "0x7",
          "logIndex": "0xd",
          "removed": false
        },
        {
          "address": "0xe401df98ca0e73371111a76aabc067a84eda1f7d",
          "topics": [
            "0xceb2e82f29007ac1a785e815278d60a8bb40775a5cac744d2bb86e7af15d3c5b",
            "0x0000000000000000000000000670faf0016e1bf591fed8e0322689e894104f81",
            "0x0000000000000000000000000000000000000000000000000000000000000002",
            "0x0000000000000000000000006182051f545e673b54119800126d8802e3da034b"
          ],
          "data": "0x",
          "blockHash": "0x31f438faef3624ae76636cc9e22830aeddf8db6989606ffbf39f397e4e41d315",
          "blockNumber": "0x1db4821",
          "transactionHash": "0x9ddc0384ba3b78f3545be95403f52dbfb3aa5f1e9b6d8c6836f6a504371056e8",
          "transactionIndex": "0x7",
          "logIndex": "0xe",
          "removed": false
        }
      ],
      "logsBloom": "0x04000000000000000000000002000000000000000000000000000000000000000000000000000000000000000000000040000004000000000000000000000000000000000000002000000000000000000000000000000400000080000000000000000010000000000000000000000000000001000040000000000000000000000000000000000000000000000000000000000000000000000000000000000000000000000000000000000100000000000000000000012000000000000000000000002000400000000004000000000000000000000000000000000000000000000000000000000000000000000000800000000000008000000000000000000000",
      "type": "0x2",
      "transactionHash": "0x9ddc0384ba3b78f3545be95403f52dbfb3aa5f1e9b6d8c6836f6a504371056e8",
      "transactionIndex": "0x7",
      "blockHash": "0x31f438faef3624ae76636cc9e22830aeddf8db6989606ffbf39f397e4e41d315",
      "blockNumber": "0x1db4821",
      "gasUsed": "0xc33b",
      "effectiveGasPrice": "0xf433a",
      "from": "0x6182051f545e673b54119800126d8802e3da034b",
      "to": "0xe401df98ca0e73371111a76aabc067a84eda1f7d",
      "contractAddress": null,
      "l1BaseFeeScalar": "0x1db0",
      "l1BlobBaseFee": "0x1",
      "l1BlobBaseFeeScalar": "0xd2730",
      "l1Fee": "0x195874",
      "l1GasPrice": "0x21590",
      "l1GasUsed": "0x640"
    },
    {
      "status": "0x1",
      "cumulativeGasUsed": "0x1565fd",
      "logs": [
        {
          "address": "0xe401df98ca0e73371111a76aabc067a84eda1f7d",
          "topics": [
            "0x715ad5ce61fc9595c7b415289d59cf203f23a94fa06f04af7e489a0a76e1fe26",
            "0x000000000000000000000000c67dd6f32147285a9e4d92774055ce3dba5ae8b6",
            "0x0000000000000000000000000000000000000000000000000000000000000002"
          ],
          "data": "0x",
          "blockHash": "0x31f438faef3624ae76636cc9e22830aeddf8db6989606ffbf39f397e4e41d315",
          "blockNumber": "0x1db4821",
          "transactionHash": "0x28090273388dd703934d7d32b38489d22568033a0e458a3ff8a2e277d1e8ab77",
          "transactionIndex": "0x8",
          "logIndex": "0xf",
          "removed": false
        },
        {
          "address": "0xe401df98ca0e73371111a76aabc067a84eda1f7d",
          "topics": [
            "0xceb2e82f29007ac1a785e815278d60a8bb40775a5cac744d2bb86e7af15d3c5b",
            "0x000000000000000000000000c67dd6f32147285a9e4d92774055ce3dba5ae8b6",
            "0x0000000000000000000000000000000000000000000000000000000000000002",
            "0x0000000000000000000000006182051f545e673b54119800126d8802e3da034b"
          ],
          "data": "0x",
          "blockHash": "0x31f438faef3624ae76636cc9e22830aeddf8db6989606ffbf39f397e4e41d315",
          "blockNumber": "0x1db4821",
          "transactionHash": "0x28090273388dd703934d7d32b38489d22568033a0e458a3ff8a2e277d1e8ab77",
          "transactionIndex": "0x8",
          "logIndex": "0x10",
          "removed": false
        }
      ],
      "logsBloom": "0x04000000000000000000000002000000000000000000000000000000000000000000000000000000000000000000000040000000000000000000000000000000000000000000002000000000000000000000000000000400000080000000000000000010000000000000000000000000000000000040000000000000000000000000000010000000001000000000000000000000000000000000000000080000000000000000000000000100000000000000000000012000000000000000000000002000400000000004000000000000000000000000000000000000000000000000000000000000000000000000000000000000008000000000000000000000",
      "type": "0x2",
      "transactionHash": "0x28090273388dd703934d7d32b38489d22568033a0e458a3ff8a2e277d1e8ab77",
      "transactionIndex": "0x8",
      "blockHash": "0x31f438faef3624ae76636cc9e22830aeddf8db6989606ffbf39f397e4e41d315",
      "blockNumber": "0x1db4821",
      "gasUsed": "0xc33b",
      "effectiveGasPrice": "0xf433a",
      "from": "0x6182051f545e673b54119800126d8802e3da034b",
      "to": "0xe401df98ca0e73371111a76aabc067a84eda1f7d",
      "contractAddress": null,
      "l1BaseFeeScalar": "0x1db0",
      "l1BlobBaseFee": "0x1",
      "l1BlobBaseFeeScalar": "0xd2730",
      "l1Fee": "0x195874",
      "l1GasPrice": "0x21590",
      "l1GasUsed": "0x640"
    },
    {
      "status": "0x1",
      "cumulativeGasUsed": "0x15e66c",
      "logs": [
        {
          "address": "0xe401df98ca0e73371111a76aabc067a84eda1f7d",
          "topics": [
            "0x715ad5ce61fc9595c7b415289d59cf203f23a94fa06f04af7e489a0a76e1fe26",
            "0x0000000000000000000000000670faf0016e1bf591fed8e0322689e894104f81",
            "0x0000000000000000000000000000000000000000000000000000000000000006"
          ],
          "data": "0x",
          "blockHash": "0x31f438faef3624ae76636cc9e22830aeddf8db6989606ffbf39f397e4e41d315",
          "blockNumber": "0x1db4821",
          "transactionHash": "0x01d4f40c4eff4deaae05722048a38691c2acea5f6dabaa12d375b7ce2dfbe751",
          "transactionIndex": "0x9",
          "logIndex": "0x11",
          "removed": false
        },
        {
          "address": "0xe401df98ca0e73371111a76aabc067a84eda1f7d",
          "topics": [
            "0xceb2e82f29007ac1a785e815278d60a8bb40775a5cac744d2bb86e7af15d3c5b",
            "0x0000000000000000000000000670faf0016e1bf591fed8e0322689e894104f81",
            "0x0000000000000000000000000000000000000000000000000000000000000004",
            "0x0000000000000000000000006182051f545e673b54119800126d8802e3da034b"
          ],
          "data": "0x",
          "blockHash": "0x31f438faef3624ae76636cc9e22830aeddf8db6989606ffbf39f397e4e41d315",
          "blockNumber": "0x1db4821",
          "transactionHash": "0x01d4f40c4eff4deaae05722048a38691c2acea5f6dabaa12d375b7ce2dfbe751",
          "transactionIndex": "0x9",
          "logIndex": "0x12",
          "removed": false
        }
      ],
      "logsBloom": "0x00000000000000000000000002000000000000000000000000000000000000000000000000000000000000000000000040000004000400000000000000000000000000000000002000000000000000000000000000000400000080000000000008000010000000000000000000000000000001000040000000000000000000000000000400000000000000000000000000000000000000000000000000000000000000000000000000000000000000000000000000012000002000080000000000002000400000000004000000000000000000008000000000000000000000000000000000000000000000000000800000000000000000000000000000000000",
      "type": "0x2",
      "transactionHash": "0x01d4f40c4eff4deaae05722048a38691c2acea5f6dabaa12d375b7ce2dfbe751",
      "transactionIndex": "0x9",
      "blockHash": "0x31f438faef3624ae76636cc9e22830aeddf8db6989606ffbf39f397e4e41d315",
      "blockNumber": "0x1db4821",
      "gasUsed": "0x806f",
      "effectiveGasPrice": "0xf433a",
      "from": "0x6182051f545e673b54119800126d8802e3da034b",
      "to": "0xe401df98ca0e73371111a76aabc067a84eda1f7d",
      "contractAddress": null,
      "l1BaseFeeScalar": "0x1db0",
      "l1BlobBaseFee": "0x1",
      "l1BlobBaseFeeScalar": "0xd2730",
      "l1Fee": "0x195874",
      "l1GasPrice": "0x21590",
      "l1GasUsed": "0x640"
    },
    {
      "status": "0x1",
      "cumulativeGasUsed": "0x1666db",
      "logs": [
        {
          "address": "0xe401df98ca0e73371111a76aabc067a84eda1f7d",
          "topics": [
            "0x715ad5ce61fc9595c7b415289d59cf203f23a94fa06f04af7e489a0a76e1fe26",
            "0x000000000000000000000000c67dd6f32147285a9e4d92774055ce3dba5ae8b6",
            "0x0000000000000000000000000000000000000000000000000000000000000006"
          ],
          "data": "0x",
          "blockHash": "0x31f438faef3624ae76636cc9e22830aeddf8db6989606ffbf39f397e4e41d315",
          "blockNumber": "0x1db4821",
          "transactionHash": "0xafedcf0793d0f84945696a4cfed30f29e426e3b55227a65b5da86a1baf2c373e",
          "transactionIndex": "0xa",
          "logIndex": "0x13",
          "removed": false
        },
        {
          "address": "0xe401df98ca0e73371111a76aabc067a84eda1f7d",
          "topics": [
            "0xceb2e82f29007ac1a785e815278d60a8bb40775a5cac744d2bb86e7af15d3c5b",
            "0x000000000000000000000000c67dd6f32147285a9e4d92774055ce3dba5ae8b6",
            "0x0000000000000000000000000000000000000000000000000000000000000004",
            "0x0000000000000000000000006182051f545e673b54119800126d8802e3da034b"
          ],
          "data": "0x",
          "blockHash": "0x31f438faef3624ae76636cc9e22830aeddf8db6989606ffbf39f397e4e41d315",
          "blockNumber": "0x1db4821",
          "transactionHash": "0xafedcf0793d0f84945696a4cfed30f29e426e3b55227a65b5da86a1baf2c373e",
          "transactionIndex": "0xa",
          "logIndex": "0x14",
          "removed": false
        }
      ],
      "logsBloom": "0x00000000000000000000000002000000000000000000000000000000000000000000000000000000000000000000000040000000000400000000000000000000000000000000002000000000000000000000000000000400000080000000000008000010000000000000000000000000000000000040000000000000000000000000000410000000001000000000000000000000000000000000000000080000000000000000000000000000000000000000000000012000002000080000000000002000400000000004000000000000000000008000000000000000000000000000000000000000000000000000000000000000000000000000000000000000",
      "type": "0x2",
      "transactionHash": "0xafedcf0793d0f84945696a4cfed30f29e426e3b55227a65b5da86a1baf2c373e",
      "transactionIndex": "0xa",
      "blockHash": "0x31f438faef3624ae76636cc9e22830aeddf8db6989606ffbf39f397e4e41d315",
      "blockNumber": "0x1db4821",
      "gasUsed": "0x806f",
      "effectiveGasPrice": "0xf433a",
      "from": "0x6182051f545e673b54119800126d8802e3da034b",
      "to": "0xe401df98ca0e73371111a76aabc067a84eda1f7d",
      "contractAddress": null,
      "l1BaseFeeScalar": "0x1db0",
      "l1BlobBaseFee": "0x1",
      "l1BlobBaseFeeScalar": "0xd2730",
      "l1Fee": "0x195874",
      "l1GasPrice": "0x21590",
      "l1GasUsed": "0x640"
    },
    {
      "status": "0x1",
      "cumulativeGasUsed": "0x2c10b7",
      "logs": [],
      "logsBloom": "0x00000000000000000000000000000000000000000000000000000000000000000000000000000000000000000000000000000000000000000000000000000000000000000000000000000000000000000000000000000000000000000000000000000000000000000000000000000000000000000000000000000000000000000000000000000000000000000000000000000000000000000000000000000000000000000000000000000000000000000000000000000000000000000000000000000000000000000000000000000000000000000000000000000000000000000000000000000000000000000000000000000000000000000000000000000000",
      "type": "0x2",
      "transactionHash": "0xd8c05156d4eb26d28dab220f70f07fc3a79ee2189fb0b3304f4c9d940d32ac40",
      "transactionIndex": "0xb",
      "blockHash": "0x31f438faef3624ae76636cc9e22830aeddf8db6989606ffbf39f397e4e41d315",
      "blockNumber": "0x1db4821",
      "gasUsed": "0x15a9dc",
      "effectiveGasPrice": "0xf433a",
      "from": "0x6182051f545e673b54119800126d8802e3da034b",
      "to": null,
      "contractAddress": "0xcbbf02d619f4c53b1826b64cc07ea39fb8442f13",
      "l1BaseFeeScalar": "0x1db0",
      "l1BlobBaseFee": "0x1",
      "l1BlobBaseFeeScalar": "0xd2730",
      "l1Fee": "0x305a9d4",
      "l1GasPrice": "0x21590",
      "l1GasUsed": "0xbec7"
    },
    {
      "status": "0x1",
      "cumulativeGasUsed": "0x2cc595",
      "logs": [],
      "logsBloom": "0x00000000000000000000000000000000000000000000000000000000000000000000000000000000000000000000000000000000000000000000000000000000000000000000000000000000000000000000000000000000000000000000000000000000000000000000000000000000000000000000000000000000000000000000000000000000000000000000000000000000000000000000000000000000000000000000000000000000000000000000000000000000000000000000000000000000000000000000000000000000000000000000000000000000000000000000000000000000000000000000000000000000000000000000000000000000",
      "type": "0x2",
      "transactionHash": "0xddede8ffae1999cc8cbe3d77271acb88d68802e330e65feed89302375cf03cd5",
      "transactionIndex": "0xc",
      "blockHash": "0x31f438faef3624ae76636cc9e22830aeddf8db6989606ffbf39f397e4e41d315",
      "blockNumber": "0x1db4821",
      "gasUsed": "0xb4de",
      "effectiveGasPrice": "0xf433a",
      "from": "0x6182051f545e673b54119800126d8802e3da034b",
      "to": "0xe401df98ca0e73371111a76aabc067a84eda1f7d",
      "contractAddress": null,
      "l1BaseFeeScalar": "0x1db0",
      "l1BlobBaseFee": "0x1",
      "l1BlobBaseFeeScalar": "0xd2730",
      "l1Fee": "0x195874",
      "l1GasPrice": "0x21590",
      "l1GasUsed": "0x640"
    },
    {
      "status": "0x1",
      "cumulativeGasUsed": "0x12331d6",
      "logs": [
        {
          "address": "0x7caac5eb64e3721a82121f3b9b247cb6ffca7203",
          "topics": [
            "0x8be0079c531659141344cd1fd0a4f28419497f9722a3daafe3b4186f6b6457e0",
            "0x0000000000000000000000000000000000000000000000000000000000000000",
            "0x0000000000000000000000006182051f545e673b54119800126d8802e3da034b"
          ],
          "data": "0x",
          "blockHash": "0x31f438faef3624ae76636cc9e22830aeddf8db6989606ffbf39f397e4e41d315",
          "blockNumber": "0x1db4821",
          "transactionHash": "0x8d3892446949b5985752b81421a644914a10b5406a727bf9c48709f70aab12ba",
          "transactionIndex": "0xe",
          "logIndex": "0x145",
          "removed": false
        }
      ],
      "logsBloom": "0x00000000000000000000000000000000000000000000000000800000000000000000000000000000000000000000000040000000000000000000000000000000000000000000000000000000000000000001000000000000000080000000000000000000020000000000000000000800000000000000000000000000000000400000000000000000000000000000000000000000000000000000000000000000000000000000000000000000000000000000000000002008000000000000000000000000000000000000000000000040000000000000000000000000000020000200000000000000000000000000000000000000000000000000000000000000",
      "type": "0x2",
      "transactionHash": "0x8d3892446949b5985752b81421a644914a10b5406a727bf9c48709f70aab12ba",
      "transactionIndex": "0xe",
      "blockHash": "0x31f438faef3624ae76636cc9e22830aeddf8db6989606ffbf39f397e4e41d315",
      "blockNumber": "0x1db4821",
      "gasUsed": "0xd044e",
      "effectiveGasPrice": "0xf433a",
      "from": "0x6182051f545e673b54119800126d8802e3da034b",
      "to": null,
      "contractAddress": "0x7caac5eb64e3721a82121f3b9b247cb6ffca7203",
      "l1BaseFeeScalar": "0x1db0",
      "l1BlobBaseFee": "0x1",
      "l1BlobBaseFeeScalar": "0xd2730",
      "l1Fee": "0x2830fda",
      "l1GasPrice": "0x21590",
      "l1GasUsed": "0x9e92"
    },
    {
      "status": "0x1",
      "cumulativeGasUsed": "0x1303684",
      "logs": [
        {
          "address": "0xc9fe3e6ff20fe4eb4f48b3993c947be51007d2c1",
          "topics": [
            "0x8be0079c531659141344cd1fd0a4f28419497f9722a3daafe3b4186f6b6457e0",
            "0x0000000000000000000000000000000000000000000000000000000000000000",
            "0x0000000000000000000000006182051f545e673b54119800126d8802e3da034b"
          ],
          "data": "0x",
          "blockHash": "0x31f438faef3624ae76636cc9e22830aeddf8db6989606ffbf39f397e4e41d315",
          "blockNumber": "0x1db4821",
          "transactionHash": "0x787ecd42f31ebc89ecf8ab4e986fe5e085c32f62930db734f8e079a8057034e9",
          "transactionIndex": "0xf",
          "logIndex": "0x146",
          "removed": false
        }
      ],
      "logsBloom": "0x00000000000000000000000200000000000000000000000000800000000000000000000000000000000000000000000040000000000000000000000000000000000000000000000000000000000000000001000000000000000080000000000000000000020000000000000000000800000000000000000000000000000000400000000000000000000000000000000000000000000000000400000000000000000000000000000000000000004000000000000000002000000000000000000000000000000000000000000000000000000000000000000000000000000020000000000000000000000000000000000000000000000000000000000000000000",
      "type": "0x2",
      "transactionHash": "0x787ecd42f31ebc89ecf8ab4e986fe5e085c32f62930db734f8e079a8057034e9",
      "transactionIndex": "0xf",
      "blockHash": "0x31f438faef3624ae76636cc9e22830aeddf8db6989606ffbf39f397e4e41d315",
      "blockNumber": "0x1db4821",
      "gasUsed": "0xd04ae",
      "effectiveGasPrice": "0xf433a",
      "from": "0x6182051f545e673b54119800126d8802e3da034b",
      "to": null,
      "contractAddress": "0xc9fe3e6ff20fe4eb4f48b3993c947be51007d2c1",
      "l1BaseFeeScalar": "0x1db0",
      "l1BlobBaseFee": "0x1",
      "l1BlobBaseFeeScalar": "0xd2730",
      "l1Fee": "0x28564e3",
      "l1GasPrice": "0x21590",
      "l1GasUsed": "0x9f26"
    },
    {
      "status": "0x1",
      "cumulativeGasUsed": "0x13d3aae",
      "logs": [
        {
          "address": "0x0b00093dcc35c1a887789e079453c64b641872b6",
          "topics": [
            "0x8be0079c531659141344cd1fd0a4f28419497f9722a3daafe3b4186f6b6457e0",
            "0x0000000000000000000000000000000000000000000000000000000000000000",
            "0x0000000000000000000000006182051f545e673b54119800126d8802e3da034b"
          ],
          "data": "0x",
          "blockHash": "0x31f438faef3624ae76636cc9e22830aeddf8db6989606ffbf39f397e4e41d315",
          "blockNumber": "0x1db4821",
          "transactionHash": "0xbe5b2c5e348aac15ab62656ff0d619e2ef348de90a8922445d3a9273a14c36d8",
          "transactionIndex": "0x10",
          "logIndex": "0x147",
          "removed": false
        }
      ],
      "logsBloom": "0x00000000000000000000000000000000000000000000000000800000000000000000000000000000000000000000000040000000000000000000000000000000000000000000000000000000000000000001000000000000000080000000000000000000020000000000000000000800000000000000000000000000000000400000000000000000000000000000000000000000000000000000000000000000000000000000000000000000000000000000000000002000000000000100000000000000000000000000040000000000000000000000000000000000000020000000000000000000000000000000000000000001000000000000000000000000",
      "type": "0x2",
      "transactionHash": "0xbe5b2c5e348aac15ab62656ff0d619e2ef348de90a8922445d3a9273a14c36d8",
      "transactionIndex": "0x10",
      "blockHash": "0x31f438faef3624ae76636cc9e22830aeddf8db6989606ffbf39f397e4e41d315",
      "blockNumber": "0x1db4821",
      "gasUsed": "0xd042a",
      "effectiveGasPrice": "0xf433a",
      "from": "0x6182051f545e673b54119800126d8802e3da034b",
      "to": null,
      "contractAddress": "0x0b00093dcc35c1a887789e079453c64b641872b6",
      "l1BaseFeeScalar": "0x1db0",
      "l1BlobBaseFee": "0x1",
      "l1BlobBaseFeeScalar": "0xd2730",
      "l1Fee": "0x2826d06",
      "l1GasPrice": "0x21590",
      "l1GasUsed": "0x9e6a"
    },
    {
      "status": "0x1",
      "cumulativeGasUsed": "0x14a3f74",
      "logs": [
        {
          "address": "0xfa4f9504b0f922221c209b8ac56294a31bc22618",
          "topics": [
            "0x8be0079c531659141344cd1fd0a4f28419497f9722a3daafe3b4186f6b6457e0",
            "0x0000000000000000000000000000000000000000000000000000000000000000",
            "0x0000000000000000000000006182051f545e673b54119800126d8802e3da034b"
          ],
          "data": "0x",
          "blockHash": "0x31f438faef3624ae76636cc9e22830aeddf8db6989606ffbf39f397e4e41d315",
          "blockNumber": "0x1db4821",
          "transactionHash": "0x5a4323941bfed62d4f1edbe832e030b3b0b10276c61a1500d0306333f9ae6b0a",
          "transactionIndex": "0x11",
          "logIndex": "0x148",
          "removed": false
        }
      ],
      "logsBloom": "0x00000000000000000000000000000000000000000000000000800000000000000000000000000000000000000000000040000000000000000000000040000000000000000000000000000000000000000001000000000000000080000000000000000000020000000000000000000800000000000000000000000000000000400000000000000400000000000000000000000000000000000000000000000000000000002000000000000000000000000000000000002000000000000000000000000000000000000000000000000000000000000000000000000000000020000000000000000000000000000000000000000000000000000000000000000000",
      "type": "0x2",
      "transactionHash": "0x5a4323941bfed62d4f1edbe832e030b3b0b10276c61a1500d0306333f9ae6b0a",
      "transactionIndex": "0x11",
      "blockHash": "0x31f438faef3624ae76636cc9e22830aeddf8db6989606ffbf39f397e4e41d315",
      "blockNumber": "0x1db4821",
      "gasUsed": "0xd04c6",
      "effectiveGasPrice": "0xf433a",
      "from": "0x6182051f545e673b54119800126d8802e3da034b",
      "to": null,
      "contractAddress": "0xfa4f9504b0f922221c209b8ac56294a31bc22618",
      "l1BaseFeeScalar": "0x1db0",
      "l1BlobBaseFee": "0x1",
      "l1BlobBaseFeeScalar": "0xd2730",
      "l1Fee": "0x2859b29",
      "l1GasPrice": "0x21590",
      "l1GasUsed": "0x9f33"
    },
    {
      "status": "0x1",
      "cumulativeGasUsed": "0x14b49b7",
      "logs": [
        {
          "address": "0x7caac5eb64e3721a82121f3b9b247cb6ffca7203",
          "topics": [
            "0xddf252ad1be2c89b69c2b068fc378daa952ba7f163c4a11628f55a4df523b3ef",
            "0x0000000000000000000000000000000000000000000000000000000000000000",
            "0x0000000000000000000000006182051f545e673b54119800126d8802e3da034b"
          ],
          "data": "0x00000000000000000000000000000000000000000000000000000002540be400",
          "blockHash": "0x31f438faef3624ae76636cc9e22830aeddf8db6989606ffbf39f397e4e41d315",
          "blockNumber": "0x1db4821",
          "transactionHash": "0x0d0d5a1cba419a8086e70ba385b478c1282166185dac3d3441e80bada05c4f52",
          "transactionIndex": "0x12",
          "logIndex": "0x149",
          "removed": false
        }
      ],
      "logsBloom": "0x00000000000000000000000000000000000000000000000000000000000000000000000000000000000000000000000040000000000000000000000000000000000000000000000000000008000000000000000000000000000080000000000000000000020000000000000000000800000000000000000000000010000000000000000000000000000000000000000000000000000000000000000000000000000000000000000000000000000000000000000000002008000000000000000000000002000000000000000000000040000000000000000000000000000020000200000000000000000000000000000000000000000000000000000000000000",
      "type": "0x2",
      "transactionHash": "0x0d0d5a1cba419a8086e70ba385b478c1282166185dac3d3441e80bada05c4f52",
      "transactionIndex": "0x12",
      "blockHash": "0x31f438faef3624ae76636cc9e22830aeddf8db6989606ffbf39f397e4e41d315",
      "blockNumber": "0x1db4821",
      "gasUsed": "0x10a43",
      "effectiveGasPrice": "0xf433a",
      "from": "0x6182051f545e673b54119800126d8802e3da034b",
      "to": "0x7caac5eb64e3721a82121f3b9b247cb6ffca7203",
      "contractAddress": null,
      "l1BaseFeeScalar": "0x1db0",
      "l1BlobBaseFee": "0x1",
      "l1BlobBaseFeeScalar": "0xd2730",
      "l1Fee": "0x195874",
      "l1GasPrice": "0x21590",
      "l1GasUsed": "0x640"
    },
    {
      "status": "0x1",
      "cumulativeGasUsed": "0x14c53fa",
      "logs": [
        {
          "address": "0xc9fe3e6ff20fe4eb4f48b3993c947be51007d2c1",
          "topics": [
            "0xddf252ad1be2c89b69c2b068fc378daa952ba7f163c4a11628f55a4df523b3ef",
            "0x0000000000000000000000000000000000000000000000000000000000000000",
            "0x0000000000000000000000006182051f545e673b54119800126d8802e3da034b"
          ],
          "data": "0x00000000000000000000000000000000000000000000000000000002540be400",
          "blockHash": "0x31f438faef3624ae76636cc9e22830aeddf8db6989606ffbf39f397e4e41d315",
          "blockNumber": "0x1db4821",
          "transactionHash": "0xfb2982ec0abc91e9b5ef2b04d30949608496cdb357adf851d905d5663f5cb0e0",
          "transactionIndex": "0x13",
          "logIndex": "0x14a",
          "removed": false
        }
      ],
      "logsBloom": "0x00000000000000000000000200000000000000000000000000000000000000000000000000000000000000000000000040000000000000000000000000000000000000000000000000000008000000000000000000000000000080000000000000000000020000000000000000000800000000000000000000000010000000000000000000000000000000000000000000000000000000000400000000000000000000000000000000000000004000000000000000002000000000000000000000000002000000000000000000000000000000000000000000000000000020000000000000000000000000000000000000000000000000000000000000000000",
      "type": "0x2",
      "transactionHash": "0xfb2982ec0abc91e9b5ef2b04d30949608496cdb357adf851d905d5663f5cb0e0",
      "transactionIndex": "0x13",
      "blockHash": "0x31f438faef3624ae76636cc9e22830aeddf8db6989606ffbf39f397e4e41d315",
      "blockNumber": "0x1db4821",
      "gasUsed": "0x10a43",
      "effectiveGasPrice": "0xf433a",
      "from": "0x6182051f545e673b54119800126d8802e3da034b",
      "to": "0xc9fe3e6ff20fe4eb4f48b3993c947be51007d2c1",
      "contractAddress": null,
      "l1BaseFeeScalar": "0x1db0",
      "l1BlobBaseFee": "0x1",
      "l1BlobBaseFeeScalar": "0xd2730",
      "l1Fee": "0x195874",
      "l1GasPrice": "0x21590",
      "l1GasUsed": "0x640"
    },
    {
      "status": "0x1",
      "cumulativeGasUsed": "0x14d5e61",
      "logs": [
        {
          "address": "0x0b00093dcc35c1a887789e079453c64b641872b6",
          "topics": [
            "0xddf252ad1be2c89b69c2b068fc378daa952ba7f163c4a11628f55a4df523b3ef",
            "0x0000000000000000000000000000000000000000000000000000000000000000",
            "0x0000000000000000000000006182051f545e673b54119800126d8802e3da034b"
          ],
          "data": "0x0000000000000000000000000000000000000000000000056bc75e2d63100000",
          "blockHash": "0x31f438faef3624ae76636cc9e22830aeddf8db6989606ffbf39f397e4e41d315",
          "blockNumber": "0x1db4821",
          "transactionHash": "0x06fb49ffb378ee2b080d9c2ed0550b8afefeebacb2e5b8291bae5a43baf11daa",
          "transactionIndex": "0x14",
          "logIndex": "0x14b",
          "removed": false
        }
      ],
      "logsBloom": "0x00000000000000000000000000000000000000000000000000000000000000000000000000000000000000000000000040000000000000000000000000000000000000000000000000000008000000000000000000000000000080000000000000000000020000000000000000000800000000000000000000000010000000000000000000000000000000000000000000000000000000000000000000000000000000000000000000000000000000000000000000002000000000000100000000000002000000000000040000000000000000000000000000000000000020000000000000000000000000000000000000000001000000000000000000000000",
      "type": "0x2",
      "transactionHash": "0x06fb49ffb378ee2b080d9c2ed0550b8afefeebacb2e5b8291bae5a43baf11daa",
      "transactionIndex": "0x14",
      "blockHash": "0x31f438faef3624ae76636cc9e22830aeddf8db6989606ffbf39f397e4e41d315",
      "blockNumber": "0x1db4821",
      "gasUsed": "0x10a67",
      "effectiveGasPrice": "0xf433a",
      "from": "0x6182051f545e673b54119800126d8802e3da034b",
      "to": "0x0b00093dcc35c1a887789e079453c64b641872b6",
      "contractAddress": null,
      "l1BaseFeeScalar": "0x1db0",
      "l1BlobBaseFee": "0x1",
      "l1BlobBaseFeeScalar": "0xd2730",
      "l1Fee": "0x195874",
      "l1GasPrice": "0x21590",
      "l1GasUsed": "0x640"
    },
    {
      "status": "0x1",
      "cumulativeGasUsed": "0x14e68a4",
      "logs": [
        {
          "address": "0xfa4f9504b0f922221c209b8ac56294a31bc22618",
          "topics": [
            "0xddf252ad1be2c89b69c2b068fc378daa952ba7f163c4a11628f55a4df523b3ef",
            "0x0000000000000000000000000000000000000000000000000000000000000000",
            "0x0000000000000000000000006182051f545e673b54119800126d8802e3da034b"
          ],
          "data": "0x00000000000000000000000000000000000000000000000000000002540be400",
          "blockHash": "0x31f438faef3624ae76636cc9e22830aeddf8db6989606ffbf39f397e4e41d315",
          "blockNumber": "0x1db4821",
          "transactionHash": "0x7d6ca4de366e77161c29050cfca454a5bf9796b796b49db5cae1a23dac097c39",
          "transactionIndex": "0x15",
          "logIndex": "0x14c",
          "removed": false
        }
      ],
      "logsBloom": "0x00000000000000000000000000000000000000000000000000000000000000000000000000000000000000000000000040000000000000000000000040000000000000000000000000000008000000000000000000000000000080000000000000000000020000000000000000000800000000000000000000000010000000000000000000000400000000000000000000000000000000000000000000000000000000002000000000000000000000000000000000002000000000000000000000000002000000000000000000000000000000000000000000000000000020000000000000000000000000000000000000000000000000000000000000000000",
      "type": "0x2",
      "transactionHash": "0x7d6ca4de366e77161c29050cfca454a5bf9796b796b49db5cae1a23dac097c39",
      "transactionIndex": "0x15",
      "blockHash": "0x31f438faef3624ae76636cc9e22830aeddf8db6989606ffbf39f397e4e41d315",
      "blockNumber": "0x1db4821",
      "gasUsed": "0x10a43",
      "effectiveGasPrice": "0xf433a",
      "from": "0x6182051f545e673b54119800126d8802e3da034b",
      "to": "0xfa4f9504b0f922221c209b8ac56294a31bc22618",
      "contractAddress": null,
      "l1BaseFeeScalar": "0x1db0",
      "l1BlobBaseFee": "0x1",
      "l1BlobBaseFeeScalar": "0xd2730",
      "l1Fee": "0x195874",
      "l1GasPrice": "0x21590",
      "l1GasUsed": "0x640"
    },
    {
      "status": "0x1",
      "cumulativeGasUsed": "0x14f3027",
      "logs": [
        {
          "address": "0x7caac5eb64e3721a82121f3b9b247cb6ffca7203",
          "topics": [
            "0xddf252ad1be2c89b69c2b068fc378daa952ba7f163c4a11628f55a4df523b3ef",
            "0x0000000000000000000000000000000000000000000000000000000000000000",
            "0x0000000000000000000000000670faf0016e1bf591fed8e0322689e894104f81"
          ],
          "data": "0x00000000000000000000000000000000000000000000000000000002540be400",
          "blockHash": "0x31f438faef3624ae76636cc9e22830aeddf8db6989606ffbf39f397e4e41d315",
          "blockNumber": "0x1db4821",
          "transactionHash": "0xae374052d1bec3e6bef7675868ca2f8610956f7571340b4b68876761d0298f0b",
          "transactionIndex": "0x16",
          "logIndex": "0x14d",
          "removed": false
        }
      ],
      "logsBloom": "0x00000000000000000000000000000000000000000000000000000000000000000000000000000000000000000000000000000004000000000000000000000000000000000000000000000008000000000000000000000000000000000000000000000000020000000000000000000800000001000000000000000010000000000000000000000000000000000000000000000000000000000000000000000000000000000000000000000000000000000000000000000008000000000000000000000002000000000000000000000040000000000000000000000000000020000200000000000000000000000000800000000000000000000000000000000000",
      "type": "0x2",
      "transactionHash": "0xae374052d1bec3e6bef7675868ca2f8610956f7571340b4b68876761d0298f0b",
      "transactionIndex": "0x16",
      "blockHash": "0x31f438faef3624ae76636cc9e22830aeddf8db6989606ffbf39f397e4e41d315",
      "blockNumber": "0x1db4821",
      "gasUsed": "0xc783",
      "effectiveGasPrice": "0xf433a",
      "from": "0x6182051f545e673b54119800126d8802e3da034b",
      "to": "0x7caac5eb64e3721a82121f3b9b247cb6ffca7203",
      "contractAddress": null,
      "l1BaseFeeScalar": "0x1db0",
      "l1BlobBaseFee": "0x1",
      "l1BlobBaseFeeScalar": "0xd2730",
      "l1Fee": "0x195874",
      "l1GasPrice": "0x21590",
      "l1GasUsed": "0x640"
    },
    {
      "status": "0x1",
      "cumulativeGasUsed": "0x14ff7aa",
      "logs": [
        {
          "address": "0xc9fe3e6ff20fe4eb4f48b3993c947be51007d2c1",
          "topics": [
            "0xddf252ad1be2c89b69c2b068fc378daa952ba7f163c4a11628f55a4df523b3ef",
            "0x0000000000000000000000000000000000000000000000000000000000000000",
            "0x0000000000000000000000000670faf0016e1bf591fed8e0322689e894104f81"
          ],
          "data": "0x00000000000000000000000000000000000000000000000000000002540be400",
          "blockHash": "0x31f438faef3624ae76636cc9e22830aeddf8db6989606ffbf39f397e4e41d315",
          "blockNumber": "0x1db4821",
          "transactionHash": "0xddecfe009acd1f2e1d1ccbb489b8a11b745f1d9b9dab22bf6f7f11d8f54739f9",
          "transactionIndex": "0x17",
          "logIndex": "0x14e",
          "removed": false
        }
      ],
      "logsBloom": "0x00000000000000000000000200000000000000000000000000000000000000000000000000000000000000000000000000000004000000000000000000000000000000000000000000000008000000000000000000000000000000000000000000000000020000000000000000000800000001000000000000000010000000000000000000000000000000000000000000000000000000000400000000000000000000000000000000000000004000000000000000000000000000000000000000000002000000000000000000000000000000000000000000000000000020000000000000000000000000000000800000000000000000000000000000000000",
      "type": "0x2",
      "transactionHash": "0xddecfe009acd1f2e1d1ccbb489b8a11b745f1d9b9dab22bf6f7f11d8f54739f9",
      "transactionIndex": "0x17",
      "blockHash": "0x31f438faef3624ae76636cc9e22830aeddf8db6989606ffbf39f397e4e41d315",
      "blockNumber": "0x1db4821",
      "gasUsed": "0xc783",
      "effectiveGasPrice": "0xf433a",
      "from": "0x6182051f545e673b54119800126d8802e3da034b",
      "to": "0xc9fe3e6ff20fe4eb4f48b3993c947be51007d2c1",
      "contractAddress": null,
      "l1BaseFeeScalar": "0x1db0",
      "l1BlobBaseFee": "0x1",
      "l1BlobBaseFeeScalar": "0xd2730",
      "l1Fee": "0x195874",
      "l1GasPrice": "0x21590",
      "l1GasUsed": "0x640"
    },
    {
      "status": "0x1",
      "cumulativeGasUsed": "0x150bf2d",
      "logs": [
        {
          "address": "0x7caac5eb64e3721a82121f3b9b247cb6ffca7203",
          "topics": [
            "0xddf252ad1be2c89b69c2b068fc378daa952ba7f163c4a11628f55a4df523b3ef",
            "0x0000000000000000000000000000000000000000000000000000000000000000",
            "0x000000000000000000000000c67dd6f32147285a9e4d92774055ce3dba5ae8b6"
          ],
          "data": "0x00000000000000000000000000000000000000000000000000000002540be400",
          "blockHash": "0x31f438faef3624ae76636cc9e22830aeddf8db6989606ffbf39f397e4e41d315",
          "blockNumber": "0x1db4821",
          "transactionHash": "0x823e9e36b6d1b3dda917e5a53f0d8c9ea09c9b8caf4b327db74187dcdad33541",
          "transactionIndex": "0x18",
          "logIndex": "0x14f",
          "removed": false
        }
      ],
      "logsBloom": "0x00000000000000000000000000000000000000000000000000000000000000000000000000000000000000000000000000000000000000000000000000000000000000000000000000000008000000000000000000000000000000000000000000000000020000000000000000000800000000000000000000000010000000000000000010000000001000000000000000000000000000000000000000080000000000000000000000000000000000000000000000000008000000000000000000000002000000000000000000000040000000000000000000000000000020000200000000000000000000000000000000000000000000000000000000000000",
      "type": "0x2",
      "transactionHash": "0x823e9e36b6d1b3dda917e5a53f0d8c9ea09c9b8caf4b327db74187dcdad33541",
      "transactionIndex": "0x18",
      "blockHash": "0x31f438faef3624ae76636cc9e22830aeddf8db6989606ffbf39f397e4e41d315",
      "blockNumber": "0x1db4821",
      "gasUsed": "0xc783",
      "effectiveGasPrice": "0xf433a",
      "from": "0x6182051f545e673b54119800126d8802e3da034b",
      "to": "0x7caac5eb64e3721a82121f3b9b247cb6ffca7203",
      "contractAddress": null,
      "l1BaseFeeScalar": "0x1db0",
      "l1BlobBaseFee": "0x1",
      "l1BlobBaseFeeScalar": "0xd2730",
      "l1Fee": "0x195874",
      "l1GasPrice": "0x21590",
      "l1GasUsed": "0x640"
    },
    {
      "status": "0x1",
      "cumulativeGasUsed": "0x1519291",
      "logs": [
        {
          "address": "0xcbbf02d619f4c53b1826b64cc07ea39fb8442f13",
          "topics": [
            "0x3bf830d3cb3debaca210c6cdf06de57a34dab5b83dd1fcdaa56ef386e3aa55d1",
            "0x0000000000000000000000007caac5eb64e3721a82121f3b9b247cb6ffca7203"
          ],
          "data": "0x0000000000000000000000000000000000000000000000000000000000000008",
          "blockHash": "0x31f438faef3624ae76636cc9e22830aeddf8db6989606ffbf39f397e4e41d315",
          "blockNumber": "0x1db4821",
          "transactionHash": "0xa5c6b7abcce29b068522401e6fa48176b46d332df5f347857145c918220324f2",
          "transactionIndex": "0x19",
          "logIndex": "0x150",
          "removed": false
        }
      ],
      "logsBloom": "0x00000000000000000000000000000000010000000000000800000000000000000080000000000000000000000000000000000000000000000000000000000000000000000000000000000000000000000000002000000000000000000000000000000000000000000000000000000000000000000000000000000000000000000000000000000000000000000000000000000040000000000000000000000000000000000000000000001000000000000000000000000000000000002000000000000000000000000000000000000000000000000000000000000000000000000000000000000000000000000000000000000000200000000000000002000000",
      "type": "0x2",
      "transactionHash": "0xa5c6b7abcce29b068522401e6fa48176b46d332df5f347857145c918220324f2",
      "transactionIndex": "0x19",
      "blockHash": "0x31f438faef3624ae76636cc9e22830aeddf8db6989606ffbf39f397e4e41d315",
      "blockNumber": "0x1db4821",
      "gasUsed": "0xd364",
      "effectiveGasPrice": "0xf433a",
      "from": "0x6182051f545e673b54119800126d8802e3da034b",
      "to": "0xcbbf02d619f4c53b1826b64cc07ea39fb8442f13",
      "contractAddress": null,
      "l1BaseFeeScalar": "0x1db0",
      "l1BlobBaseFee": "0x1",
      "l1BlobBaseFeeScalar": "0xd2730",
      "l1Fee": "0x195874",
      "l1GasPrice": "0x21590",
      "l1GasUsed": "0x640"
    },
    {
      "status": "0x1",
      "cumulativeGasUsed": "0x15265f5",
      "logs": [
        {
          "address": "0xcbbf02d619f4c53b1826b64cc07ea39fb8442f13",
          "topics": [
            "0x3bf830d3cb3debaca210c6cdf06de57a34dab5b83dd1fcdaa56ef386e3aa55d1",
            "0x000000000000000000000000c9fe3e6ff20fe4eb4f48b3993c947be51007d2c1"
          ],
          "data": "0x0000000000000000000000000000000000000000000000000000000000000008",
          "blockHash": "0x31f438faef3624ae76636cc9e22830aeddf8db6989606ffbf39f397e4e41d315",
          "blockNumber": "0x1db4821",
          "transactionHash": "0x42007cdea60ff3c0ea577cdabff5ede04f575dafc5c80f75d33694a2cc346f03",
          "transactionIndex": "0x1a",
          "logIndex": "0x151",
          "removed": false
        }
      ],
      "logsBloom": "0x00000000000000000000000000000000010000000000000000000000000000000000000000000200000000000000000000000000000000000000000000000000000000000000000000000000000000000000002000000000000000000000000000000000000000000000000000000000000000000000000000000000000000000000000000000000000000000000000000000040000000000000000000000000080000000000000000001000000000000000000000000000000000002000000000000000000000000000000000000000000000010000000000000000000000000000000000000000000000000000000000000000000000000000000002000000",
      "type": "0x2",
      "transactionHash": "0x42007cdea60ff3c0ea577cdabff5ede04f575dafc5c80f75d33694a2cc346f03",
      "transactionIndex": "0x1a",
      "blockHash": "0x31f438faef3624ae76636cc9e22830aeddf8db6989606ffbf39f397e4e41d315",
      "blockNumber": "0x1db4821",
      "gasUsed": "0xd364",
      "effectiveGasPrice": "0xf433a",
      "from": "0x6182051f545e673b54119800126d8802e3da034b",
      "to": "0xcbbf02d619f4c53b1826b64cc07ea39fb8442f13",
      "contractAddress": null,
      "l1BaseFeeScalar": "0x1db0",
      "l1BlobBaseFee": "0x1",
      "l1BlobBaseFeeScalar": "0xd2730",
      "l1Fee": "0x195874",
      "l1GasPrice": "0x21590",
      "l1GasUsed": "0x640"
    },
    {
      "status": "0x1",
      "cumulativeGasUsed": "0x153394d",
      "logs": [
        {
          "address": "0xcbbf02d619f4c53b1826b64cc07ea39fb8442f13",
          "topics": [
            "0x3bf830d3cb3debaca210c6cdf06de57a34dab5b83dd1fcdaa56ef386e3aa55d1",
            "0x0000000000000000000000000b00093dcc35c1a887789e079453c64b641872b6"
          ],
          "data": "0x0000000000000000000000000000000000000000000000000000000000000012",
          "blockHash": "0x31f438faef3624ae76636cc9e22830aeddf8db6989606ffbf39f397e4e41d315",
          "blockNumber": "0x1db4821",
          "transactionHash": "0x39e3baa70be71d1e3ae6d03f0aad87144cd0c0e8e2c5cacef6d1832f664d3d07",
          "transactionIndex": "0x1b",
          "logIndex": "0x152",
          "removed": false
        }
      ],
      "logsBloom": "0x00000000000000000000000000000000410000000000000000000000000000000000000000000000000000000000000000000000000000000000000000000000000000000000000000000000000000000000002000000000000000000000000000000000000000000000000000000000000000000000000000000000000000000000000000000000000000000000000000000040000000000000000000000000000000000000000000001000000000000000000000000000000000002000000000000000000000000000000000000000000000000000000000000002000000000000000000080000000000000000000000000000000000000000000002000000",
      "type": "0x2",
      "transactionHash": "0x39e3baa70be71d1e3ae6d03f0aad87144cd0c0e8e2c5cacef6d1832f664d3d07",
      "transactionIndex": "0x1b",
      "blockHash": "0x31f438faef3624ae76636cc9e22830aeddf8db6989606ffbf39f397e4e41d315",
      "blockNumber": "0x1db4821",
      "gasUsed": "0xd358",
      "effectiveGasPrice": "0xf433a",
      "from": "0x6182051f545e673b54119800126d8802e3da034b",
      "to": "0xcbbf02d619f4c53b1826b64cc07ea39fb8442f13",
      "contractAddress": null,
      "l1BaseFeeScalar": "0x1db0",
      "l1BlobBaseFee": "0x1",
      "l1BlobBaseFeeScalar": "0xd2730",
      "l1Fee": "0x195874",
      "l1GasPrice": "0x21590",
      "l1GasUsed": "0x640"
    },
    {
      "status": "0x1",
      "cumulativeGasUsed": "0x1545eb9",
      "logs": [
        {
          "address": "0xcbbf02d619f4c53b1826b64cc07ea39fb8442f13",
          "topics": [
            "0x3bf830d3cb3debaca210c6cdf06de57a34dab5b83dd1fcdaa56ef386e3aa55d1",
            "0x000000000000000000000000fa4f9504b0f922221c209b8ac56294a31bc22618"
          ],
          "data": "0x0000000000000000000000000000000000000000000000000000000000000008",
          "blockHash": "0x31f438faef3624ae76636cc9e22830aeddf8db6989606ffbf39f397e4e41d315",
          "blockNumber": "0x1db4821",
          "transactionHash": "0x4cbc816666d2b110142a26c1b0c027b6b57577ba010b8a314ee3391dabbc0486",
          "transactionIndex": "0x1d",
          "logIndex": "0x153",
          "removed": false
        }
      ],
      "logsBloom": "0x00000000000000000000000000000000010000000000000000000000000000800000000000000000000000000000000000000000000000000000000000000000000000000000000000000000000000000000002000000000000000000000000000000000000000000000000000000000000000000000000800000000000000000000000000000000400000000000000000000040000000000000000000000000000000000000000000001000000000000000000000000000000000002000000000000000000000000000000000000000000000000000000000000000000000000000000000000000000000000000000000000000000000000000000002000000",
      "type": "0x2",
      "transactionHash": "0x4cbc816666d2b110142a26c1b0c027b6b57577ba010b8a314ee3391dabbc0486",
      "transactionIndex": "0x1d",
      "blockHash": "0x31f438faef3624ae76636cc9e22830aeddf8db6989606ffbf39f397e4e41d315",
      "blockNumber": "0x1db4821",
      "gasUsed": "0xd364",
      "effectiveGasPrice": "0xf433a",
      "from": "0x6182051f545e673b54119800126d8802e3da034b",
      "to": "0xcbbf02d619f4c53b1826b64cc07ea39fb8442f13",
      "contractAddress": null,
      "l1BaseFeeScalar": "0x1db0",
      "l1BlobBaseFee": "0x1",
      "l1BlobBaseFeeScalar": "0xd2730",
      "l1Fee": "0x195874",
      "l1GasPrice": "0x21590",
      "l1GasUsed": "0x640"
    },
    {
      "status": "0x1",
      "cumulativeGasUsed": "0x109513",
      "logs": [],
      "logsBloom": "0x00000000000000000000000000000000000000000000000000000000000000000000000000000000000000000000000000000000000000000000000000000000000000000000000000000000000000000000000000000000000000000000000000000000000000000000000000000000000000000000000000000000000000000000000000000000000000000000000000000000000000000000000000000000000000000000000000000000000000000000000000000000000000000000000000000000000000000000000000000000000000000000000000000000000000000000000000000000000000000000000000000000000000000000000000000000",
      "type": "0x2",
      "transactionHash": "0xd96758198f295ce9fc6e01a50a80201156ad04576a94ecd041979fc349d8873e",
      "transactionIndex": "0x2",
      "blockHash": "0x4b5c7645892d100344466f70aa76dde6b4df2d1ec8d1396a588a8c47d3b9c1f9",
      "blockNumber": "0x1db4822",
      "gasUsed": "0xdc1d9",
      "effectiveGasPrice": "0xf433b",
      "from": "0x6182051f545e673b54119800126d8802e3da034b",
      "to": null,
      "contractAddress": "0x63c8215a478f8f57c548a8700420ac5bd8dc3749",
      "l1BaseFeeScalar": "0x1db0",
      "l1BlobBaseFee": "0x1",
      "l1BlobBaseFeeScalar": "0xd2730",
      "l1Fee": "0x22cc58b",
      "l1GasPrice": "0x21590",
      "l1GasUsed": "0x894b"
    },
    {
      "status": "0x1",
      "cumulativeGasUsed": "0x12c564",
      "logs": [
        {
          "address": "0x63c8215a478f8f57c548a8700420ac5bd8dc3749",
          "topics": [
            "0x3fcefb9b19b48d6ec98e880e4f00ea1f85e110afa16ad4d3b533cd22475dd1ac",
            "0x000000000000000000000000c9fe3e6ff20fe4eb4f48b3993c947be51007d2c1"
          ],
          "data": "0x0000000000000000000000000000000000000000000000000de0b6b3a76400000000000000000000000000000000000000000000000000000000000000000008",
          "blockHash": "0x4b5c7645892d100344466f70aa76dde6b4df2d1ec8d1396a588a8c47d3b9c1f9",
          "blockNumber": "0x1db4822",
          "transactionHash": "0x69f381e0c3797fda61404469b36a758078c2307eb5754047edf34ea34ddfa051",
          "transactionIndex": "0x3",
          "logIndex": "0x2",
          "removed": false
        }
      ],
      "logsBloom": "0x00000000000000000000000000000000000000000000000000000000000000000000000000000200000000000000000000000000000000000000000000000000000000000000000000000000000000000000000000000000000000008000000000000000000000000000000000000000040000000000000000000000000000000000000000000000000000000000000000000000000000000000000000000000080000000000000010000000000000000000000000000000000000000000000000000000000000000000000000000800000000010000000000000020000000000000000000000000000000000000800000000000000000000000000000000000",
      "type": "0x2",
      "transactionHash": "0x69f381e0c3797fda61404469b36a758078c2307eb5754047edf34ea34ddfa051",
      "transactionIndex": "0x3",
      "blockHash": "0x4b5c7645892d100344466f70aa76dde6b4df2d1ec8d1396a588a8c47d3b9c1f9",
      "blockNumber": "0x1db4822",
      "gasUsed": "0x23051",
      "effectiveGasPrice": "0xf433b",
      "from": "0x6182051f545e673b54119800126d8802e3da034b",
      "to": "0x63c8215a478f8f57c548a8700420ac5bd8dc3749",
      "contractAddress": null,
      "l1BaseFeeScalar": "0x1db0",
      "l1BlobBaseFee": "0x1",
      "l1BlobBaseFeeScalar": "0xd2730",
      "l1Fee": "0x195874",
      "l1GasPrice": "0x21590",
      "l1GasUsed": "0x640"
    },
    {
      "status": "0x1",
      "cumulativeGasUsed": "0x14b2dd",
      "logs": [
        {
          "address": "0x63c8215a478f8f57c548a8700420ac5bd8dc3749",
          "topics": [
            "0x3fcefb9b19b48d6ec98e880e4f00ea1f85e110afa16ad4d3b533cd22475dd1ac",
            "0x0000000000000000000000000b00093dcc35c1a887789e079453c64b641872b6"
          ],
          "data": "0x0000000000000000000000000000000000000000000000000de0b6b3a76400000000000000000000000000000000000000000000000000000000000000000012",
          "blockHash": "0x4b5c7645892d100344466f70aa76dde6b4df2d1ec8d1396a588a8c47d3b9c1f9",
          "blockNumber": "0x1db4822",
          "transactionHash": "0x264d0b9bd73a61ff235b338e6b58fd1ce5853bbe85257cd730dcfd04f53fa515",
          "transactionIndex": "0x4",
          "logIndex": "0x3",
          "removed": false
        }
      ],
      "logsBloom": "0x00000000000000000000000000000000400000000000000000000000000000000000000000000000000000000000000000000000000000000000000000000000000000000000000000000000000000000000000000000000000000008000000000000000000000000000000000000000040000000000000000000000000000000000000000000000000000000000000000000000000000000000000000000000000000000000000010000000000000000000000000000000000000000000000000000000000000000000000000000800000000000000000000000022000000000000000000080000000000000000800000000000000000000000000000000000",
      "type": "0x2",
      "transactionHash": "0x264d0b9bd73a61ff235b338e6b58fd1ce5853bbe85257cd730dcfd04f53fa515",
      "transactionIndex": "0x4",
      "blockHash": "0x4b5c7645892d100344466f70aa76dde6b4df2d1ec8d1396a588a8c47d3b9c1f9",
      "blockNumber": "0x1db4822",
      "gasUsed": "0x1ed79",
      "effectiveGasPrice": "0xf433b",
      "from": "0x6182051f545e673b54119800126d8802e3da034b",
      "to": "0x63c8215a478f8f57c548a8700420ac5bd8dc3749",
      "contractAddress": null,
      "l1BaseFeeScalar": "0x1db0",
      "l1BlobBaseFee": "0x1",
      "l1BlobBaseFeeScalar": "0xd2730",
      "l1Fee": "0x195874",
      "l1GasPrice": "0x21590",
      "l1GasUsed": "0x640"
    },
    {
      "status": "0x1",
      "cumulativeGasUsed": "0x16a062",
      "logs": [
        {
          "address": "0x63c8215a478f8f57c548a8700420ac5bd8dc3749",
          "topics": [
            "0x3fcefb9b19b48d6ec98e880e4f00ea1f85e110afa16ad4d3b533cd22475dd1ac",
            "0x000000000000000000000000fa4f9504b0f922221c209b8ac56294a31bc22618"
          ],
          "data": "0x0000000000000000000000000000000000000000000000000de0b6b3a76400000000000000000000000000000000000000000000000000000000000000000008",
          "blockHash": "0x4b5c7645892d100344466f70aa76dde6b4df2d1ec8d1396a588a8c47d3b9c1f9",
          "blockNumber": "0x1db4822",
          "transactionHash": "0x8959b6753a9583944fa187766f79dc98aa69ca13dcecfc4bedf69d682378e348",
          "transactionIndex": "0x5",
          "logIndex": "0x4",
          "removed": false
        }
      ],
      "logsBloom": "0x00000000000000000000000000000000000000000000000000000000000000800000000000000000000000000000000000000000000000000000000000000000000000000000000000000000000000000000000000000000000000008000000000000000000000000000000000000000040000000000000800000000000000000000000000000000400000000000000000000000000000000000000000000000000000000000000010000000000000000000000000000000000000000000000000000000000000000000000000000800000000000000000000000020000000000000000000000000000000000000800000000000000000000000000000000000",
      "type": "0x2",
      "transactionHash": "0x8959b6753a9583944fa187766f79dc98aa69ca13dcecfc4bedf69d682378e348",
      "transactionIndex": "0x5",
      "blockHash": "0x4b5c7645892d100344466f70aa76dde6b4df2d1ec8d1396a588a8c47d3b9c1f9",
      "blockNumber": "0x1db4822",
      "gasUsed": "0x1ed85",
      "effectiveGasPrice": "0xf433b",
      "from": "0x6182051f545e673b54119800126d8802e3da034b",
      "to": "0x63c8215a478f8f57c548a8700420ac5bd8dc3749",
      "contractAddress": null,
      "l1BaseFeeScalar": "0x1db0",
      "l1BlobBaseFee": "0x1",
      "l1BlobBaseFeeScalar": "0xd2730",
      "l1Fee": "0x195874",
      "l1GasPrice": "0x21590",
      "l1GasUsed": "0x640"
    },
    {
      "status": "0x1",
      "cumulativeGasUsed": "0x188de7",
      "logs": [
        {
          "address": "0x63c8215a478f8f57c548a8700420ac5bd8dc3749",
          "topics": [
            "0x3fcefb9b19b48d6ec98e880e4f00ea1f85e110afa16ad4d3b533cd22475dd1ac",
            "0x0000000000000000000000007caac5eb64e3721a82121f3b9b247cb6ffca7203"
          ],
          "data": "0x0000000000000000000000000000000000000000000000000de0b6b3a76400000000000000000000000000000000000000000000000000000000000000000008",
          "blockHash": "0x4b5c7645892d100344466f70aa76dde6b4df2d1ec8d1396a588a8c47d3b9c1f9",
          "blockNumber": "0x1db4822",
          "transactionHash": "0xb220dbbda559ff58047ac3087dc39f37fe04841195eef320d598ed46daf957ea",
          "transactionIndex": "0x6",
          "logIndex": "0x5",
          "removed": false
        }
      ],
      "logsBloom": "0x00000000000000000000000000000000000000000000000800000000000000000080000000000000000000000000000000000000000000000000000000000000000000000000000000000000000000000000000000000000000000008000000000000000000000000000000000000000040000000000000000000000000000000000000000000000000000000000000000000000000000000000000000000000000000000000000010000000000000000000000000000000000000000000000000000000000000000000000000000800000000000000000000000020000000000000000000000000000000000000800000000000200000000000000000000000",
      "type": "0x2",
      "transactionHash": "0xb220dbbda559ff58047ac3087dc39f37fe04841195eef320d598ed46daf957ea",
      "transactionIndex": "0x6",
      "blockHash": "0x4b5c7645892d100344466f70aa76dde6b4df2d1ec8d1396a588a8c47d3b9c1f9",
      "blockNumber": "0x1db4822",
      "gasUsed": "0x1ed85",
      "effectiveGasPrice": "0xf433b",
      "from": "0x6182051f545e673b54119800126d8802e3da034b",
      "to": "0x63c8215a478f8f57c548a8700420ac5bd8dc3749",
      "contractAddress": null,
      "l1BaseFeeScalar": "0x1db0",
      "l1BlobBaseFee": "0x1",
      "l1BlobBaseFeeScalar": "0xd2730",
      "l1Fee": "0x195874",
      "l1GasPrice": "0x21590",
      "l1GasUsed": "0x640"
    },
    {
      "status": "0x1",
      "cumulativeGasUsed": "0x252c2d",
      "logs": [],
      "logsBloom": "0x00000000000000000000000000000000000000000000000000000000000000000000000000000000000000000000000000000000000000000000000000000000000000000000000000000000000000000000000000000000000000000000000000000000000000000000000000000000000000000000000000000000000000000000000000000000000000000000000000000000000000000000000000000000000000000000000000000000000000000000000000000000000000000000000000000000000000000000000000000000000000000000000000000000000000000000000000000000000000000000000000000000000000000000000000000000",
      "type": "0x2",
      "transactionHash": "0x20c4b7290e247f1c714f607de49c3924709c1def41a7a563109a945cbbe4801d",
      "transactionIndex": "0x7",
      "blockHash": "0x4b5c7645892d100344466f70aa76dde6b4df2d1ec8d1396a588a8c47d3b9c1f9",
      "blockNumber": "0x1db4822",
      "gasUsed": "0xc9e46",
      "effectiveGasPrice": "0xf433b",
      "from": "0x6182051f545e673b54119800126d8802e3da034b",
      "to": null,
      "contractAddress": "0xe7ced7592f323a798a3af6cb3e041a9a7179f9a4",
      "l1BaseFeeScalar": "0x1db0",
      "l1BlobBaseFee": "0x1",
      "l1BlobBaseFeeScalar": "0xd2730",
      "l1Fee": "0x22851bf",
      "l1GasPrice": "0x21590",
      "l1GasUsed": "0x8832"
    },
    {
      "status": "0x1",
      "cumulativeGasUsed": "0x26001d",
      "logs": [
        {
          "address": "0xcbbf02d619f4c53b1826b64cc07ea39fb8442f13",
          "topics": [
            "0x1c5097abff001fd9ac08c5adf6ec12b074fafdc4762c4351041fa0bdcef47d5a",
            "0x000000000000000000000000e7ced7592f323a798a3af6cb3e041a9a7179f9a4"
          ],
          "data": "0x0000000000000000000000000000000000000000000000000000000000000001",
          "blockHash": "0x4b5c7645892d100344466f70aa76dde6b4df2d1ec8d1396a588a8c47d3b9c1f9",
          "blockNumber": "0x1db4822",
          "transactionHash": "0xb0c9a84e1741d1bc6cb5d9da56c272fe13df63af02c65e7beb33cef79113e71d",
          "transactionIndex": "0x8",
          "logIndex": "0x6",
          "removed": false
        }
      ],
      "logsBloom": "0x00000000000000000000000000000000010000000000000000000000000000000000000000000000000000000000000000000000000000000000000000000000000000000000000000800000000000000000000000000000000000000000000000000000000000000000000000000000000000000000000000000000000000000000000000000000000000000000000000000040000000000000000000000000000100000000000000000000000000000000000000000000000000000000000000000000000000000000000000000000000400000000000000000000001000000000000000000000000000000000000000000010000000000100000002000000",
      "type": "0x2",
      "transactionHash": "0xb0c9a84e1741d1bc6cb5d9da56c272fe13df63af02c65e7beb33cef79113e71d",
      "transactionIndex": "0x8",
      "blockHash": "0x4b5c7645892d100344466f70aa76dde6b4df2d1ec8d1396a588a8c47d3b9c1f9",
      "blockNumber": "0x1db4822",
      "gasUsed": "0xd3f0",
      "effectiveGasPrice": "0xf433b",
      "from": "0x6182051f545e673b54119800126d8802e3da034b",
      "to": "0xcbbf02d619f4c53b1826b64cc07ea39fb8442f13",
      "contractAddress": null,
      "l1BaseFeeScalar": "0x1db0",
      "l1BlobBaseFee": "0x1",
      "l1BlobBaseFeeScalar": "0xd2730",
      "l1Fee": "0x195874",
      "l1GasPrice": "0x21590",
      "l1GasUsed": "0x640"
    },
    {
      "status": "0x1",
      "cumulativeGasUsed": "0x4d0e19",
      "logs": [],
      "logsBloom": "0x00000000000000000000000000000000000000000000000000000000000000000000000000000000000000000000000000000000000000000000000000000000000000000000000000000000000000000000000000000000000000000000000000000000000000000000000000000000000000000000000000000000000000000000000000000000000000000000000000000000000000000000000000000000000000000000000000000000000000000000000000000000000000000000000000000000000000000000000000000000000000000000000000000000000000000000000000000000000000000000000000000000000000000000000000000000",
      "type": "0x2",
      "transactionHash": "0x80b92f204f13d052c03041ee1daccf94bc9a30f8a0fafc7dc6287252eb0891c9",
      "transactionIndex": "0x9",
      "blockHash": "0x4b5c7645892d100344466f70aa76dde6b4df2d1ec8d1396a588a8c47d3b9c1f9",
      "blockNumber": "0x1db4822",
      "gasUsed": "0x270dfc",
      "effectiveGasPrice": "0xf433b",
      "from": "0x6182051f545e673b54119800126d8802e3da034b",
      "to": null,
      "contractAddress": "0x2b82b75a0bf1aa01c9474546904bb446fd4e75c7",
      "l1BaseFeeScalar": "0x1db0",
      "l1BlobBaseFee": "0x1",
      "l1BlobBaseFeeScalar": "0xd2730",
      "l1Fee": "0x6a35296",
      "l1GasPrice": "0x21590",
      "l1GasUsed": "0x1a309"
    },
    {
      "status": "0x1",
      "cumulativeGasUsed": "0x4e2cc3",
      "logs": [
        {
          "address": "0x7caac5eb64e3721a82121f3b9b247cb6ffca7203",
          "topics": [
            "0x8c5be1e5ebec7d5bd14f71427d1e84f3dd0314c0f7b2291e5b200ac8c7c3b925",
            "0x000000000000000000000000e7ced7592f323a798a3af6cb3e041a9a7179f9a4",
            "0x0000000000000000000000002b82b75a0bf1aa01c9474546904bb446fd4e75c7"
          ],
          "data": "0xffffffffffffffffffffffffffffffffffffffffffffffffffffffffffffffff",
          "blockHash": "0x4b5c7645892d100344466f70aa76dde6b4df2d1ec8d1396a588a8c47d3b9c1f9",
          "blockNumber": "0x1db4822",
          "transactionHash": "0xec57a6dbc0f9aebbef644983bc1dc944e071a6bb5d41e0cad719b3b33209a889",
          "transactionIndex": "0xa",
          "logIndex": "0x7",
          "removed": false
        }
      ],
      "logsBloom": "0x00000000000000000000000000000000000000000000000000000000000000000000000000000000000000000000000000000000000000000000000000200000000000000000000000000000000000000000000000000000000000000000000000000000000000000000000000000000000000000000000000000000000000000000000000000000000000000000000000000000000000000040000000000000024100000000000000000000000000000000000000000008000000000000000000000000000000000000000000000040000400000000000000000000000000000210000000000000000000000000000000000010000100000000000000000000",
      "type": "0x2",
      "transactionHash": "0xec57a6dbc0f9aebbef644983bc1dc944e071a6bb5d41e0cad719b3b33209a889",
      "transactionIndex": "0xa",
      "blockHash": "0x4b5c7645892d100344466f70aa76dde6b4df2d1ec8d1396a588a8c47d3b9c1f9",
      "blockNumber": "0x1db4822",
      "gasUsed": "0x11eaa",
      "effectiveGasPrice": "0xf433b",
      "from": "0x6182051f545e673b54119800126d8802e3da034b",
      "to": "0xe7ced7592f323a798a3af6cb3e041a9a7179f9a4",
      "contractAddress": null,
      "l1BaseFeeScalar": "0x1db0",
      "l1BlobBaseFee": "0x1",
      "l1BlobBaseFeeScalar": "0xd2730",
      "l1Fee": "0x195874",
      "l1GasPrice": "0x21590",
      "l1GasUsed": "0x640"
    }
  ],
  "libraries": [],
  "pending": [],
  "returns": {},
  "timestamp": 1754098833,
  "chain": 11155420,
  "commit": "ddb94a5"
}